{"contracts/SupplyChain.sol":{"SupplyChain":{"abi":[{"inputs":[],"stateMutability":"nonpayable","type":"constructor"},{"anonymous":false,"inputs":[{"indexed":false,"internalType":"uint256","name":"_id","type":"uint256"},{"indexed":false,"internalType":"string","name":"name","type":"string"},{"indexed":false,"internalType":"uint256","name":"quantity","type":"uint256"}],"name":"ProductAssign","type":"event"},{"anonymous":false,"inputs":[{"indexed":false,"internalType":"uint256","name":"id","type":"uint256"},{"indexed":false,"internalType":"string","name":"name","type":"string"},{"indexed":false,"internalType":"uint256","name":"quantity","type":"uint256"},{"indexed":false,"internalType":"uint256","name":"price","type":"uint256"},{"indexed":false,"internalType":"string","name":"location","type":"string"},{"indexed":false,"internalType":"uint256","name":"time","type":"uint256"}],"name":"ProductSell","type":"event"},{"inputs":[{"internalType":"uint256","name":"","type":"uint256"}],"name":"IdTOProduct","outputs":[{"internalType":"uint256","name":"productID","type":"uint256"},{"internalType":"string","name":"productName","type":"string"},{"internalType":"uint256","name":"productQuantity","type":"uint256"},{"internalType":"address","name":"productOwner","type":"address"}],"stateMutability":"view","type":"function"},{"inputs":[{"internalType":"string","name":"name","type":"string"},{"internalType":"uint256","name":"quantity","type":"uint256"}],"name":"assignProduct","outputs":[],"stateMutability":"nonpayable","type":"function"},{"inputs":[{"internalType":"uint256","name":"_id","type":"uint256"}],"name":"getProductDetails","outputs":[{"internalType":"uint256","name":"productID","type":"uint256"},{"internalType":"string","name":"productName","type":"string"},{"internalType":"uint256","name":"productQuantity","type":"uint256"},{"internalType":"uint256[]","name":"productPrice","type":"uint256[]"},{"internalType":"string[]","name":"productLocation","type":"string[]"},{"internalType":"uint256[]","name":"productTimestamp","type":"uint256[]"},{"internalType":"address","name":"productOwner","type":"address"}],"stateMutability":"view","type":"function"},{"inputs":[],"name":"id","outputs":[{"internalType":"uint256","name":"","type":"uint256"}],"stateMutability":"view","type":"function"},{"inputs":[],"name":"owner","outputs":[{"internalType":"address","name":"","type":"address"}],"stateMutability":"view","type":"function"},{"inputs":[{"internalType":"uint256","name":"_id","type":"uint256"}],"name":"ownerHistory","outputs":[{"internalType":"address[]","name":"","type":"address[]"}],"stateMutability":"view","type":"function"},{"inputs":[{"internalType":"uint256","name":"_id","type":"uint256"},{"internalType":"address","name":"_buyer","type":"address"},{"internalType":"uint256","name":"_price","type":"uint256"},{"internalType":"string","name":"location","type":"string"}],"name":"sellProduct","outputs":[],"stateMutability":"nonpayable","type":"function"}],"evm":{"bytecode":{"linkReferences":{},"object":"60806040523480156200001157600080fd5b506200002e673228560bcf40b97860c01b620000b660201b60201c565b6200004a6733e492be3add006560c01b620000b660201b60201c565b33600160006101000a81548173ffffffffffffffffffffffffffffffffffffffff021916908373ffffffffffffffffffffffffffffffffffffffff160217905550620000a7672d726a0f71a92ad160c01b620000b660201b60201c565b6103e8600081905550620000b9565b50565b611d7980620000c96000396000f3fe608060405234801561001057600080fd5b506004361061007d5760003560e01c80636813b53b1161005b5780636813b53b146100ea5780638da5cb5b14610120578063a8c141b91461013e578063af640d0f146101715761007d565b806325c4db84146100825780633f6b6a7c1461009e578063461fc090146100ba575b600080fd5b61009c60048036038101906100979190611121565b61018f565b005b6100b860048036038101906100b391906111a9565b61057f565b005b6100d460048036038101906100cf9190611209565b6108d7565b6040516100e191906112f4565b60405180910390f35b61010460048036038101906100ff9190611209565b6109b4565b604051610117979695949392919061158e565b60405180910390f35b610128610d9d565b6040516101359190611619565b60405180910390f35b61015860048036038101906101539190611209565b610dc3565b6040516101689493929190611634565b60405180910390f35b610179610e9b565b6040516101869190611680565b60405180910390f35b6101a3670a4088b681306da960c01b610ea1565b6101b7675bb39dd1ab14564e60c01b610ea1565b6101cb677a9d213de269265060c01b610ea1565b6101df679ef7297ba69e3b7260c01b610ea1565b6002600086815260200190815260200160002060060160009054906101000a900473ffffffffffffffffffffffffffffffffffffffff1673ffffffffffffffffffffffffffffffffffffffff163373ffffffffffffffffffffffffffffffffffffffff1614610283576040517f08c379a000000000000000000000000000000000000000000000000000000000815260040161027a906116e7565b60405180910390fd5b610297673257d6be5ac2c3d860c01b610ea1565b6102ab67154e639afd8a687e60c01b610ea1565b6102bf673a94dc0e7dbadcdf60c01b610ea1565b6002600086815260200190815260200160002060030183908060018154018082558091505060019003906000526020600020016000909190919091505561031067b3453eb6a8b3e17c60c01b610ea1565b6103246752dae225d143d43960c01b610ea1565b6002600086815260200190815260200160002060050142908060018154018082558091505060019003906000526020600020016000909190919091505561037567ac27fbdec605999260c01b610ea1565b61038967fc13157ee97904b660c01b610ea1565b600260008681526020019081526020016000206004018282909180600181540180825580915050600190039060005260206000200160009091929091929091929091925091826103da92919061194d565b506103ef67f51407d1b284998960c01b610ea1565b836002600087815260200190815260200160002060060160006101000a81548173ffffffffffffffffffffffffffffffffffffffff021916908373ffffffffffffffffffffffffffffffffffffffff16021790555061045867db0d4cc992d3a00960c01b610ea1565b61046c6717e40f5e1ffcc59560c01b610ea1565b60036000868152602001908152602001600020849080600181540180825580915050600190039060005260206000200160009091909190916101000a81548173ffffffffffffffffffffffffffffffffffffffff021916908373ffffffffffffffffffffffffffffffffffffffff1602179055506104f4674a4eeccfec33fbf060c01b610ea1565b610508672ec091822d42246060c01b610ea1565b7feccee9e6dbeeacbeb51c12daab94cba38c69e3fcc211b850f6ea7fde52451873856002600080548152602001908152602001600020600101600260008054815260200190815260200160002060020154868686426040516105709796959493929190611add565b60405180910390a15050505050565b61059367cbde3799e5fe37f560c01b610ea1565b6105a767a0d780bac81a45a260c01b610ea1565b6105bb6734491da83de675a960c01b610ea1565b6105c3610ea4565b6105d767c12e778fc321d3ef60c01b610ea1565b6000548160000181815250506105f7674b18dbb41a507ffa60c01b610ea1565b83838080601f016020809104026020016040519081016040528093929190818152602001838380828437600081840152601f19601f820116905080830192505050505050508160200181905250610658673ba280429f67cab060c01b610ea1565b818160400181815250506106766709495596beb46bfe60c01b610ea1565b338160c0019073ffffffffffffffffffffffffffffffffffffffff16908173ffffffffffffffffffffffffffffffffffffffff16815250506106c26705fe16a9b994f57460c01b610ea1565b8060026000805481526020019081526020016000206000820151816000015560208201518160010190816106f69190611b4e565b5060408201518160020155606082015181600301908051906020019061071d929190610ef7565b50608082015181600401908051906020019061073a929190610f44565b5060a0820151816005019080519060200190610757929190610ef7565b5060c08201518160060160006101000a81548173ffffffffffffffffffffffffffffffffffffffff021916908373ffffffffffffffffffffffffffffffffffffffff1602179055509050506107b6674eebc83b5839f7dd60c01b610ea1565b6107ca67aa4957523dc80dd460c01b610ea1565b6003600080548152602001908152602001600020339080600181540180825580915050600190039060005260206000200160009091909190916101000a81548173ffffffffffffffffffffffffffffffffffffffff021916908373ffffffffffffffffffffffffffffffffffffffff16021790555061085367e0cdc8c8a158531260c01b610ea1565b610867672b324cc9213f46ee60c01b610ea1565b7fe25e7cbd30846862937ea31dfcf58fb5d35ae9fed07c8dfdc8bcdd1441308c9260005485858560405161089e9493929190611c20565b60405180910390a16108ba67697bb48277856a4160c01b610ea1565b6000808154809291906108cc90611c8f565b919050555050505050565b60606108ed67be7bd76b38b2b8b260c01b610ea1565b61090167663c812fbc1f0a9d60c01b610ea1565b6109156793226b29d4d176c360c01b610ea1565b600360008381526020019081526020016000208054806020026020016040519081016040528092919081815260200182805480156109a857602002820191906000526020600020905b8160009054906101000a900473ffffffffffffffffffffffffffffffffffffffff1673ffffffffffffffffffffffffffffffffffffffff168152602001906001019080831161095e575b50505050509050919050565b600060606000606080606060006109d567cb371a034e018e7260c01b610ea1565b6109e967221260a25d560f4160c01b610ea1565b6109fd67668bf36727efa51d60c01b610ea1565b610a116736ddc14c94e13dc760c01b610ea1565b6000548810610a55576040517f08c379a0000000000000000000000000000000000000000000000000000000008152600401610a4c90611d23565b60405180910390fd5b610a6967113a82d546d01b0d60c01b610ea1565b610a7d67f3ed8bfe6594ced860c01b610ea1565b610a916793ea74d95ee86a0460c01b610ea1565b6000600260008a81526020019081526020016000206040518060e001604052908160008201548152602001600182018054610acb90611770565b80601f0160208091040260200160405190810160405280929190818152602001828054610af790611770565b8015610b445780601f10610b1957610100808354040283529160200191610b44565b820191906000526020600020905b815481529060010190602001808311610b2757829003601f168201915b505050505081526020016002820154815260200160038201805480602002602001604051908101604052809291908181526020018280548015610ba657602002820191906000526020600020905b815481526020019060010190808311610b92575b5050505050815260200160048201805480602002602001604051908101604052809291908181526020016000905b82821015610c80578382906000526020600020018054610bf390611770565b80601f0160208091040260200160405190810160405280929190818152602001828054610c1f90611770565b8015610c6c5780601f10610c4157610100808354040283529160200191610c6c565b820191906000526020600020905b815481529060010190602001808311610c4f57829003601f168201915b505050505081526020019060010190610bd4565b50505050815260200160058201805480602002602001604051908101604052809291908181526020018280548015610cd757602002820191906000526020600020905b815481526020019060010190808311610cc3575b505050505081526020016006820160009054906101000a900473ffffffffffffffffffffffffffffffffffffffff1673ffffffffffffffffffffffffffffffffffffffff1673ffffffffffffffffffffffffffffffffffffffff16815250509050610d4c67168112e9e618f8f160c01b610ea1565b610d6067a6efc41922e07fca60c01b610ea1565b806000015181602001518260400151836060015184608001518560a001518660c00151975097509750975097509750975050919395979092949650565b600160009054906101000a900473ffffffffffffffffffffffffffffffffffffffff1681565b6002602052806000526040600020600091509050806000015490806001018054610dec90611770565b80601f0160208091040260200160405190810160405280929190818152602001828054610e1890611770565b8015610e655780601f10610e3a57610100808354040283529160200191610e65565b820191906000526020600020905b815481529060010190602001808311610e4857829003601f168201915b5050505050908060020154908060060160009054906101000a900473ffffffffffffffffffffffffffffffffffffffff16905084565b60005481565b50565b6040518060e00160405280600081526020016060815260200160008152602001606081526020016060815260200160608152602001600073ffffffffffffffffffffffffffffffffffffffff1681525090565b828054828255906000526020600020908101928215610f33579160200282015b82811115610f32578251825591602001919060010190610f17565b5b509050610f409190610f9d565b5090565b828054828255906000526020600020908101928215610f8c579160200282015b82811115610f8b578251829081610f7b9190611b4e565b5091602001919060010190610f64565b5b509050610f999190610fba565b5090565b5b80821115610fb6576000816000905550600101610f9e565b5090565b5b80821115610fda5760008181610fd19190610fde565b50600101610fbb565b5090565b508054610fea90611770565b6000825580601f10610ffc575061101b565b601f01602090049060005260206000209081019061101a9190610f9d565b5b50565b600080fd5b600080fd5b6000819050919050565b61103b81611028565b811461104657600080fd5b50565b60008135905061105881611032565b92915050565b600073ffffffffffffffffffffffffffffffffffffffff82169050919050565b60006110898261105e565b9050919050565b6110998161107e565b81146110a457600080fd5b50565b6000813590506110b681611090565b92915050565b600080fd5b600080fd5b600080fd5b60008083601f8401126110e1576110e06110bc565b5b8235905067ffffffffffffffff8111156110fe576110fd6110c1565b5b60208301915083600182028301111561111a576111196110c6565b5b9250929050565b60008060008060006080868803121561113d5761113c61101e565b5b600061114b88828901611049565b955050602061115c888289016110a7565b945050604061116d88828901611049565b935050606086013567ffffffffffffffff81111561118e5761118d611023565b5b61119a888289016110cb565b92509250509295509295909350565b6000806000604084860312156111c2576111c161101e565b5b600084013567ffffffffffffffff8111156111e0576111df611023565b5b6111ec868287016110cb565b935093505060206111ff86828701611049565b9150509250925092565b60006020828403121561121f5761121e61101e565b5b600061122d84828501611049565b91505092915050565b600081519050919050565b600082825260208201905092915050565b6000819050602082019050919050565b61126b8161107e565b82525050565b600061127d8383611262565b60208301905092915050565b6000602082019050919050565b60006112a182611236565b6112ab8185611241565b93506112b683611252565b8060005b838110156112e75781516112ce8882611271565b97506112d983611289565b9250506001810190506112ba565b5085935050505092915050565b6000602082019050818103600083015261130e8184611296565b905092915050565b61131f81611028565b82525050565b600081519050919050565b600082825260208201905092915050565b60005b8381101561135f578082015181840152602081019050611344565b60008484015250505050565b6000601f19601f8301169050919050565b600061138782611325565b6113918185611330565b93506113a1818560208601611341565b6113aa8161136b565b840191505092915050565b600081519050919050565b600082825260208201905092915050565b6000819050602082019050919050565b6113ea81611028565b82525050565b60006113fc83836113e1565b60208301905092915050565b6000602082019050919050565b6000611420826113b5565b61142a81856113c0565b9350611435836113d1565b8060005b8381101561146657815161144d88826113f0565b975061145883611408565b925050600181019050611439565b5085935050505092915050565b600081519050919050565b600082825260208201905092915050565b6000819050602082019050919050565b600082825260208201905092915050565b60006114bb82611325565b6114c5818561149f565b93506114d5818560208601611341565b6114de8161136b565b840191505092915050565b60006114f583836114b0565b905092915050565b6000602082019050919050565b600061151582611473565b61151f818561147e565b9350836020820285016115318561148f565b8060005b8581101561156d578484038952815161154e85826114e9565b9450611559836114fd565b925060208a01995050600181019050611535565b50829750879550505050505092915050565b6115888161107e565b82525050565b600060e0820190506115a3600083018a611316565b81810360208301526115b5818961137c565b90506115c46040830188611316565b81810360608301526115d68187611415565b905081810360808301526115ea818661150a565b905081810360a08301526115fe8185611415565b905061160d60c083018461157f565b98975050505050505050565b600060208201905061162e600083018461157f565b92915050565b60006080820190506116496000830187611316565b818103602083015261165b818661137c565b905061166a6040830185611316565b611677606083018461157f565b95945050505050565b60006020820190506116956000830184611316565b92915050565b7f4e6f744f776e6572000000000000000000000000000000000000000000000000600082015250565b60006116d1600883611330565b91506116dc8261169b565b602082019050919050565b60006020820190508181036000830152611700816116c4565b9050919050565b600082905092915050565b7f4e487b7100000000000000000000000000000000000000000000000000000000600052604160045260246000fd5b7f4e487b7100000000000000000000000000000000000000000000000000000000600052602260045260246000fd5b6000600282049050600182168061178857607f821691505b60208210810361179b5761179a611741565b5b50919050565b60008190508160005260206000209050919050565b60006020601f8301049050919050565b600082821b905092915050565b6000600883026118037fffffffffffffffffffffffffffffffffffffffffffffffffffffffffffffffff826117c6565b61180d86836117c6565b95508019841693508086168417925050509392505050565b6000819050919050565b600061184a61184561184084611028565b611825565b611028565b9050919050565b6000819050919050565b6118648361182f565b61187861187082611851565b8484546117d3565b825550505050565b600090565b61188d611880565b61189881848461185b565b505050565b5b818110156118bc576118b1600082611885565b60018101905061189e565b5050565b601f821115611901576118d2816117a1565b6118db846117b6565b810160208510156118ea578190505b6118fe6118f6856117b6565b83018261189d565b50505b505050565b600082821c905092915050565b600061192460001984600802611906565b1980831691505092915050565b600061193d8383611913565b9150826002028217905092915050565b6119578383611707565b67ffffffffffffffff8111156119705761196f611712565b5b61197a8254611770565b6119858282856118c0565b6000601f8311600181146119b457600084156119a2578287013590505b6119ac8582611931565b865550611a14565b601f1984166119c2866117a1565b60005b828110156119ea578489013582556001820191506020850194506020810190506119c5565b86831015611a075784890135611a03601f891682611913565b8355505b6001600288020188555050505b50505050505050565b60008154611a2a81611770565b611a348186611330565b94506001821660008114611a4f5760018114611a6557611a98565b60ff198316865281151560200286019350611a98565b611a6e856117a1565b60005b83811015611a9057815481890152600182019150602081019050611a71565b808801955050505b50505092915050565b82818337600083830152505050565b6000611abc8385611330565b9350611ac9838584611aa1565b611ad28361136b565b840190509392505050565b600060c082019050611af2600083018a611316565b8181036020830152611b048189611a1d565b9050611b136040830188611316565b611b206060830187611316565b8181036080830152611b33818587611ab0565b9050611b4260a0830184611316565b98975050505050505050565b611b5782611325565b67ffffffffffffffff811115611b7057611b6f611712565b5b611b7a8254611770565b611b858282856118c0565b600060209050601f831160018114611bb85760008415611ba6578287015190505b611bb08582611931565b865550611c18565b601f198416611bc6866117a1565b60005b82811015611bee57848901518255600182019150602085019450602081019050611bc9565b86831015611c0b5784890151611c07601f891682611913565b8355505b6001600288020188555050505b505050505050565b6000606082019050611c356000830187611316565b8181036020830152611c48818587611ab0565b9050611c576040830184611316565b95945050505050565b7f4e487b7100000000000000000000000000000000000000000000000000000000600052601160045260246000fd5b6000611c9a82611028565b91507fffffffffffffffffffffffffffffffffffffffffffffffffffffffffffffffff8203611ccc57611ccb611c60565b5b600182019050919050565b7f496e76616c69642070726f647563742049440000000000000000000000000000600082015250565b6000611d0d601283611330565b9150611d1882611cd7565b602082019050919050565b60006020820190508181036000830152611d3c81611d00565b905091905056fea26469706673582212204f6987274dc9bc2f8866878993ded019c3996245c53ce18059b86540159f698c64736f6c63430008120033","opcodes":"PUSH1 0x80 PUSH1 0x40 MSTORE CALLVALUE DUP1 ISZERO PUSH3 0x11 JUMPI PUSH1 0x0 DUP1 REVERT JUMPDEST POP PUSH3 0x2E PUSH8 0x3228560BCF40B978 PUSH1 0xC0 SHL PUSH3 0xB6 PUSH1 0x20 SHL PUSH1 0x20 SHR JUMP JUMPDEST PUSH3 0x4A PUSH8 0x33E492BE3ADD0065 PUSH1 0xC0 SHL PUSH3 0xB6 PUSH1 0x20 SHL PUSH1 0x20 SHR JUMP JUMPDEST CALLER PUSH1 0x1 PUSH1 0x0 PUSH2 0x100 EXP DUP2 SLOAD DUP2 PUSH20 0xFFFFFFFFFFFFFFFFFFFFFFFFFFFFFFFFFFFFFFFF MUL NOT AND SWAP1 DUP4 PUSH20 0xFFFFFFFFFFFFFFFFFFFFFFFFFFFFFFFFFFFFFFFF AND MUL OR SWAP1 SSTORE POP PUSH3 0xA7 PUSH8 0x2D726A0F71A92AD1 PUSH1 0xC0 SHL PUSH3 0xB6 PUSH1 0x20 SHL PUSH1 0x20 SHR JUMP JUMPDEST PUSH2 0x3E8 PUSH1 0x0 DUP2 SWAP1 SSTORE POP PUSH3 0xB9 JUMP JUMPDEST POP JUMP JUMPDEST PUSH2 0x1D79 DUP1 PUSH3 0xC9 PUSH1 0x0 CODECOPY PUSH1 0x0 RETURN INVALID PUSH1 0x80 PUSH1 0x40 MSTORE CALLVALUE DUP1 ISZERO PUSH2 0x10 JUMPI PUSH1 0x0 DUP1 REVERT JUMPDEST POP PUSH1 0x4 CALLDATASIZE LT PUSH2 0x7D JUMPI PUSH1 0x0 CALLDATALOAD PUSH1 0xE0 SHR DUP1 PUSH4 0x6813B53B GT PUSH2 0x5B JUMPI DUP1 PUSH4 0x6813B53B EQ PUSH2 0xEA JUMPI DUP1 PUSH4 0x8DA5CB5B EQ PUSH2 0x120 JUMPI DUP1 PUSH4 0xA8C141B9 EQ PUSH2 0x13E JUMPI DUP1 PUSH4 0xAF640D0F EQ PUSH2 0x171 JUMPI PUSH2 0x7D JUMP JUMPDEST DUP1 PUSH4 0x25C4DB84 EQ PUSH2 0x82 JUMPI DUP1 PUSH4 0x3F6B6A7C EQ PUSH2 0x9E JUMPI DUP1 PUSH4 0x461FC090 EQ PUSH2 0xBA JUMPI JUMPDEST PUSH1 0x0 DUP1 REVERT JUMPDEST PUSH2 0x9C PUSH1 0x4 DUP1 CALLDATASIZE SUB DUP2 ADD SWAP1 PUSH2 0x97 SWAP2 SWAP1 PUSH2 0x1121 JUMP JUMPDEST PUSH2 0x18F JUMP JUMPDEST STOP JUMPDEST PUSH2 0xB8 PUSH1 0x4 DUP1 CALLDATASIZE SUB DUP2 ADD SWAP1 PUSH2 0xB3 SWAP2 SWAP1 PUSH2 0x11A9 JUMP JUMPDEST PUSH2 0x57F JUMP JUMPDEST STOP JUMPDEST PUSH2 0xD4 PUSH1 0x4 DUP1 CALLDATASIZE SUB DUP2 ADD SWAP1 PUSH2 0xCF SWAP2 SWAP1 PUSH2 0x1209 JUMP JUMPDEST PUSH2 0x8D7 JUMP JUMPDEST PUSH1 0x40 MLOAD PUSH2 0xE1 SWAP2 SWAP1 PUSH2 0x12F4 JUMP JUMPDEST PUSH1 0x40 MLOAD DUP1 SWAP2 SUB SWAP1 RETURN JUMPDEST PUSH2 0x104 PUSH1 0x4 DUP1 CALLDATASIZE SUB DUP2 ADD SWAP1 PUSH2 0xFF SWAP2 SWAP1 PUSH2 0x1209 JUMP JUMPDEST PUSH2 0x9B4 JUMP JUMPDEST PUSH1 0x40 MLOAD PUSH2 0x117 SWAP8 SWAP7 SWAP6 SWAP5 SWAP4 SWAP3 SWAP2 SWAP1 PUSH2 0x158E JUMP JUMPDEST PUSH1 0x40 MLOAD DUP1 SWAP2 SUB SWAP1 RETURN JUMPDEST PUSH2 0x128 PUSH2 0xD9D JUMP JUMPDEST PUSH1 0x40 MLOAD PUSH2 0x135 SWAP2 SWAP1 PUSH2 0x1619 JUMP JUMPDEST PUSH1 0x40 MLOAD DUP1 SWAP2 SUB SWAP1 RETURN JUMPDEST PUSH2 0x158 PUSH1 0x4 DUP1 CALLDATASIZE SUB DUP2 ADD SWAP1 PUSH2 0x153 SWAP2 SWAP1 PUSH2 0x1209 JUMP JUMPDEST PUSH2 0xDC3 JUMP JUMPDEST PUSH1 0x40 MLOAD PUSH2 0x168 SWAP5 SWAP4 SWAP3 SWAP2 SWAP1 PUSH2 0x1634 JUMP JUMPDEST PUSH1 0x40 MLOAD DUP1 SWAP2 SUB SWAP1 RETURN JUMPDEST PUSH2 0x179 PUSH2 0xE9B JUMP JUMPDEST PUSH1 0x40 MLOAD PUSH2 0x186 SWAP2 SWAP1 PUSH2 0x1680 JUMP JUMPDEST PUSH1 0x40 MLOAD DUP1 SWAP2 SUB SWAP1 RETURN JUMPDEST PUSH2 0x1A3 PUSH8 0xA4088B681306DA9 PUSH1 0xC0 SHL PUSH2 0xEA1 JUMP JUMPDEST PUSH2 0x1B7 PUSH8 0x5BB39DD1AB14564E PUSH1 0xC0 SHL PUSH2 0xEA1 JUMP JUMPDEST PUSH2 0x1CB PUSH8 0x7A9D213DE2692650 PUSH1 0xC0 SHL PUSH2 0xEA1 JUMP JUMPDEST PUSH2 0x1DF PUSH8 0x9EF7297BA69E3B72 PUSH1 0xC0 SHL PUSH2 0xEA1 JUMP JUMPDEST PUSH1 0x2 PUSH1 0x0 DUP7 DUP2 MSTORE PUSH1 0x20 ADD SWAP1 DUP2 MSTORE PUSH1 0x20 ADD PUSH1 0x0 KECCAK256 PUSH1 0x6 ADD PUSH1 0x0 SWAP1 SLOAD SWAP1 PUSH2 0x100 EXP SWAP1 DIV PUSH20 0xFFFFFFFFFFFFFFFFFFFFFFFFFFFFFFFFFFFFFFFF AND PUSH20 0xFFFFFFFFFFFFFFFFFFFFFFFFFFFFFFFFFFFFFFFF AND CALLER PUSH20 0xFFFFFFFFFFFFFFFFFFFFFFFFFFFFFFFFFFFFFFFF AND EQ PUSH2 0x283 JUMPI PUSH1 0x40 MLOAD PUSH32 0x8C379A000000000000000000000000000000000000000000000000000000000 DUP2 MSTORE PUSH1 0x4 ADD PUSH2 0x27A SWAP1 PUSH2 0x16E7 JUMP JUMPDEST PUSH1 0x40 MLOAD DUP1 SWAP2 SUB SWAP1 REVERT JUMPDEST PUSH2 0x297 PUSH8 0x3257D6BE5AC2C3D8 PUSH1 0xC0 SHL PUSH2 0xEA1 JUMP JUMPDEST PUSH2 0x2AB PUSH8 0x154E639AFD8A687E PUSH1 0xC0 SHL PUSH2 0xEA1 JUMP JUMPDEST PUSH2 0x2BF PUSH8 0x3A94DC0E7DBADCDF PUSH1 0xC0 SHL PUSH2 0xEA1 JUMP JUMPDEST PUSH1 0x2 PUSH1 0x0 DUP7 DUP2 MSTORE PUSH1 0x20 ADD SWAP1 DUP2 MSTORE PUSH1 0x20 ADD PUSH1 0x0 KECCAK256 PUSH1 0x3 ADD DUP4 SWAP1 DUP1 PUSH1 0x1 DUP2 SLOAD ADD DUP1 DUP3 SSTORE DUP1 SWAP2 POP POP PUSH1 0x1 SWAP1 SUB SWAP1 PUSH1 0x0 MSTORE PUSH1 0x20 PUSH1 0x0 KECCAK256 ADD PUSH1 0x0 SWAP1 SWAP2 SWAP1 SWAP2 SWAP1 SWAP2 POP SSTORE PUSH2 0x310 PUSH8 0xB3453EB6A8B3E17C PUSH1 0xC0 SHL PUSH2 0xEA1 JUMP JUMPDEST PUSH2 0x324 PUSH8 0x52DAE225D143D439 PUSH1 0xC0 SHL PUSH2 0xEA1 JUMP JUMPDEST PUSH1 0x2 PUSH1 0x0 DUP7 DUP2 MSTORE PUSH1 0x20 ADD SWAP1 DUP2 MSTORE PUSH1 0x20 ADD PUSH1 0x0 KECCAK256 PUSH1 0x5 ADD TIMESTAMP SWAP1 DUP1 PUSH1 0x1 DUP2 SLOAD ADD DUP1 DUP3 SSTORE DUP1 SWAP2 POP POP PUSH1 0x1 SWAP1 SUB SWAP1 PUSH1 0x0 MSTORE PUSH1 0x20 PUSH1 0x0 KECCAK256 ADD PUSH1 0x0 SWAP1 SWAP2 SWAP1 SWAP2 SWAP1 SWAP2 POP SSTORE PUSH2 0x375 PUSH8 0xAC27FBDEC6059992 PUSH1 0xC0 SHL PUSH2 0xEA1 JUMP JUMPDEST PUSH2 0x389 PUSH8 0xFC13157EE97904B6 PUSH1 0xC0 SHL PUSH2 0xEA1 JUMP JUMPDEST PUSH1 0x2 PUSH1 0x0 DUP7 DUP2 MSTORE PUSH1 0x20 ADD SWAP1 DUP2 MSTORE PUSH1 0x20 ADD PUSH1 0x0 KECCAK256 PUSH1 0x4 ADD DUP3 DUP3 SWAP1 SWAP2 DUP1 PUSH1 0x1 DUP2 SLOAD ADD DUP1 DUP3 SSTORE DUP1 SWAP2 POP POP PUSH1 0x1 SWAP1 SUB SWAP1 PUSH1 0x0 MSTORE PUSH1 0x20 PUSH1 0x0 KECCAK256 ADD PUSH1 0x0 SWAP1 SWAP2 SWAP3 SWAP1 SWAP2 SWAP3 SWAP1 SWAP2 SWAP3 SWAP1 SWAP2 SWAP3 POP SWAP2 DUP3 PUSH2 0x3DA SWAP3 SWAP2 SWAP1 PUSH2 0x194D JUMP JUMPDEST POP PUSH2 0x3EF PUSH8 0xF51407D1B2849989 PUSH1 0xC0 SHL PUSH2 0xEA1 JUMP JUMPDEST DUP4 PUSH1 0x2 PUSH1 0x0 DUP8 DUP2 MSTORE PUSH1 0x20 ADD SWAP1 DUP2 MSTORE PUSH1 0x20 ADD PUSH1 0x0 KECCAK256 PUSH1 0x6 ADD PUSH1 0x0 PUSH2 0x100 EXP DUP2 SLOAD DUP2 PUSH20 0xFFFFFFFFFFFFFFFFFFFFFFFFFFFFFFFFFFFFFFFF MUL NOT AND SWAP1 DUP4 PUSH20 0xFFFFFFFFFFFFFFFFFFFFFFFFFFFFFFFFFFFFFFFF AND MUL OR SWAP1 SSTORE POP PUSH2 0x458 PUSH8 0xDB0D4CC992D3A009 PUSH1 0xC0 SHL PUSH2 0xEA1 JUMP JUMPDEST PUSH2 0x46C PUSH8 0x17E40F5E1FFCC595 PUSH1 0xC0 SHL PUSH2 0xEA1 JUMP JUMPDEST PUSH1 0x3 PUSH1 0x0 DUP7 DUP2 MSTORE PUSH1 0x20 ADD SWAP1 DUP2 MSTORE PUSH1 0x20 ADD PUSH1 0x0 KECCAK256 DUP5 SWAP1 DUP1 PUSH1 0x1 DUP2 SLOAD ADD DUP1 DUP3 SSTORE DUP1 SWAP2 POP POP PUSH1 0x1 SWAP1 SUB SWAP1 PUSH1 0x0 MSTORE PUSH1 0x20 PUSH1 0x0 KECCAK256 ADD PUSH1 0x0 SWAP1 SWAP2 SWAP1 SWAP2 SWAP1 SWAP2 PUSH2 0x100 EXP DUP2 SLOAD DUP2 PUSH20 0xFFFFFFFFFFFFFFFFFFFFFFFFFFFFFFFFFFFFFFFF MUL NOT AND SWAP1 DUP4 PUSH20 0xFFFFFFFFFFFFFFFFFFFFFFFFFFFFFFFFFFFFFFFF AND MUL OR SWAP1 SSTORE POP PUSH2 0x4F4 PUSH8 0x4A4EECCFEC33FBF0 PUSH1 0xC0 SHL PUSH2 0xEA1 JUMP JUMPDEST PUSH2 0x508 PUSH8 0x2EC091822D422460 PUSH1 0xC0 SHL PUSH2 0xEA1 JUMP JUMPDEST PUSH32 0xECCEE9E6DBEEACBEB51C12DAAB94CBA38C69E3FCC211B850F6EA7FDE52451873 DUP6 PUSH1 0x2 PUSH1 0x0 DUP1 SLOAD DUP2 MSTORE PUSH1 0x20 ADD SWAP1 DUP2 MSTORE PUSH1 0x20 ADD PUSH1 0x0 KECCAK256 PUSH1 0x1 ADD PUSH1 0x2 PUSH1 0x0 DUP1 SLOAD DUP2 MSTORE PUSH1 0x20 ADD SWAP1 DUP2 MSTORE PUSH1 0x20 ADD PUSH1 0x0 KECCAK256 PUSH1 0x2 ADD SLOAD DUP7 DUP7 DUP7 TIMESTAMP PUSH1 0x40 MLOAD PUSH2 0x570 SWAP8 SWAP7 SWAP6 SWAP5 SWAP4 SWAP3 SWAP2 SWAP1 PUSH2 0x1ADD JUMP JUMPDEST PUSH1 0x40 MLOAD DUP1 SWAP2 SUB SWAP1 LOG1 POP POP POP POP POP JUMP JUMPDEST PUSH2 0x593 PUSH8 0xCBDE3799E5FE37F5 PUSH1 0xC0 SHL PUSH2 0xEA1 JUMP JUMPDEST PUSH2 0x5A7 PUSH8 0xA0D780BAC81A45A2 PUSH1 0xC0 SHL PUSH2 0xEA1 JUMP JUMPDEST PUSH2 0x5BB PUSH8 0x34491DA83DE675A9 PUSH1 0xC0 SHL PUSH2 0xEA1 JUMP JUMPDEST PUSH2 0x5C3 PUSH2 0xEA4 JUMP JUMPDEST PUSH2 0x5D7 PUSH8 0xC12E778FC321D3EF PUSH1 0xC0 SHL PUSH2 0xEA1 JUMP JUMPDEST PUSH1 0x0 SLOAD DUP2 PUSH1 0x0 ADD DUP2 DUP2 MSTORE POP POP PUSH2 0x5F7 PUSH8 0x4B18DBB41A507FFA PUSH1 0xC0 SHL PUSH2 0xEA1 JUMP JUMPDEST DUP4 DUP4 DUP1 DUP1 PUSH1 0x1F ADD PUSH1 0x20 DUP1 SWAP2 DIV MUL PUSH1 0x20 ADD PUSH1 0x40 MLOAD SWAP1 DUP2 ADD PUSH1 0x40 MSTORE DUP1 SWAP4 SWAP3 SWAP2 SWAP1 DUP2 DUP2 MSTORE PUSH1 0x20 ADD DUP4 DUP4 DUP1 DUP3 DUP5 CALLDATACOPY PUSH1 0x0 DUP2 DUP5 ADD MSTORE PUSH1 0x1F NOT PUSH1 0x1F DUP3 ADD AND SWAP1 POP DUP1 DUP4 ADD SWAP3 POP POP POP POP POP POP POP DUP2 PUSH1 0x20 ADD DUP2 SWAP1 MSTORE POP PUSH2 0x658 PUSH8 0x3BA280429F67CAB0 PUSH1 0xC0 SHL PUSH2 0xEA1 JUMP JUMPDEST DUP2 DUP2 PUSH1 0x40 ADD DUP2 DUP2 MSTORE POP POP PUSH2 0x676 PUSH8 0x9495596BEB46BFE PUSH1 0xC0 SHL PUSH2 0xEA1 JUMP JUMPDEST CALLER DUP2 PUSH1 0xC0 ADD SWAP1 PUSH20 0xFFFFFFFFFFFFFFFFFFFFFFFFFFFFFFFFFFFFFFFF AND SWAP1 DUP2 PUSH20 0xFFFFFFFFFFFFFFFFFFFFFFFFFFFFFFFFFFFFFFFF AND DUP2 MSTORE POP POP PUSH2 0x6C2 PUSH8 0x5FE16A9B994F574 PUSH1 0xC0 SHL PUSH2 0xEA1 JUMP JUMPDEST DUP1 PUSH1 0x2 PUSH1 0x0 DUP1 SLOAD DUP2 MSTORE PUSH1 0x20 ADD SWAP1 DUP2 MSTORE PUSH1 0x20 ADD PUSH1 0x0 KECCAK256 PUSH1 0x0 DUP3 ADD MLOAD DUP2 PUSH1 0x0 ADD SSTORE PUSH1 0x20 DUP3 ADD MLOAD DUP2 PUSH1 0x1 ADD SWAP1 DUP2 PUSH2 0x6F6 SWAP2 SWAP1 PUSH2 0x1B4E JUMP JUMPDEST POP PUSH1 0x40 DUP3 ADD MLOAD DUP2 PUSH1 0x2 ADD SSTORE PUSH1 0x60 DUP3 ADD MLOAD DUP2 PUSH1 0x3 ADD SWAP1 DUP1 MLOAD SWAP1 PUSH1 0x20 ADD SWAP1 PUSH2 0x71D SWAP3 SWAP2 SWAP1 PUSH2 0xEF7 JUMP JUMPDEST POP PUSH1 0x80 DUP3 ADD MLOAD DUP2 PUSH1 0x4 ADD SWAP1 DUP1 MLOAD SWAP1 PUSH1 0x20 ADD SWAP1 PUSH2 0x73A SWAP3 SWAP2 SWAP1 PUSH2 0xF44 JUMP JUMPDEST POP PUSH1 0xA0 DUP3 ADD MLOAD DUP2 PUSH1 0x5 ADD SWAP1 DUP1 MLOAD SWAP1 PUSH1 0x20 ADD SWAP1 PUSH2 0x757 SWAP3 SWAP2 SWAP1 PUSH2 0xEF7 JUMP JUMPDEST POP PUSH1 0xC0 DUP3 ADD MLOAD DUP2 PUSH1 0x6 ADD PUSH1 0x0 PUSH2 0x100 EXP DUP2 SLOAD DUP2 PUSH20 0xFFFFFFFFFFFFFFFFFFFFFFFFFFFFFFFFFFFFFFFF MUL NOT AND SWAP1 DUP4 PUSH20 0xFFFFFFFFFFFFFFFFFFFFFFFFFFFFFFFFFFFFFFFF AND MUL OR SWAP1 SSTORE POP SWAP1 POP POP PUSH2 0x7B6 PUSH8 0x4EEBC83B5839F7DD PUSH1 0xC0 SHL PUSH2 0xEA1 JUMP JUMPDEST PUSH2 0x7CA PUSH8 0xAA4957523DC80DD4 PUSH1 0xC0 SHL PUSH2 0xEA1 JUMP JUMPDEST PUSH1 0x3 PUSH1 0x0 DUP1 SLOAD DUP2 MSTORE PUSH1 0x20 ADD SWAP1 DUP2 MSTORE PUSH1 0x20 ADD PUSH1 0x0 KECCAK256 CALLER SWAP1 DUP1 PUSH1 0x1 DUP2 SLOAD ADD DUP1 DUP3 SSTORE DUP1 SWAP2 POP POP PUSH1 0x1 SWAP1 SUB SWAP1 PUSH1 0x0 MSTORE PUSH1 0x20 PUSH1 0x0 KECCAK256 ADD PUSH1 0x0 SWAP1 SWAP2 SWAP1 SWAP2 SWAP1 SWAP2 PUSH2 0x100 EXP DUP2 SLOAD DUP2 PUSH20 0xFFFFFFFFFFFFFFFFFFFFFFFFFFFFFFFFFFFFFFFF MUL NOT AND SWAP1 DUP4 PUSH20 0xFFFFFFFFFFFFFFFFFFFFFFFFFFFFFFFFFFFFFFFF AND MUL OR SWAP1 SSTORE POP PUSH2 0x853 PUSH8 0xE0CDC8C8A1585312 PUSH1 0xC0 SHL PUSH2 0xEA1 JUMP JUMPDEST PUSH2 0x867 PUSH8 0x2B324CC9213F46EE PUSH1 0xC0 SHL PUSH2 0xEA1 JUMP JUMPDEST PUSH32 0xE25E7CBD30846862937EA31DFCF58FB5D35AE9FED07C8DFDC8BCDD1441308C92 PUSH1 0x0 SLOAD DUP6 DUP6 DUP6 PUSH1 0x40 MLOAD PUSH2 0x89E SWAP5 SWAP4 SWAP3 SWAP2 SWAP1 PUSH2 0x1C20 JUMP JUMPDEST PUSH1 0x40 MLOAD DUP1 SWAP2 SUB SWAP1 LOG1 PUSH2 0x8BA PUSH8 0x697BB48277856A41 PUSH1 0xC0 SHL PUSH2 0xEA1 JUMP JUMPDEST PUSH1 0x0 DUP1 DUP2 SLOAD DUP1 SWAP3 SWAP2 SWAP1 PUSH2 0x8CC SWAP1 PUSH2 0x1C8F JUMP JUMPDEST SWAP2 SWAP1 POP SSTORE POP POP POP POP POP JUMP JUMPDEST PUSH1 0x60 PUSH2 0x8ED PUSH8 0xBE7BD76B38B2B8B2 PUSH1 0xC0 SHL PUSH2 0xEA1 JUMP JUMPDEST PUSH2 0x901 PUSH8 0x663C812FBC1F0A9D PUSH1 0xC0 SHL PUSH2 0xEA1 JUMP JUMPDEST PUSH2 0x915 PUSH8 0x93226B29D4D176C3 PUSH1 0xC0 SHL PUSH2 0xEA1 JUMP JUMPDEST PUSH1 0x3 PUSH1 0x0 DUP4 DUP2 MSTORE PUSH1 0x20 ADD SWAP1 DUP2 MSTORE PUSH1 0x20 ADD PUSH1 0x0 KECCAK256 DUP1 SLOAD DUP1 PUSH1 0x20 MUL PUSH1 0x20 ADD PUSH1 0x40 MLOAD SWAP1 DUP2 ADD PUSH1 0x40 MSTORE DUP1 SWAP3 SWAP2 SWAP1 DUP2 DUP2 MSTORE PUSH1 0x20 ADD DUP3 DUP1 SLOAD DUP1 ISZERO PUSH2 0x9A8 JUMPI PUSH1 0x20 MUL DUP3 ADD SWAP2 SWAP1 PUSH1 0x0 MSTORE PUSH1 0x20 PUSH1 0x0 KECCAK256 SWAP1 JUMPDEST DUP2 PUSH1 0x0 SWAP1 SLOAD SWAP1 PUSH2 0x100 EXP SWAP1 DIV PUSH20 0xFFFFFFFFFFFFFFFFFFFFFFFFFFFFFFFFFFFFFFFF AND PUSH20 0xFFFFFFFFFFFFFFFFFFFFFFFFFFFFFFFFFFFFFFFF AND DUP2 MSTORE PUSH1 0x20 ADD SWAP1 PUSH1 0x1 ADD SWAP1 DUP1 DUP4 GT PUSH2 0x95E JUMPI JUMPDEST POP POP POP POP POP SWAP1 POP SWAP2 SWAP1 POP JUMP JUMPDEST PUSH1 0x0 PUSH1 0x60 PUSH1 0x0 PUSH1 0x60 DUP1 PUSH1 0x60 PUSH1 0x0 PUSH2 0x9D5 PUSH8 0xCB371A034E018E72 PUSH1 0xC0 SHL PUSH2 0xEA1 JUMP JUMPDEST PUSH2 0x9E9 PUSH8 0x221260A25D560F41 PUSH1 0xC0 SHL PUSH2 0xEA1 JUMP JUMPDEST PUSH2 0x9FD PUSH8 0x668BF36727EFA51D PUSH1 0xC0 SHL PUSH2 0xEA1 JUMP JUMPDEST PUSH2 0xA11 PUSH8 0x36DDC14C94E13DC7 PUSH1 0xC0 SHL PUSH2 0xEA1 JUMP JUMPDEST PUSH1 0x0 SLOAD DUP9 LT PUSH2 0xA55 JUMPI PUSH1 0x40 MLOAD PUSH32 0x8C379A000000000000000000000000000000000000000000000000000000000 DUP2 MSTORE PUSH1 0x4 ADD PUSH2 0xA4C SWAP1 PUSH2 0x1D23 JUMP JUMPDEST PUSH1 0x40 MLOAD DUP1 SWAP2 SUB SWAP1 REVERT JUMPDEST PUSH2 0xA69 PUSH8 0x113A82D546D01B0D PUSH1 0xC0 SHL PUSH2 0xEA1 JUMP JUMPDEST PUSH2 0xA7D PUSH8 0xF3ED8BFE6594CED8 PUSH1 0xC0 SHL PUSH2 0xEA1 JUMP JUMPDEST PUSH2 0xA91 PUSH8 0x93EA74D95EE86A04 PUSH1 0xC0 SHL PUSH2 0xEA1 JUMP JUMPDEST PUSH1 0x0 PUSH1 0x2 PUSH1 0x0 DUP11 DUP2 MSTORE PUSH1 0x20 ADD SWAP1 DUP2 MSTORE PUSH1 0x20 ADD PUSH1 0x0 KECCAK256 PUSH1 0x40 MLOAD DUP1 PUSH1 0xE0 ADD PUSH1 0x40 MSTORE SWAP1 DUP2 PUSH1 0x0 DUP3 ADD SLOAD DUP2 MSTORE PUSH1 0x20 ADD PUSH1 0x1 DUP3 ADD DUP1 SLOAD PUSH2 0xACB SWAP1 PUSH2 0x1770 JUMP JUMPDEST DUP1 PUSH1 0x1F ADD PUSH1 0x20 DUP1 SWAP2 DIV MUL PUSH1 0x20 ADD PUSH1 0x40 MLOAD SWAP1 DUP2 ADD PUSH1 0x40 MSTORE DUP1 SWAP3 SWAP2 SWAP1 DUP2 DUP2 MSTORE PUSH1 0x20 ADD DUP3 DUP1 SLOAD PUSH2 0xAF7 SWAP1 PUSH2 0x1770 JUMP JUMPDEST DUP1 ISZERO PUSH2 0xB44 JUMPI DUP1 PUSH1 0x1F LT PUSH2 0xB19 JUMPI PUSH2 0x100 DUP1 DUP4 SLOAD DIV MUL DUP4 MSTORE SWAP2 PUSH1 0x20 ADD SWAP2 PUSH2 0xB44 JUMP JUMPDEST DUP3 ADD SWAP2 SWAP1 PUSH1 0x0 MSTORE PUSH1 0x20 PUSH1 0x0 KECCAK256 SWAP1 JUMPDEST DUP2 SLOAD DUP2 MSTORE SWAP1 PUSH1 0x1 ADD SWAP1 PUSH1 0x20 ADD DUP1 DUP4 GT PUSH2 0xB27 JUMPI DUP3 SWAP1 SUB PUSH1 0x1F AND DUP3 ADD SWAP2 JUMPDEST POP POP POP POP POP DUP2 MSTORE PUSH1 0x20 ADD PUSH1 0x2 DUP3 ADD SLOAD DUP2 MSTORE PUSH1 0x20 ADD PUSH1 0x3 DUP3 ADD DUP1 SLOAD DUP1 PUSH1 0x20 MUL PUSH1 0x20 ADD PUSH1 0x40 MLOAD SWAP1 DUP2 ADD PUSH1 0x40 MSTORE DUP1 SWAP3 SWAP2 SWAP1 DUP2 DUP2 MSTORE PUSH1 0x20 ADD DUP3 DUP1 SLOAD DUP1 ISZERO PUSH2 0xBA6 JUMPI PUSH1 0x20 MUL DUP3 ADD SWAP2 SWAP1 PUSH1 0x0 MSTORE PUSH1 0x20 PUSH1 0x0 KECCAK256 SWAP1 JUMPDEST DUP2 SLOAD DUP2 MSTORE PUSH1 0x20 ADD SWAP1 PUSH1 0x1 ADD SWAP1 DUP1 DUP4 GT PUSH2 0xB92 JUMPI JUMPDEST POP POP POP POP POP DUP2 MSTORE PUSH1 0x20 ADD PUSH1 0x4 DUP3 ADD DUP1 SLOAD DUP1 PUSH1 0x20 MUL PUSH1 0x20 ADD PUSH1 0x40 MLOAD SWAP1 DUP2 ADD PUSH1 0x40 MSTORE DUP1 SWAP3 SWAP2 SWAP1 DUP2 DUP2 MSTORE PUSH1 0x20 ADD PUSH1 0x0 SWAP1 JUMPDEST DUP3 DUP3 LT ISZERO PUSH2 0xC80 JUMPI DUP4 DUP3 SWAP1 PUSH1 0x0 MSTORE PUSH1 0x20 PUSH1 0x0 KECCAK256 ADD DUP1 SLOAD PUSH2 0xBF3 SWAP1 PUSH2 0x1770 JUMP JUMPDEST DUP1 PUSH1 0x1F ADD PUSH1 0x20 DUP1 SWAP2 DIV MUL PUSH1 0x20 ADD PUSH1 0x40 MLOAD SWAP1 DUP2 ADD PUSH1 0x40 MSTORE DUP1 SWAP3 SWAP2 SWAP1 DUP2 DUP2 MSTORE PUSH1 0x20 ADD DUP3 DUP1 SLOAD PUSH2 0xC1F SWAP1 PUSH2 0x1770 JUMP JUMPDEST DUP1 ISZERO PUSH2 0xC6C JUMPI DUP1 PUSH1 0x1F LT PUSH2 0xC41 JUMPI PUSH2 0x100 DUP1 DUP4 SLOAD DIV MUL DUP4 MSTORE SWAP2 PUSH1 0x20 ADD SWAP2 PUSH2 0xC6C JUMP JUMPDEST DUP3 ADD SWAP2 SWAP1 PUSH1 0x0 MSTORE PUSH1 0x20 PUSH1 0x0 KECCAK256 SWAP1 JUMPDEST DUP2 SLOAD DUP2 MSTORE SWAP1 PUSH1 0x1 ADD SWAP1 PUSH1 0x20 ADD DUP1 DUP4 GT PUSH2 0xC4F JUMPI DUP3 SWAP1 SUB PUSH1 0x1F AND DUP3 ADD SWAP2 JUMPDEST POP POP POP POP POP DUP2 MSTORE PUSH1 0x20 ADD SWAP1 PUSH1 0x1 ADD SWAP1 PUSH2 0xBD4 JUMP JUMPDEST POP POP POP POP DUP2 MSTORE PUSH1 0x20 ADD PUSH1 0x5 DUP3 ADD DUP1 SLOAD DUP1 PUSH1 0x20 MUL PUSH1 0x20 ADD PUSH1 0x40 MLOAD SWAP1 DUP2 ADD PUSH1 0x40 MSTORE DUP1 SWAP3 SWAP2 SWAP1 DUP2 DUP2 MSTORE PUSH1 0x20 ADD DUP3 DUP1 SLOAD DUP1 ISZERO PUSH2 0xCD7 JUMPI PUSH1 0x20 MUL DUP3 ADD SWAP2 SWAP1 PUSH1 0x0 MSTORE PUSH1 0x20 PUSH1 0x0 KECCAK256 SWAP1 JUMPDEST DUP2 SLOAD DUP2 MSTORE PUSH1 0x20 ADD SWAP1 PUSH1 0x1 ADD SWAP1 DUP1 DUP4 GT PUSH2 0xCC3 JUMPI JUMPDEST POP POP POP POP POP DUP2 MSTORE PUSH1 0x20 ADD PUSH1 0x6 DUP3 ADD PUSH1 0x0 SWAP1 SLOAD SWAP1 PUSH2 0x100 EXP SWAP1 DIV PUSH20 0xFFFFFFFFFFFFFFFFFFFFFFFFFFFFFFFFFFFFFFFF AND PUSH20 0xFFFFFFFFFFFFFFFFFFFFFFFFFFFFFFFFFFFFFFFF AND PUSH20 0xFFFFFFFFFFFFFFFFFFFFFFFFFFFFFFFFFFFFFFFF AND DUP2 MSTORE POP POP SWAP1 POP PUSH2 0xD4C PUSH8 0x168112E9E618F8F1 PUSH1 0xC0 SHL PUSH2 0xEA1 JUMP JUMPDEST PUSH2 0xD60 PUSH8 0xA6EFC41922E07FCA PUSH1 0xC0 SHL PUSH2 0xEA1 JUMP JUMPDEST DUP1 PUSH1 0x0 ADD MLOAD DUP2 PUSH1 0x20 ADD MLOAD DUP3 PUSH1 0x40 ADD MLOAD DUP4 PUSH1 0x60 ADD MLOAD DUP5 PUSH1 0x80 ADD MLOAD DUP6 PUSH1 0xA0 ADD MLOAD DUP7 PUSH1 0xC0 ADD MLOAD SWAP8 POP SWAP8 POP SWAP8 POP SWAP8 POP SWAP8 POP SWAP8 POP SWAP8 POP POP SWAP2 SWAP4 SWAP6 SWAP8 SWAP1 SWAP3 SWAP5 SWAP7 POP JUMP JUMPDEST PUSH1 0x1 PUSH1 0x0 SWAP1 SLOAD SWAP1 PUSH2 0x100 EXP SWAP1 DIV PUSH20 0xFFFFFFFFFFFFFFFFFFFFFFFFFFFFFFFFFFFFFFFF AND DUP2 JUMP JUMPDEST PUSH1 0x2 PUSH1 0x20 MSTORE DUP1 PUSH1 0x0 MSTORE PUSH1 0x40 PUSH1 0x0 KECCAK256 PUSH1 0x0 SWAP2 POP SWAP1 POP DUP1 PUSH1 0x0 ADD SLOAD SWAP1 DUP1 PUSH1 0x1 ADD DUP1 SLOAD PUSH2 0xDEC SWAP1 PUSH2 0x1770 JUMP JUMPDEST DUP1 PUSH1 0x1F ADD PUSH1 0x20 DUP1 SWAP2 DIV MUL PUSH1 0x20 ADD PUSH1 0x40 MLOAD SWAP1 DUP2 ADD PUSH1 0x40 MSTORE DUP1 SWAP3 SWAP2 SWAP1 DUP2 DUP2 MSTORE PUSH1 0x20 ADD DUP3 DUP1 SLOAD PUSH2 0xE18 SWAP1 PUSH2 0x1770 JUMP JUMPDEST DUP1 ISZERO PUSH2 0xE65 JUMPI DUP1 PUSH1 0x1F LT PUSH2 0xE3A JUMPI PUSH2 0x100 DUP1 DUP4 SLOAD DIV MUL DUP4 MSTORE SWAP2 PUSH1 0x20 ADD SWAP2 PUSH2 0xE65 JUMP JUMPDEST DUP3 ADD SWAP2 SWAP1 PUSH1 0x0 MSTORE PUSH1 0x20 PUSH1 0x0 KECCAK256 SWAP1 JUMPDEST DUP2 SLOAD DUP2 MSTORE SWAP1 PUSH1 0x1 ADD SWAP1 PUSH1 0x20 ADD DUP1 DUP4 GT PUSH2 0xE48 JUMPI DUP3 SWAP1 SUB PUSH1 0x1F AND DUP3 ADD SWAP2 JUMPDEST POP POP POP POP POP SWAP1 DUP1 PUSH1 0x2 ADD SLOAD SWAP1 DUP1 PUSH1 0x6 ADD PUSH1 0x0 SWAP1 SLOAD SWAP1 PUSH2 0x100 EXP SWAP1 DIV PUSH20 0xFFFFFFFFFFFFFFFFFFFFFFFFFFFFFFFFFFFFFFFF AND SWAP1 POP DUP5 JUMP JUMPDEST PUSH1 0x0 SLOAD DUP2 JUMP JUMPDEST POP JUMP JUMPDEST PUSH1 0x40 MLOAD DUP1 PUSH1 0xE0 ADD PUSH1 0x40 MSTORE DUP1 PUSH1 0x0 DUP2 MSTORE PUSH1 0x20 ADD PUSH1 0x60 DUP2 MSTORE PUSH1 0x20 ADD PUSH1 0x0 DUP2 MSTORE PUSH1 0x20 ADD PUSH1 0x60 DUP2 MSTORE PUSH1 0x20 ADD PUSH1 0x60 DUP2 MSTORE PUSH1 0x20 ADD PUSH1 0x60 DUP2 MSTORE PUSH1 0x20 ADD PUSH1 0x0 PUSH20 0xFFFFFFFFFFFFFFFFFFFFFFFFFFFFFFFFFFFFFFFF AND DUP2 MSTORE POP SWAP1 JUMP JUMPDEST DUP3 DUP1 SLOAD DUP3 DUP3 SSTORE SWAP1 PUSH1 0x0 MSTORE PUSH1 0x20 PUSH1 0x0 KECCAK256 SWAP1 DUP2 ADD SWAP3 DUP3 ISZERO PUSH2 0xF33 JUMPI SWAP2 PUSH1 0x20 MUL DUP3 ADD JUMPDEST DUP3 DUP2 GT ISZERO PUSH2 0xF32 JUMPI DUP3 MLOAD DUP3 SSTORE SWAP2 PUSH1 0x20 ADD SWAP2 SWAP1 PUSH1 0x1 ADD SWAP1 PUSH2 0xF17 JUMP JUMPDEST JUMPDEST POP SWAP1 POP PUSH2 0xF40 SWAP2 SWAP1 PUSH2 0xF9D JUMP JUMPDEST POP SWAP1 JUMP JUMPDEST DUP3 DUP1 SLOAD DUP3 DUP3 SSTORE SWAP1 PUSH1 0x0 MSTORE PUSH1 0x20 PUSH1 0x0 KECCAK256 SWAP1 DUP2 ADD SWAP3 DUP3 ISZERO PUSH2 0xF8C JUMPI SWAP2 PUSH1 0x20 MUL DUP3 ADD JUMPDEST DUP3 DUP2 GT ISZERO PUSH2 0xF8B JUMPI DUP3 MLOAD DUP3 SWAP1 DUP2 PUSH2 0xF7B SWAP2 SWAP1 PUSH2 0x1B4E JUMP JUMPDEST POP SWAP2 PUSH1 0x20 ADD SWAP2 SWAP1 PUSH1 0x1 ADD SWAP1 PUSH2 0xF64 JUMP JUMPDEST JUMPDEST POP SWAP1 POP PUSH2 0xF99 SWAP2 SWAP1 PUSH2 0xFBA JUMP JUMPDEST POP SWAP1 JUMP JUMPDEST JUMPDEST DUP1 DUP3 GT ISZERO PUSH2 0xFB6 JUMPI PUSH1 0x0 DUP2 PUSH1 0x0 SWAP1 SSTORE POP PUSH1 0x1 ADD PUSH2 0xF9E JUMP JUMPDEST POP SWAP1 JUMP JUMPDEST JUMPDEST DUP1 DUP3 GT ISZERO PUSH2 0xFDA JUMPI PUSH1 0x0 DUP2 DUP2 PUSH2 0xFD1 SWAP2 SWAP1 PUSH2 0xFDE JUMP JUMPDEST POP PUSH1 0x1 ADD PUSH2 0xFBB JUMP JUMPDEST POP SWAP1 JUMP JUMPDEST POP DUP1 SLOAD PUSH2 0xFEA SWAP1 PUSH2 0x1770 JUMP JUMPDEST PUSH1 0x0 DUP3 SSTORE DUP1 PUSH1 0x1F LT PUSH2 0xFFC JUMPI POP PUSH2 0x101B JUMP JUMPDEST PUSH1 0x1F ADD PUSH1 0x20 SWAP1 DIV SWAP1 PUSH1 0x0 MSTORE PUSH1 0x20 PUSH1 0x0 KECCAK256 SWAP1 DUP2 ADD SWAP1 PUSH2 0x101A SWAP2 SWAP1 PUSH2 0xF9D JUMP JUMPDEST JUMPDEST POP JUMP JUMPDEST PUSH1 0x0 DUP1 REVERT JUMPDEST PUSH1 0x0 DUP1 REVERT JUMPDEST PUSH1 0x0 DUP2 SWAP1 POP SWAP2 SWAP1 POP JUMP JUMPDEST PUSH2 0x103B DUP2 PUSH2 0x1028 JUMP JUMPDEST DUP2 EQ PUSH2 0x1046 JUMPI PUSH1 0x0 DUP1 REVERT JUMPDEST POP JUMP JUMPDEST PUSH1 0x0 DUP2 CALLDATALOAD SWAP1 POP PUSH2 0x1058 DUP2 PUSH2 0x1032 JUMP JUMPDEST SWAP3 SWAP2 POP POP JUMP JUMPDEST PUSH1 0x0 PUSH20 0xFFFFFFFFFFFFFFFFFFFFFFFFFFFFFFFFFFFFFFFF DUP3 AND SWAP1 POP SWAP2 SWAP1 POP JUMP JUMPDEST PUSH1 0x0 PUSH2 0x1089 DUP3 PUSH2 0x105E JUMP JUMPDEST SWAP1 POP SWAP2 SWAP1 POP JUMP JUMPDEST PUSH2 0x1099 DUP2 PUSH2 0x107E JUMP JUMPDEST DUP2 EQ PUSH2 0x10A4 JUMPI PUSH1 0x0 DUP1 REVERT JUMPDEST POP JUMP JUMPDEST PUSH1 0x0 DUP2 CALLDATALOAD SWAP1 POP PUSH2 0x10B6 DUP2 PUSH2 0x1090 JUMP JUMPDEST SWAP3 SWAP2 POP POP JUMP JUMPDEST PUSH1 0x0 DUP1 REVERT JUMPDEST PUSH1 0x0 DUP1 REVERT JUMPDEST PUSH1 0x0 DUP1 REVERT JUMPDEST PUSH1 0x0 DUP1 DUP4 PUSH1 0x1F DUP5 ADD SLT PUSH2 0x10E1 JUMPI PUSH2 0x10E0 PUSH2 0x10BC JUMP JUMPDEST JUMPDEST DUP3 CALLDATALOAD SWAP1 POP PUSH8 0xFFFFFFFFFFFFFFFF DUP2 GT ISZERO PUSH2 0x10FE JUMPI PUSH2 0x10FD PUSH2 0x10C1 JUMP JUMPDEST JUMPDEST PUSH1 0x20 DUP4 ADD SWAP2 POP DUP4 PUSH1 0x1 DUP3 MUL DUP4 ADD GT ISZERO PUSH2 0x111A JUMPI PUSH2 0x1119 PUSH2 0x10C6 JUMP JUMPDEST JUMPDEST SWAP3 POP SWAP3 SWAP1 POP JUMP JUMPDEST PUSH1 0x0 DUP1 PUSH1 0x0 DUP1 PUSH1 0x0 PUSH1 0x80 DUP7 DUP9 SUB SLT ISZERO PUSH2 0x113D JUMPI PUSH2 0x113C PUSH2 0x101E JUMP JUMPDEST JUMPDEST PUSH1 0x0 PUSH2 0x114B DUP9 DUP3 DUP10 ADD PUSH2 0x1049 JUMP JUMPDEST SWAP6 POP POP PUSH1 0x20 PUSH2 0x115C DUP9 DUP3 DUP10 ADD PUSH2 0x10A7 JUMP JUMPDEST SWAP5 POP POP PUSH1 0x40 PUSH2 0x116D DUP9 DUP3 DUP10 ADD PUSH2 0x1049 JUMP JUMPDEST SWAP4 POP POP PUSH1 0x60 DUP7 ADD CALLDATALOAD PUSH8 0xFFFFFFFFFFFFFFFF DUP2 GT ISZERO PUSH2 0x118E JUMPI PUSH2 0x118D PUSH2 0x1023 JUMP JUMPDEST JUMPDEST PUSH2 0x119A DUP9 DUP3 DUP10 ADD PUSH2 0x10CB JUMP JUMPDEST SWAP3 POP SWAP3 POP POP SWAP3 SWAP6 POP SWAP3 SWAP6 SWAP1 SWAP4 POP JUMP JUMPDEST PUSH1 0x0 DUP1 PUSH1 0x0 PUSH1 0x40 DUP5 DUP7 SUB SLT ISZERO PUSH2 0x11C2 JUMPI PUSH2 0x11C1 PUSH2 0x101E JUMP JUMPDEST JUMPDEST PUSH1 0x0 DUP5 ADD CALLDATALOAD PUSH8 0xFFFFFFFFFFFFFFFF DUP2 GT ISZERO PUSH2 0x11E0 JUMPI PUSH2 0x11DF PUSH2 0x1023 JUMP JUMPDEST JUMPDEST PUSH2 0x11EC DUP7 DUP3 DUP8 ADD PUSH2 0x10CB JUMP JUMPDEST SWAP4 POP SWAP4 POP POP PUSH1 0x20 PUSH2 0x11FF DUP7 DUP3 DUP8 ADD PUSH2 0x1049 JUMP JUMPDEST SWAP2 POP POP SWAP3 POP SWAP3 POP SWAP3 JUMP JUMPDEST PUSH1 0x0 PUSH1 0x20 DUP3 DUP5 SUB SLT ISZERO PUSH2 0x121F JUMPI PUSH2 0x121E PUSH2 0x101E JUMP JUMPDEST JUMPDEST PUSH1 0x0 PUSH2 0x122D DUP5 DUP3 DUP6 ADD PUSH2 0x1049 JUMP JUMPDEST SWAP2 POP POP SWAP3 SWAP2 POP POP JUMP JUMPDEST PUSH1 0x0 DUP2 MLOAD SWAP1 POP SWAP2 SWAP1 POP JUMP JUMPDEST PUSH1 0x0 DUP3 DUP3 MSTORE PUSH1 0x20 DUP3 ADD SWAP1 POP SWAP3 SWAP2 POP POP JUMP JUMPDEST PUSH1 0x0 DUP2 SWAP1 POP PUSH1 0x20 DUP3 ADD SWAP1 POP SWAP2 SWAP1 POP JUMP JUMPDEST PUSH2 0x126B DUP2 PUSH2 0x107E JUMP JUMPDEST DUP3 MSTORE POP POP JUMP JUMPDEST PUSH1 0x0 PUSH2 0x127D DUP4 DUP4 PUSH2 0x1262 JUMP JUMPDEST PUSH1 0x20 DUP4 ADD SWAP1 POP SWAP3 SWAP2 POP POP JUMP JUMPDEST PUSH1 0x0 PUSH1 0x20 DUP3 ADD SWAP1 POP SWAP2 SWAP1 POP JUMP JUMPDEST PUSH1 0x0 PUSH2 0x12A1 DUP3 PUSH2 0x1236 JUMP JUMPDEST PUSH2 0x12AB DUP2 DUP6 PUSH2 0x1241 JUMP JUMPDEST SWAP4 POP PUSH2 0x12B6 DUP4 PUSH2 0x1252 JUMP JUMPDEST DUP1 PUSH1 0x0 JUMPDEST DUP4 DUP2 LT ISZERO PUSH2 0x12E7 JUMPI DUP2 MLOAD PUSH2 0x12CE DUP9 DUP3 PUSH2 0x1271 JUMP JUMPDEST SWAP8 POP PUSH2 0x12D9 DUP4 PUSH2 0x1289 JUMP JUMPDEST SWAP3 POP POP PUSH1 0x1 DUP2 ADD SWAP1 POP PUSH2 0x12BA JUMP JUMPDEST POP DUP6 SWAP4 POP POP POP POP SWAP3 SWAP2 POP POP JUMP JUMPDEST PUSH1 0x0 PUSH1 0x20 DUP3 ADD SWAP1 POP DUP2 DUP2 SUB PUSH1 0x0 DUP4 ADD MSTORE PUSH2 0x130E DUP2 DUP5 PUSH2 0x1296 JUMP JUMPDEST SWAP1 POP SWAP3 SWAP2 POP POP JUMP JUMPDEST PUSH2 0x131F DUP2 PUSH2 0x1028 JUMP JUMPDEST DUP3 MSTORE POP POP JUMP JUMPDEST PUSH1 0x0 DUP2 MLOAD SWAP1 POP SWAP2 SWAP1 POP JUMP JUMPDEST PUSH1 0x0 DUP3 DUP3 MSTORE PUSH1 0x20 DUP3 ADD SWAP1 POP SWAP3 SWAP2 POP POP JUMP JUMPDEST PUSH1 0x0 JUMPDEST DUP4 DUP2 LT ISZERO PUSH2 0x135F JUMPI DUP1 DUP3 ADD MLOAD DUP2 DUP5 ADD MSTORE PUSH1 0x20 DUP2 ADD SWAP1 POP PUSH2 0x1344 JUMP JUMPDEST PUSH1 0x0 DUP5 DUP5 ADD MSTORE POP POP POP POP JUMP JUMPDEST PUSH1 0x0 PUSH1 0x1F NOT PUSH1 0x1F DUP4 ADD AND SWAP1 POP SWAP2 SWAP1 POP JUMP JUMPDEST PUSH1 0x0 PUSH2 0x1387 DUP3 PUSH2 0x1325 JUMP JUMPDEST PUSH2 0x1391 DUP2 DUP6 PUSH2 0x1330 JUMP JUMPDEST SWAP4 POP PUSH2 0x13A1 DUP2 DUP6 PUSH1 0x20 DUP7 ADD PUSH2 0x1341 JUMP JUMPDEST PUSH2 0x13AA DUP2 PUSH2 0x136B JUMP JUMPDEST DUP5 ADD SWAP2 POP POP SWAP3 SWAP2 POP POP JUMP JUMPDEST PUSH1 0x0 DUP2 MLOAD SWAP1 POP SWAP2 SWAP1 POP JUMP JUMPDEST PUSH1 0x0 DUP3 DUP3 MSTORE PUSH1 0x20 DUP3 ADD SWAP1 POP SWAP3 SWAP2 POP POP JUMP JUMPDEST PUSH1 0x0 DUP2 SWAP1 POP PUSH1 0x20 DUP3 ADD SWAP1 POP SWAP2 SWAP1 POP JUMP JUMPDEST PUSH2 0x13EA DUP2 PUSH2 0x1028 JUMP JUMPDEST DUP3 MSTORE POP POP JUMP JUMPDEST PUSH1 0x0 PUSH2 0x13FC DUP4 DUP4 PUSH2 0x13E1 JUMP JUMPDEST PUSH1 0x20 DUP4 ADD SWAP1 POP SWAP3 SWAP2 POP POP JUMP JUMPDEST PUSH1 0x0 PUSH1 0x20 DUP3 ADD SWAP1 POP SWAP2 SWAP1 POP JUMP JUMPDEST PUSH1 0x0 PUSH2 0x1420 DUP3 PUSH2 0x13B5 JUMP JUMPDEST PUSH2 0x142A DUP2 DUP6 PUSH2 0x13C0 JUMP JUMPDEST SWAP4 POP PUSH2 0x1435 DUP4 PUSH2 0x13D1 JUMP JUMPDEST DUP1 PUSH1 0x0 JUMPDEST DUP4 DUP2 LT ISZERO PUSH2 0x1466 JUMPI DUP2 MLOAD PUSH2 0x144D DUP9 DUP3 PUSH2 0x13F0 JUMP JUMPDEST SWAP8 POP PUSH2 0x1458 DUP4 PUSH2 0x1408 JUMP JUMPDEST SWAP3 POP POP PUSH1 0x1 DUP2 ADD SWAP1 POP PUSH2 0x1439 JUMP JUMPDEST POP DUP6 SWAP4 POP POP POP POP SWAP3 SWAP2 POP POP JUMP JUMPDEST PUSH1 0x0 DUP2 MLOAD SWAP1 POP SWAP2 SWAP1 POP JUMP JUMPDEST PUSH1 0x0 DUP3 DUP3 MSTORE PUSH1 0x20 DUP3 ADD SWAP1 POP SWAP3 SWAP2 POP POP JUMP JUMPDEST PUSH1 0x0 DUP2 SWAP1 POP PUSH1 0x20 DUP3 ADD SWAP1 POP SWAP2 SWAP1 POP JUMP JUMPDEST PUSH1 0x0 DUP3 DUP3 MSTORE PUSH1 0x20 DUP3 ADD SWAP1 POP SWAP3 SWAP2 POP POP JUMP JUMPDEST PUSH1 0x0 PUSH2 0x14BB DUP3 PUSH2 0x1325 JUMP JUMPDEST PUSH2 0x14C5 DUP2 DUP6 PUSH2 0x149F JUMP JUMPDEST SWAP4 POP PUSH2 0x14D5 DUP2 DUP6 PUSH1 0x20 DUP7 ADD PUSH2 0x1341 JUMP JUMPDEST PUSH2 0x14DE DUP2 PUSH2 0x136B JUMP JUMPDEST DUP5 ADD SWAP2 POP POP SWAP3 SWAP2 POP POP JUMP JUMPDEST PUSH1 0x0 PUSH2 0x14F5 DUP4 DUP4 PUSH2 0x14B0 JUMP JUMPDEST SWAP1 POP SWAP3 SWAP2 POP POP JUMP JUMPDEST PUSH1 0x0 PUSH1 0x20 DUP3 ADD SWAP1 POP SWAP2 SWAP1 POP JUMP JUMPDEST PUSH1 0x0 PUSH2 0x1515 DUP3 PUSH2 0x1473 JUMP JUMPDEST PUSH2 0x151F DUP2 DUP6 PUSH2 0x147E JUMP JUMPDEST SWAP4 POP DUP4 PUSH1 0x20 DUP3 MUL DUP6 ADD PUSH2 0x1531 DUP6 PUSH2 0x148F JUMP JUMPDEST DUP1 PUSH1 0x0 JUMPDEST DUP6 DUP2 LT ISZERO PUSH2 0x156D JUMPI DUP5 DUP5 SUB DUP10 MSTORE DUP2 MLOAD PUSH2 0x154E DUP6 DUP3 PUSH2 0x14E9 JUMP JUMPDEST SWAP5 POP PUSH2 0x1559 DUP4 PUSH2 0x14FD JUMP JUMPDEST SWAP3 POP PUSH1 0x20 DUP11 ADD SWAP10 POP POP PUSH1 0x1 DUP2 ADD SWAP1 POP PUSH2 0x1535 JUMP JUMPDEST POP DUP3 SWAP8 POP DUP8 SWAP6 POP POP POP POP POP POP SWAP3 SWAP2 POP POP JUMP JUMPDEST PUSH2 0x1588 DUP2 PUSH2 0x107E JUMP JUMPDEST DUP3 MSTORE POP POP JUMP JUMPDEST PUSH1 0x0 PUSH1 0xE0 DUP3 ADD SWAP1 POP PUSH2 0x15A3 PUSH1 0x0 DUP4 ADD DUP11 PUSH2 0x1316 JUMP JUMPDEST DUP2 DUP2 SUB PUSH1 0x20 DUP4 ADD MSTORE PUSH2 0x15B5 DUP2 DUP10 PUSH2 0x137C JUMP JUMPDEST SWAP1 POP PUSH2 0x15C4 PUSH1 0x40 DUP4 ADD DUP9 PUSH2 0x1316 JUMP JUMPDEST DUP2 DUP2 SUB PUSH1 0x60 DUP4 ADD MSTORE PUSH2 0x15D6 DUP2 DUP8 PUSH2 0x1415 JUMP JUMPDEST SWAP1 POP DUP2 DUP2 SUB PUSH1 0x80 DUP4 ADD MSTORE PUSH2 0x15EA DUP2 DUP7 PUSH2 0x150A JUMP JUMPDEST SWAP1 POP DUP2 DUP2 SUB PUSH1 0xA0 DUP4 ADD MSTORE PUSH2 0x15FE DUP2 DUP6 PUSH2 0x1415 JUMP JUMPDEST SWAP1 POP PUSH2 0x160D PUSH1 0xC0 DUP4 ADD DUP5 PUSH2 0x157F JUMP JUMPDEST SWAP9 SWAP8 POP POP POP POP POP POP POP POP JUMP JUMPDEST PUSH1 0x0 PUSH1 0x20 DUP3 ADD SWAP1 POP PUSH2 0x162E PUSH1 0x0 DUP4 ADD DUP5 PUSH2 0x157F JUMP JUMPDEST SWAP3 SWAP2 POP POP JUMP JUMPDEST PUSH1 0x0 PUSH1 0x80 DUP3 ADD SWAP1 POP PUSH2 0x1649 PUSH1 0x0 DUP4 ADD DUP8 PUSH2 0x1316 JUMP JUMPDEST DUP2 DUP2 SUB PUSH1 0x20 DUP4 ADD MSTORE PUSH2 0x165B DUP2 DUP7 PUSH2 0x137C JUMP JUMPDEST SWAP1 POP PUSH2 0x166A PUSH1 0x40 DUP4 ADD DUP6 PUSH2 0x1316 JUMP JUMPDEST PUSH2 0x1677 PUSH1 0x60 DUP4 ADD DUP5 PUSH2 0x157F JUMP JUMPDEST SWAP6 SWAP5 POP POP POP POP POP JUMP JUMPDEST PUSH1 0x0 PUSH1 0x20 DUP3 ADD SWAP1 POP PUSH2 0x1695 PUSH1 0x0 DUP4 ADD DUP5 PUSH2 0x1316 JUMP JUMPDEST SWAP3 SWAP2 POP POP JUMP JUMPDEST PUSH32 0x4E6F744F776E6572000000000000000000000000000000000000000000000000 PUSH1 0x0 DUP3 ADD MSTORE POP JUMP JUMPDEST PUSH1 0x0 PUSH2 0x16D1 PUSH1 0x8 DUP4 PUSH2 0x1330 JUMP JUMPDEST SWAP2 POP PUSH2 0x16DC DUP3 PUSH2 0x169B JUMP JUMPDEST PUSH1 0x20 DUP3 ADD SWAP1 POP SWAP2 SWAP1 POP JUMP JUMPDEST PUSH1 0x0 PUSH1 0x20 DUP3 ADD SWAP1 POP DUP2 DUP2 SUB PUSH1 0x0 DUP4 ADD MSTORE PUSH2 0x1700 DUP2 PUSH2 0x16C4 JUMP JUMPDEST SWAP1 POP SWAP2 SWAP1 POP JUMP JUMPDEST PUSH1 0x0 DUP3 SWAP1 POP SWAP3 SWAP2 POP POP JUMP JUMPDEST PUSH32 0x4E487B7100000000000000000000000000000000000000000000000000000000 PUSH1 0x0 MSTORE PUSH1 0x41 PUSH1 0x4 MSTORE PUSH1 0x24 PUSH1 0x0 REVERT JUMPDEST PUSH32 0x4E487B7100000000000000000000000000000000000000000000000000000000 PUSH1 0x0 MSTORE PUSH1 0x22 PUSH1 0x4 MSTORE PUSH1 0x24 PUSH1 0x0 REVERT JUMPDEST PUSH1 0x0 PUSH1 0x2 DUP3 DIV SWAP1 POP PUSH1 0x1 DUP3 AND DUP1 PUSH2 0x1788 JUMPI PUSH1 0x7F DUP3 AND SWAP2 POP JUMPDEST PUSH1 0x20 DUP3 LT DUP2 SUB PUSH2 0x179B JUMPI PUSH2 0x179A PUSH2 0x1741 JUMP JUMPDEST JUMPDEST POP SWAP2 SWAP1 POP JUMP JUMPDEST PUSH1 0x0 DUP2 SWAP1 POP DUP2 PUSH1 0x0 MSTORE PUSH1 0x20 PUSH1 0x0 KECCAK256 SWAP1 POP SWAP2 SWAP1 POP JUMP JUMPDEST PUSH1 0x0 PUSH1 0x20 PUSH1 0x1F DUP4 ADD DIV SWAP1 POP SWAP2 SWAP1 POP JUMP JUMPDEST PUSH1 0x0 DUP3 DUP3 SHL SWAP1 POP SWAP3 SWAP2 POP POP JUMP JUMPDEST PUSH1 0x0 PUSH1 0x8 DUP4 MUL PUSH2 0x1803 PUSH32 0xFFFFFFFFFFFFFFFFFFFFFFFFFFFFFFFFFFFFFFFFFFFFFFFFFFFFFFFFFFFFFFFF DUP3 PUSH2 0x17C6 JUMP JUMPDEST PUSH2 0x180D DUP7 DUP4 PUSH2 0x17C6 JUMP JUMPDEST SWAP6 POP DUP1 NOT DUP5 AND SWAP4 POP DUP1 DUP7 AND DUP5 OR SWAP3 POP POP POP SWAP4 SWAP3 POP POP POP JUMP JUMPDEST PUSH1 0x0 DUP2 SWAP1 POP SWAP2 SWAP1 POP JUMP JUMPDEST PUSH1 0x0 PUSH2 0x184A PUSH2 0x1845 PUSH2 0x1840 DUP5 PUSH2 0x1028 JUMP JUMPDEST PUSH2 0x1825 JUMP JUMPDEST PUSH2 0x1028 JUMP JUMPDEST SWAP1 POP SWAP2 SWAP1 POP JUMP JUMPDEST PUSH1 0x0 DUP2 SWAP1 POP SWAP2 SWAP1 POP JUMP JUMPDEST PUSH2 0x1864 DUP4 PUSH2 0x182F JUMP JUMPDEST PUSH2 0x1878 PUSH2 0x1870 DUP3 PUSH2 0x1851 JUMP JUMPDEST DUP5 DUP5 SLOAD PUSH2 0x17D3 JUMP JUMPDEST DUP3 SSTORE POP POP POP POP JUMP JUMPDEST PUSH1 0x0 SWAP1 JUMP JUMPDEST PUSH2 0x188D PUSH2 0x1880 JUMP JUMPDEST PUSH2 0x1898 DUP2 DUP5 DUP5 PUSH2 0x185B JUMP JUMPDEST POP POP POP JUMP JUMPDEST JUMPDEST DUP2 DUP2 LT ISZERO PUSH2 0x18BC JUMPI PUSH2 0x18B1 PUSH1 0x0 DUP3 PUSH2 0x1885 JUMP JUMPDEST PUSH1 0x1 DUP2 ADD SWAP1 POP PUSH2 0x189E JUMP JUMPDEST POP POP JUMP JUMPDEST PUSH1 0x1F DUP3 GT ISZERO PUSH2 0x1901 JUMPI PUSH2 0x18D2 DUP2 PUSH2 0x17A1 JUMP JUMPDEST PUSH2 0x18DB DUP5 PUSH2 0x17B6 JUMP JUMPDEST DUP2 ADD PUSH1 0x20 DUP6 LT ISZERO PUSH2 0x18EA JUMPI DUP2 SWAP1 POP JUMPDEST PUSH2 0x18FE PUSH2 0x18F6 DUP6 PUSH2 0x17B6 JUMP JUMPDEST DUP4 ADD DUP3 PUSH2 0x189D JUMP JUMPDEST POP POP JUMPDEST POP POP POP JUMP JUMPDEST PUSH1 0x0 DUP3 DUP3 SHR SWAP1 POP SWAP3 SWAP2 POP POP JUMP JUMPDEST PUSH1 0x0 PUSH2 0x1924 PUSH1 0x0 NOT DUP5 PUSH1 0x8 MUL PUSH2 0x1906 JUMP JUMPDEST NOT DUP1 DUP4 AND SWAP2 POP POP SWAP3 SWAP2 POP POP JUMP JUMPDEST PUSH1 0x0 PUSH2 0x193D DUP4 DUP4 PUSH2 0x1913 JUMP JUMPDEST SWAP2 POP DUP3 PUSH1 0x2 MUL DUP3 OR SWAP1 POP SWAP3 SWAP2 POP POP JUMP JUMPDEST PUSH2 0x1957 DUP4 DUP4 PUSH2 0x1707 JUMP JUMPDEST PUSH8 0xFFFFFFFFFFFFFFFF DUP2 GT ISZERO PUSH2 0x1970 JUMPI PUSH2 0x196F PUSH2 0x1712 JUMP JUMPDEST JUMPDEST PUSH2 0x197A DUP3 SLOAD PUSH2 0x1770 JUMP JUMPDEST PUSH2 0x1985 DUP3 DUP3 DUP6 PUSH2 0x18C0 JUMP JUMPDEST PUSH1 0x0 PUSH1 0x1F DUP4 GT PUSH1 0x1 DUP2 EQ PUSH2 0x19B4 JUMPI PUSH1 0x0 DUP5 ISZERO PUSH2 0x19A2 JUMPI DUP3 DUP8 ADD CALLDATALOAD SWAP1 POP JUMPDEST PUSH2 0x19AC DUP6 DUP3 PUSH2 0x1931 JUMP JUMPDEST DUP7 SSTORE POP PUSH2 0x1A14 JUMP JUMPDEST PUSH1 0x1F NOT DUP5 AND PUSH2 0x19C2 DUP7 PUSH2 0x17A1 JUMP JUMPDEST PUSH1 0x0 JUMPDEST DUP3 DUP2 LT ISZERO PUSH2 0x19EA JUMPI DUP5 DUP10 ADD CALLDATALOAD DUP3 SSTORE PUSH1 0x1 DUP3 ADD SWAP2 POP PUSH1 0x20 DUP6 ADD SWAP5 POP PUSH1 0x20 DUP2 ADD SWAP1 POP PUSH2 0x19C5 JUMP JUMPDEST DUP7 DUP4 LT ISZERO PUSH2 0x1A07 JUMPI DUP5 DUP10 ADD CALLDATALOAD PUSH2 0x1A03 PUSH1 0x1F DUP10 AND DUP3 PUSH2 0x1913 JUMP JUMPDEST DUP4 SSTORE POP JUMPDEST PUSH1 0x1 PUSH1 0x2 DUP9 MUL ADD DUP9 SSTORE POP POP POP JUMPDEST POP POP POP POP POP POP POP JUMP JUMPDEST PUSH1 0x0 DUP2 SLOAD PUSH2 0x1A2A DUP2 PUSH2 0x1770 JUMP JUMPDEST PUSH2 0x1A34 DUP2 DUP7 PUSH2 0x1330 JUMP JUMPDEST SWAP5 POP PUSH1 0x1 DUP3 AND PUSH1 0x0 DUP2 EQ PUSH2 0x1A4F JUMPI PUSH1 0x1 DUP2 EQ PUSH2 0x1A65 JUMPI PUSH2 0x1A98 JUMP JUMPDEST PUSH1 0xFF NOT DUP4 AND DUP7 MSTORE DUP2 ISZERO ISZERO PUSH1 0x20 MUL DUP7 ADD SWAP4 POP PUSH2 0x1A98 JUMP JUMPDEST PUSH2 0x1A6E DUP6 PUSH2 0x17A1 JUMP JUMPDEST PUSH1 0x0 JUMPDEST DUP4 DUP2 LT ISZERO PUSH2 0x1A90 JUMPI DUP2 SLOAD DUP2 DUP10 ADD MSTORE PUSH1 0x1 DUP3 ADD SWAP2 POP PUSH1 0x20 DUP2 ADD SWAP1 POP PUSH2 0x1A71 JUMP JUMPDEST DUP1 DUP9 ADD SWAP6 POP POP POP JUMPDEST POP POP POP SWAP3 SWAP2 POP POP JUMP JUMPDEST DUP3 DUP2 DUP4 CALLDATACOPY PUSH1 0x0 DUP4 DUP4 ADD MSTORE POP POP POP JUMP JUMPDEST PUSH1 0x0 PUSH2 0x1ABC DUP4 DUP6 PUSH2 0x1330 JUMP JUMPDEST SWAP4 POP PUSH2 0x1AC9 DUP4 DUP6 DUP5 PUSH2 0x1AA1 JUMP JUMPDEST PUSH2 0x1AD2 DUP4 PUSH2 0x136B JUMP JUMPDEST DUP5 ADD SWAP1 POP SWAP4 SWAP3 POP POP POP JUMP JUMPDEST PUSH1 0x0 PUSH1 0xC0 DUP3 ADD SWAP1 POP PUSH2 0x1AF2 PUSH1 0x0 DUP4 ADD DUP11 PUSH2 0x1316 JUMP JUMPDEST DUP2 DUP2 SUB PUSH1 0x20 DUP4 ADD MSTORE PUSH2 0x1B04 DUP2 DUP10 PUSH2 0x1A1D JUMP JUMPDEST SWAP1 POP PUSH2 0x1B13 PUSH1 0x40 DUP4 ADD DUP9 PUSH2 0x1316 JUMP JUMPDEST PUSH2 0x1B20 PUSH1 0x60 DUP4 ADD DUP8 PUSH2 0x1316 JUMP JUMPDEST DUP2 DUP2 SUB PUSH1 0x80 DUP4 ADD MSTORE PUSH2 0x1B33 DUP2 DUP6 DUP8 PUSH2 0x1AB0 JUMP JUMPDEST SWAP1 POP PUSH2 0x1B42 PUSH1 0xA0 DUP4 ADD DUP5 PUSH2 0x1316 JUMP JUMPDEST SWAP9 SWAP8 POP POP POP POP POP POP POP POP JUMP JUMPDEST PUSH2 0x1B57 DUP3 PUSH2 0x1325 JUMP JUMPDEST PUSH8 0xFFFFFFFFFFFFFFFF DUP2 GT ISZERO PUSH2 0x1B70 JUMPI PUSH2 0x1B6F PUSH2 0x1712 JUMP JUMPDEST JUMPDEST PUSH2 0x1B7A DUP3 SLOAD PUSH2 0x1770 JUMP JUMPDEST PUSH2 0x1B85 DUP3 DUP3 DUP6 PUSH2 0x18C0 JUMP JUMPDEST PUSH1 0x0 PUSH1 0x20 SWAP1 POP PUSH1 0x1F DUP4 GT PUSH1 0x1 DUP2 EQ PUSH2 0x1BB8 JUMPI PUSH1 0x0 DUP5 ISZERO PUSH2 0x1BA6 JUMPI DUP3 DUP8 ADD MLOAD SWAP1 POP JUMPDEST PUSH2 0x1BB0 DUP6 DUP3 PUSH2 0x1931 JUMP JUMPDEST DUP7 SSTORE POP PUSH2 0x1C18 JUMP JUMPDEST PUSH1 0x1F NOT DUP5 AND PUSH2 0x1BC6 DUP7 PUSH2 0x17A1 JUMP JUMPDEST PUSH1 0x0 JUMPDEST DUP3 DUP2 LT ISZERO PUSH2 0x1BEE JUMPI DUP5 DUP10 ADD MLOAD DUP3 SSTORE PUSH1 0x1 DUP3 ADD SWAP2 POP PUSH1 0x20 DUP6 ADD SWAP5 POP PUSH1 0x20 DUP2 ADD SWAP1 POP PUSH2 0x1BC9 JUMP JUMPDEST DUP7 DUP4 LT ISZERO PUSH2 0x1C0B JUMPI DUP5 DUP10 ADD MLOAD PUSH2 0x1C07 PUSH1 0x1F DUP10 AND DUP3 PUSH2 0x1913 JUMP JUMPDEST DUP4 SSTORE POP JUMPDEST PUSH1 0x1 PUSH1 0x2 DUP9 MUL ADD DUP9 SSTORE POP POP POP JUMPDEST POP POP POP POP POP POP JUMP JUMPDEST PUSH1 0x0 PUSH1 0x60 DUP3 ADD SWAP1 POP PUSH2 0x1C35 PUSH1 0x0 DUP4 ADD DUP8 PUSH2 0x1316 JUMP JUMPDEST DUP2 DUP2 SUB PUSH1 0x20 DUP4 ADD MSTORE PUSH2 0x1C48 DUP2 DUP6 DUP8 PUSH2 0x1AB0 JUMP JUMPDEST SWAP1 POP PUSH2 0x1C57 PUSH1 0x40 DUP4 ADD DUP5 PUSH2 0x1316 JUMP JUMPDEST SWAP6 SWAP5 POP POP POP POP POP JUMP JUMPDEST PUSH32 0x4E487B7100000000000000000000000000000000000000000000000000000000 PUSH1 0x0 MSTORE PUSH1 0x11 PUSH1 0x4 MSTORE PUSH1 0x24 PUSH1 0x0 REVERT JUMPDEST PUSH1 0x0 PUSH2 0x1C9A DUP3 PUSH2 0x1028 JUMP JUMPDEST SWAP2 POP PUSH32 0xFFFFFFFFFFFFFFFFFFFFFFFFFFFFFFFFFFFFFFFFFFFFFFFFFFFFFFFFFFFFFFFF DUP3 SUB PUSH2 0x1CCC JUMPI PUSH2 0x1CCB PUSH2 0x1C60 JUMP JUMPDEST JUMPDEST PUSH1 0x1 DUP3 ADD SWAP1 POP SWAP2 SWAP1 POP JUMP JUMPDEST PUSH32 0x496E76616C69642070726F647563742049440000000000000000000000000000 PUSH1 0x0 DUP3 ADD MSTORE POP JUMP JUMPDEST PUSH1 0x0 PUSH2 0x1D0D PUSH1 0x12 DUP4 PUSH2 0x1330 JUMP JUMPDEST SWAP2 POP PUSH2 0x1D18 DUP3 PUSH2 0x1CD7 JUMP JUMPDEST PUSH1 0x20 DUP3 ADD SWAP1 POP SWAP2 SWAP1 POP JUMP JUMPDEST PUSH1 0x0 PUSH1 0x20 DUP3 ADD SWAP1 POP DUP2 DUP2 SUB PUSH1 0x0 DUP4 ADD MSTORE PUSH2 0x1D3C DUP2 PUSH2 0x1D00 JUMP JUMPDEST SWAP1 POP SWAP2 SWAP1 POP JUMP INVALID LOG2 PUSH5 0x6970667358 0x22 SLT KECCAK256 0x4F PUSH10 0x87274DC9BC2F88668789 SWAP4 0xDE 0xD0 NOT 0xC3 SWAP10 PUSH3 0x45C53C 0xE1 DUP1 MSIZE 0xB8 PUSH6 0x40159F698C64 PUSH20 0x6F6C634300081200330000000000000000000000 "},"methodIdentifiers":{"IdTOProduct(uint256)":"a8c141b9","assignProduct(string,uint256)":"3f6b6a7c","getProductDetails(uint256)":"6813b53b","id()":"af640d0f","owner()":"8da5cb5b","ownerHistory(uint256)":"461fc090","sellProduct(uint256,address,uint256,string)":"25c4db84"}}}}}