{
  "_format": "hh-sol-artifact-1",
  "contractName": "SupplyChain",
  "sourceName": "contracts/SupplyChain.sol",
  "abi": [
    {
      "inputs": [],
      "stateMutability": "nonpayable",
      "type": "constructor"
    },
    {
      "anonymous": false,
      "inputs": [
        {
          "indexed": false,
          "internalType": "uint256",
          "name": "_id",
          "type": "uint256"
        },
        {
          "indexed": false,
          "internalType": "string",
          "name": "name",
          "type": "string"
        },
        {
          "indexed": false,
          "internalType": "uint256",
          "name": "quantity",
          "type": "uint256"
        }
      ],
      "name": "ProductAssign",
      "type": "event"
    },
    {
      "anonymous": false,
      "inputs": [
        {
          "indexed": false,
          "internalType": "uint256",
          "name": "id",
          "type": "uint256"
        },
        {
          "indexed": false,
          "internalType": "string",
          "name": "name",
          "type": "string"
        },
        {
          "indexed": false,
          "internalType": "uint256",
          "name": "quantity",
          "type": "uint256"
        },
        {
          "indexed": false,
          "internalType": "uint256",
          "name": "price",
          "type": "uint256"
        },
        {
          "indexed": false,
          "internalType": "string",
          "name": "location",
          "type": "string"
        },
        {
          "indexed": false,
          "internalType": "uint256",
          "name": "time",
          "type": "uint256"
        }
      ],
      "name": "ProductSell",
      "type": "event"
    },
    {
      "inputs": [
        {
          "internalType": "uint256",
          "name": "",
          "type": "uint256"
        }
      ],
      "name": "IdTOProduct",
      "outputs": [
        {
          "internalType": "uint256",
          "name": "productID",
          "type": "uint256"
        },
        {
          "internalType": "string",
          "name": "productName",
          "type": "string"
        },
        {
          "internalType": "uint256",
          "name": "productQuantity",
          "type": "uint256"
        },
        {
          "internalType": "address",
          "name": "productOwner",
          "type": "address"
        }
      ],
      "stateMutability": "view",
      "type": "function"
    },
    {
      "inputs": [
        {
          "internalType": "string",
          "name": "name",
          "type": "string"
        },
        {
          "internalType": "uint256",
          "name": "quantity",
          "type": "uint256"
        }
      ],
      "name": "assignProduct",
      "outputs": [],
      "stateMutability": "nonpayable",
      "type": "function"
    },
    {
      "inputs": [
        {
          "internalType": "uint256",
          "name": "_id",
          "type": "uint256"
        }
      ],
      "name": "getProductDetails",
      "outputs": [
        {
          "internalType": "uint256",
          "name": "productID",
          "type": "uint256"
        },
        {
          "internalType": "string",
          "name": "productName",
          "type": "string"
        },
        {
          "internalType": "uint256",
          "name": "productQuantity",
          "type": "uint256"
        },
        {
          "internalType": "uint256[]",
          "name": "productPrice",
          "type": "uint256[]"
        },
        {
          "internalType": "string[]",
          "name": "productLocation",
          "type": "string[]"
        },
        {
          "internalType": "uint256[]",
          "name": "productTimestamp",
          "type": "uint256[]"
        },
        {
          "internalType": "address",
          "name": "productOwner",
          "type": "address"
        }
      ],
      "stateMutability": "view",
      "type": "function"
    },
    {
      "inputs": [],
      "name": "id",
      "outputs": [
        {
          "internalType": "uint256",
          "name": "",
          "type": "uint256"
        }
      ],
      "stateMutability": "view",
      "type": "function"
    },
    {
      "inputs": [],
      "name": "owner",
      "outputs": [
        {
          "internalType": "address",
          "name": "",
          "type": "address"
        }
      ],
      "stateMutability": "view",
      "type": "function"
    },
    {
      "inputs": [
        {
          "internalType": "uint256",
          "name": "_id",
          "type": "uint256"
        }
      ],
      "name": "ownerHistory",
      "outputs": [
        {
          "internalType": "address[]",
          "name": "",
          "type": "address[]"
        }
      ],
      "stateMutability": "view",
      "type": "function"
    },
    {
      "inputs": [
        {
          "internalType": "string",
          "name": "",
          "type": "string"
        }
      ],
      "name": "pdfHash",
      "outputs": [
        {
          "internalType": "bool",
          "name": "",
          "type": "bool"
        }
      ],
      "stateMutability": "view",
      "type": "function"
    },
    {
      "inputs": [
        {
          "internalType": "uint256",
          "name": "_id",
          "type": "uint256"
        },
        {
          "internalType": "address",
          "name": "_buyer",
          "type": "address"
        },
        {
          "internalType": "uint256",
          "name": "_quantity",
          "type": "uint256"
        },
        {
          "internalType": "uint256",
          "name": "_price",
          "type": "uint256"
        },
        {
          "internalType": "string",
          "name": "location",
          "type": "string"
        },
        {
          "internalType": "string",
          "name": "_hash",
          "type": "string"
        }
      ],
      "name": "sellProduct",
      "outputs": [],
      "stateMutability": "nonpayable",
      "type": "function"
    }
  ],
  "bytecode": "0x608060405234801561001057600080fd5b5033600160006101000a81548173ffffffffffffffffffffffffffffffffffffffff021916908373ffffffffffffffffffffffffffffffffffffffff1602179055506103e8600081905550611d148061006a6000396000f3fe608060405234801561001057600080fd5b50600436106100885760003560e01c806392464dfc1161005b57806392464dfc1461012d578063a8c141b91461015d578063af640d0f14610190578063cc373b3c146101ae57610088565b80633f6b6a7c1461008d578063461fc090146100a95780636813b53b146100d95780638da5cb5b1461010f575b600080fd5b6100a760048036038101906100a29190610e5d565b6101ca565b005b6100c360048036038101906100be9190610ebd565b61041e565b6040516100d09190610fda565b60405180910390f35b6100f360048036038101906100ee9190610ebd565b6104bf565b6040516101069796959493929190611274565b60405180910390f35b6101176107f3565b60405161012491906112ff565b60405180910390f35b6101476004803603810190610142919061144a565b610819565b60405161015491906114ae565b60405180910390f35b61017760048036038101906101729190610ebd565b61084f565b60405161018794939291906114c9565b60405180910390f35b610198610927565b6040516101a59190611515565b60405180910390f35b6101c860048036038101906101c3919061155c565b61092d565b005b6101d2610c34565b60005481600001818152505083838080601f016020809104026020016040519081016040528093929190818152602001838380828437600081840152601f19601f82011690508083019250505050505050816020018190525081816040018181525050338160c0019073ffffffffffffffffffffffffffffffffffffffff16908173ffffffffffffffffffffffffffffffffffffffff16815250508060026000805481526020019081526020016000206000820151816000015560208201518160010190816102a19190611837565b506040820151816002015560608201518160030190805190602001906102c8929190610c87565b5060808201518160040190805190602001906102e5929190610cd4565b5060a0820151816005019080519060200190610302929190610c87565b5060c08201518160060160006101000a81548173ffffffffffffffffffffffffffffffffffffffff021916908373ffffffffffffffffffffffffffffffffffffffff1602179055509050506003600080548152602001908152602001600020339080600181540180825580915050600190039060005260206000200160009091909190916101000a81548173ffffffffffffffffffffffffffffffffffffffff021916908373ffffffffffffffffffffffffffffffffffffffff1602179055507fe25e7cbd30846862937ea31dfcf58fb5d35ae9fed07c8dfdc8bcdd1441308c926000548585856040516103f99493929190611936565b60405180910390a1600080815480929190610413906119a5565b919050555050505050565b6060600360008381526020019081526020016000208054806020026020016040519081016040528092919081815260200182805480156104b357602002820191906000526020600020905b8160009054906101000a900473ffffffffffffffffffffffffffffffffffffffff1673ffffffffffffffffffffffffffffffffffffffff1681526020019060010190808311610469575b50505050509050919050565b600060606000606080606060008054881061050f576040517f08c379a000000000000000000000000000000000000000000000000000000000815260040161050690611a39565b60405180910390fd5b6000600260008a81526020019081526020016000206040518060e0016040529081600082015481526020016001820180546105499061165a565b80601f01602080910402602001604051908101604052809291908181526020018280546105759061165a565b80156105c25780601f10610597576101008083540402835291602001916105c2565b820191906000526020600020905b8154815290600101906020018083116105a557829003601f168201915b50505050508152602001600282015481526020016003820180548060200260200160405190810160405280929190818152602001828054801561062457602002820191906000526020600020905b815481526020019060010190808311610610575b5050505050815260200160048201805480602002602001604051908101604052809291908181526020016000905b828210156106fe5783829060005260206000200180546106719061165a565b80601f016020809104026020016040519081016040528092919081815260200182805461069d9061165a565b80156106ea5780601f106106bf576101008083540402835291602001916106ea565b820191906000526020600020905b8154815290600101906020018083116106cd57829003601f168201915b505050505081526020019060010190610652565b5050505081526020016005820180548060200260200160405190810160405280929190818152602001828054801561075557602002820191906000526020600020905b815481526020019060010190808311610741575b505050505081526020016006820160009054906101000a900473ffffffffffffffffffffffffffffffffffffffff1673ffffffffffffffffffffffffffffffffffffffff1673ffffffffffffffffffffffffffffffffffffffff16815250509050806000015181602001518260400151836060015184608001518560a001518660c00151975097509750975097509750975050919395979092949650565b600160009054906101000a900473ffffffffffffffffffffffffffffffffffffffff1681565b6004818051602081018201805184825260208301602085012081835280955050505050506000915054906101000a900460ff1681565b60026020528060005260406000206000915090508060000154908060010180546108789061165a565b80601f01602080910402602001604051908101604052809291908181526020018280546108a49061165a565b80156108f15780601f106108c6576101008083540402835291602001916108f1565b820191906000526020600020905b8154815290600101906020018083116108d457829003601f168201915b5050505050908060020154908060060160009054906101000a900473ffffffffffffffffffffffffffffffffffffffff16905084565b60005481565b6002600089815260200190815260200160002060060160009054906101000a900473ffffffffffffffffffffffffffffffffffffffff1673ffffffffffffffffffffffffffffffffffffffff163373ffffffffffffffffffffffffffffffffffffffff16146109d1576040517f08c379a00000000000000000000000000000000000000000000000000000000081526004016109c890611aa5565b60405180910390fd5b600260008981526020019081526020016000206003018590806001815401808255809150506001900390600052602060002001600090919091909150556002600089815260200190815260200160002060050142908060018154018082558091505060019003906000526020600020016000909190919091505560026000898152602001908152602001600020600401848490918060018154018082558091505060019003906000526020600020016000909192909192909192909192509182610a9c929190611ad0565b5085600260008a81526020019081526020016000206002018190555086600260008a815260200190815260200160002060060160006101000a81548173ffffffffffffffffffffffffffffffffffffffff021916908373ffffffffffffffffffffffffffffffffffffffff16021790555060036000898152602001908152602001600020879080600181540180825580915050600190039060005260206000200160009091909190916101000a81548173ffffffffffffffffffffffffffffffffffffffff021916908373ffffffffffffffffffffffffffffffffffffffff160217905550600160048383604051610b95929190611bd0565b908152602001604051809103902060006101000a81548160ff0219169083151502179055507feccee9e6dbeeacbeb51c12daab94cba38c69e3fcc211b850f6ea7fde5245187388600260008054815260200190815260200160002060010160026000805481526020019081526020016000206002015488888842604051610c229796959493929190611c6d565b60405180910390a15050505050505050565b6040518060e00160405280600081526020016060815260200160008152602001606081526020016060815260200160608152602001600073ffffffffffffffffffffffffffffffffffffffff1681525090565b828054828255906000526020600020908101928215610cc3579160200282015b82811115610cc2578251825591602001919060010190610ca7565b5b509050610cd09190610d2d565b5090565b828054828255906000526020600020908101928215610d1c579160200282015b82811115610d1b578251829081610d0b9190611837565b5091602001919060010190610cf4565b5b509050610d299190610d4a565b5090565b5b80821115610d46576000816000905550600101610d2e565b5090565b5b80821115610d6a5760008181610d619190610d6e565b50600101610d4b565b5090565b508054610d7a9061165a565b6000825580601f10610d8c5750610dab565b601f016020900490600052602060002090810190610daa9190610d2d565b5b50565b6000604051905090565b600080fd5b600080fd5b600080fd5b600080fd5b600080fd5b60008083601f840112610de757610de6610dc2565b5b8235905067ffffffffffffffff811115610e0457610e03610dc7565b5b602083019150836001820283011115610e2057610e1f610dcc565b5b9250929050565b6000819050919050565b610e3a81610e27565b8114610e4557600080fd5b50565b600081359050610e5781610e31565b92915050565b600080600060408486031215610e7657610e75610db8565b5b600084013567ffffffffffffffff811115610e9457610e93610dbd565b5b610ea086828701610dd1565b93509350506020610eb386828701610e48565b9150509250925092565b600060208284031215610ed357610ed2610db8565b5b6000610ee184828501610e48565b91505092915050565b600081519050919050565b600082825260208201905092915050565b6000819050602082019050919050565b600073ffffffffffffffffffffffffffffffffffffffff82169050919050565b6000610f4182610f16565b9050919050565b610f5181610f36565b82525050565b6000610f638383610f48565b60208301905092915050565b6000602082019050919050565b6000610f8782610eea565b610f918185610ef5565b9350610f9c83610f06565b8060005b83811015610fcd578151610fb48882610f57565b9750610fbf83610f6f565b925050600181019050610fa0565b5085935050505092915050565b60006020820190508181036000830152610ff48184610f7c565b905092915050565b61100581610e27565b82525050565b600081519050919050565b600082825260208201905092915050565b60005b8381101561104557808201518184015260208101905061102a565b60008484015250505050565b6000601f19601f8301169050919050565b600061106d8261100b565b6110778185611016565b9350611087818560208601611027565b61109081611051565b840191505092915050565b600081519050919050565b600082825260208201905092915050565b6000819050602082019050919050565b6110d081610e27565b82525050565b60006110e283836110c7565b60208301905092915050565b6000602082019050919050565b60006111068261109b565b61111081856110a6565b935061111b836110b7565b8060005b8381101561114c57815161113388826110d6565b975061113e836110ee565b92505060018101905061111f565b5085935050505092915050565b600081519050919050565b600082825260208201905092915050565b6000819050602082019050919050565b600082825260208201905092915050565b60006111a18261100b565b6111ab8185611185565b93506111bb818560208601611027565b6111c481611051565b840191505092915050565b60006111db8383611196565b905092915050565b6000602082019050919050565b60006111fb82611159565b6112058185611164565b93508360208202850161121785611175565b8060005b85811015611253578484038952815161123485826111cf565b945061123f836111e3565b925060208a0199505060018101905061121b565b50829750879550505050505092915050565b61126e81610f36565b82525050565b600060e082019050611289600083018a610ffc565b818103602083015261129b8189611062565b90506112aa6040830188610ffc565b81810360608301526112bc81876110fb565b905081810360808301526112d081866111f0565b905081810360a08301526112e481856110fb565b90506112f360c0830184611265565b98975050505050505050565b60006020820190506113146000830184611265565b92915050565b600080fd5b7f4e487b7100000000000000000000000000000000000000000000000000000000600052604160045260246000fd5b61135782611051565b810181811067ffffffffffffffff821117156113765761137561131f565b5b80604052505050565b6000611389610dae565b9050611395828261134e565b919050565b600067ffffffffffffffff8211156113b5576113b461131f565b5b6113be82611051565b9050602081019050919050565b82818337600083830152505050565b60006113ed6113e88461139a565b61137f565b9050828152602081018484840111156114095761140861131a565b5b6114148482856113cb565b509392505050565b600082601f83011261143157611430610dc2565b5b81356114418482602086016113da565b91505092915050565b6000602082840312156114605761145f610db8565b5b600082013567ffffffffffffffff81111561147e5761147d610dbd565b5b61148a8482850161141c565b91505092915050565b60008115159050919050565b6114a881611493565b82525050565b60006020820190506114c3600083018461149f565b92915050565b60006080820190506114de6000830187610ffc565b81810360208301526114f08186611062565b90506114ff6040830185610ffc565b61150c6060830184611265565b95945050505050565b600060208201905061152a6000830184610ffc565b92915050565b61153981610f36565b811461154457600080fd5b50565b60008135905061155681611530565b92915050565b60008060008060008060008060c0898b03121561157c5761157b610db8565b5b600061158a8b828c01610e48565b985050602061159b8b828c01611547565b97505060406115ac8b828c01610e48565b96505060606115bd8b828c01610e48565b955050608089013567ffffffffffffffff8111156115de576115dd610dbd565b5b6115ea8b828c01610dd1565b945094505060a089013567ffffffffffffffff81111561160d5761160c610dbd565b5b6116198b828c01610dd1565b92509250509295985092959890939650565b7f4e487b7100000000000000000000000000000000000000000000000000000000600052602260045260246000fd5b6000600282049050600182168061167257607f821691505b6020821081036116855761168461162b565b5b50919050565b60008190508160005260206000209050919050565b60006020601f8301049050919050565b600082821b905092915050565b6000600883026116ed7fffffffffffffffffffffffffffffffffffffffffffffffffffffffffffffffff826116b0565b6116f786836116b0565b95508019841693508086168417925050509392505050565b6000819050919050565b600061173461172f61172a84610e27565b61170f565b610e27565b9050919050565b6000819050919050565b61174e83611719565b61176261175a8261173b565b8484546116bd565b825550505050565b600090565b61177761176a565b611782818484611745565b505050565b5b818110156117a65761179b60008261176f565b600181019050611788565b5050565b601f8211156117eb576117bc8161168b565b6117c5846116a0565b810160208510156117d4578190505b6117e86117e0856116a0565b830182611787565b50505b505050565b600082821c905092915050565b600061180e600019846008026117f0565b1980831691505092915050565b600061182783836117fd565b9150826002028217905092915050565b6118408261100b565b67ffffffffffffffff8111156118595761185861131f565b5b611863825461165a565b61186e8282856117aa565b600060209050601f8311600181146118a1576000841561188f578287015190505b611899858261181b565b865550611901565b601f1984166118af8661168b565b60005b828110156118d7578489015182556001820191506020850194506020810190506118b2565b868310156118f457848901516118f0601f8916826117fd565b8355505b6001600288020188555050505b505050505050565b60006119158385611016565b93506119228385846113cb565b61192b83611051565b840190509392505050565b600060608201905061194b6000830187610ffc565b818103602083015261195e818587611909565b905061196d6040830184610ffc565b95945050505050565b7f4e487b7100000000000000000000000000000000000000000000000000000000600052601160045260246000fd5b60006119b082610e27565b91507fffffffffffffffffffffffffffffffffffffffffffffffffffffffffffffffff82036119e2576119e1611976565b5b600182019050919050565b7f496e76616c69642070726f647563742049440000000000000000000000000000600082015250565b6000611a23601283611016565b9150611a2e826119ed565b602082019050919050565b60006020820190508181036000830152611a5281611a16565b9050919050565b7f4e6f744f776e6572000000000000000000000000000000000000000000000000600082015250565b6000611a8f600883611016565b9150611a9a82611a59565b602082019050919050565b60006020820190508181036000830152611abe81611a82565b9050919050565b600082905092915050565b611ada8383611ac5565b67ffffffffffffffff811115611af357611af261131f565b5b611afd825461165a565b611b088282856117aa565b6000601f831160018114611b375760008415611b25578287013590505b611b2f858261181b565b865550611b97565b601f198416611b458661168b565b60005b82811015611b6d57848901358255600182019150602085019450602081019050611b48565b86831015611b8a5784890135611b86601f8916826117fd565b8355505b6001600288020188555050505b50505050505050565b600081905092915050565b6000611bb78385611ba0565b9350611bc48385846113cb565b82840190509392505050565b6000611bdd828486611bab565b91508190509392505050565b60008154611bf68161165a565b611c008186611016565b94506001821660008114611c1b5760018114611c3157611c64565b60ff198316865281151560200286019350611c64565b611c3a8561168b565b60005b83811015611c5c57815481890152600182019150602081019050611c3d565b808801955050505b50505092915050565b600060c082019050611c82600083018a610ffc565b8181036020830152611c948189611be9565b9050611ca36040830188610ffc565b611cb06060830187610ffc565b8181036080830152611cc3818587611909565b9050611cd260a0830184610ffc565b9897505050505050505056fea2646970667358221220f9675af3eb59b7f30c509d2048555d47b7d647245b2f4e81277abcbb6230498b64736f6c63430008120033",
  "linkReferences": {},
  "deployedLinkReferences": {}
}