{
  "_format": "hh-sol-artifact-1",
  "contractName": "SupplyChain",
  "sourceName": "contracts/SupplyChain.sol",
  "abi": [
    {
      "inputs": [],
      "stateMutability": "nonpayable",
      "type": "constructor"
    },
    {
      "anonymous": false,
      "inputs": [
        {
          "indexed": false,
          "internalType": "uint256",
          "name": "_id",
          "type": "uint256"
        },
        {
          "indexed": false,
          "internalType": "string",
          "name": "name",
          "type": "string"
        },
        {
          "indexed": false,
          "internalType": "uint256",
          "name": "quantity",
          "type": "uint256"
        }
      ],
      "name": "ProductAssign",
      "type": "event"
    },
    {
      "anonymous": false,
      "inputs": [
        {
          "indexed": false,
          "internalType": "uint256",
          "name": "id",
          "type": "uint256"
        },
        {
          "indexed": false,
          "internalType": "string",
          "name": "name",
          "type": "string"
        },
        {
          "indexed": false,
          "internalType": "uint256",
          "name": "quantity",
          "type": "uint256"
        },
        {
          "indexed": false,
          "internalType": "uint256",
          "name": "price",
          "type": "uint256"
        },
        {
          "indexed": false,
          "internalType": "string",
          "name": "location",
          "type": "string"
        },
        {
          "indexed": false,
          "internalType": "uint256",
          "name": "time",
          "type": "uint256"
        }
      ],
      "name": "ProductSell",
      "type": "event"
    },
    {
      "inputs": [
        {
          "internalType": "uint256",
          "name": "",
          "type": "uint256"
        }
      ],
      "name": "IdTOProduct",
      "outputs": [
        {
          "internalType": "uint256",
          "name": "productID",
          "type": "uint256"
        },
        {
          "internalType": "string",
          "name": "productName",
          "type": "string"
        },
        {
          "internalType": "uint256",
          "name": "productQuantity",
          "type": "uint256"
        },
        {
          "internalType": "address",
          "name": "productOwner",
          "type": "address"
        }
      ],
      "stateMutability": "view",
      "type": "function"
    },
    {
      "inputs": [
        {
          "internalType": "string",
          "name": "name",
          "type": "string"
        },
        {
          "internalType": "uint256",
          "name": "quantity",
          "type": "uint256"
        }
      ],
      "name": "assignProduct",
      "outputs": [],
      "stateMutability": "nonpayable",
      "type": "function"
    },
    {
      "inputs": [
        {
          "internalType": "uint256",
          "name": "_id",
          "type": "uint256"
        }
      ],
      "name": "getProductDetails",
      "outputs": [
        {
          "internalType": "uint256",
          "name": "productID",
          "type": "uint256"
        },
        {
          "internalType": "string",
          "name": "productName",
          "type": "string"
        },
        {
          "internalType": "uint256",
          "name": "productQuantity",
          "type": "uint256"
        },
        {
          "internalType": "uint256[]",
          "name": "productPrice",
          "type": "uint256[]"
        },
        {
          "internalType": "string[]",
          "name": "productLocation",
          "type": "string[]"
        },
        {
          "internalType": "uint256[]",
          "name": "productTimestamp",
          "type": "uint256[]"
        },
        {
          "internalType": "address",
          "name": "productOwner",
          "type": "address"
        }
      ],
      "stateMutability": "view",
      "type": "function"
    },
    {
      "inputs": [],
      "name": "id",
      "outputs": [
        {
          "internalType": "uint256",
          "name": "",
          "type": "uint256"
        }
      ],
      "stateMutability": "view",
      "type": "function"
    },
    {
      "inputs": [],
      "name": "owner",
      "outputs": [
        {
          "internalType": "address",
          "name": "",
          "type": "address"
        }
      ],
      "stateMutability": "view",
      "type": "function"
    },
    {
      "inputs": [
        {
          "internalType": "uint256",
          "name": "_id",
          "type": "uint256"
        }
      ],
      "name": "ownerHistory",
      "outputs": [
        {
          "internalType": "address[]",
          "name": "",
          "type": "address[]"
        }
      ],
      "stateMutability": "view",
      "type": "function"
    },
    {
      "inputs": [
        {
          "internalType": "uint256",
          "name": "_id",
          "type": "uint256"
        },
        {
          "internalType": "address",
          "name": "_buyer",
          "type": "address"
        },
        {
          "internalType": "uint256",
          "name": "_price",
          "type": "uint256"
        },
        {
          "internalType": "string",
          "name": "location",
          "type": "string"
        }
      ],
      "name": "sellProduct",
      "outputs": [],
      "stateMutability": "nonpayable",
      "type": "function"
    }
  ],
  "bytecode": "0x60806040523480156200001157600080fd5b506200002e673228560bcf40b97860c01b620000b660201b60201c565b6200004a6733e492be3add006560c01b620000b660201b60201c565b33600160006101000a81548173ffffffffffffffffffffffffffffffffffffffff021916908373ffffffffffffffffffffffffffffffffffffffff160217905550620000a7672d726a0f71a92ad160c01b620000b660201b60201c565b6103e8600081905550620000b9565b50565b611d7980620000c96000396000f3fe608060405234801561001057600080fd5b506004361061007d5760003560e01c80636813b53b1161005b5780636813b53b146100ea5780638da5cb5b14610120578063a8c141b91461013e578063af640d0f146101715761007d565b806325c4db84146100825780633f6b6a7c1461009e578063461fc090146100ba575b600080fd5b61009c60048036038101906100979190611121565b61018f565b005b6100b860048036038101906100b391906111a9565b61057f565b005b6100d460048036038101906100cf9190611209565b6108d7565b6040516100e191906112f4565b60405180910390f35b61010460048036038101906100ff9190611209565b6109b4565b604051610117979695949392919061158e565b60405180910390f35b610128610d9d565b6040516101359190611619565b60405180910390f35b61015860048036038101906101539190611209565b610dc3565b6040516101689493929190611634565b60405180910390f35b610179610e9b565b6040516101869190611680565b60405180910390f35b6101a3670a4088b681306da960c01b610ea1565b6101b7675bb39dd1ab14564e60c01b610ea1565b6101cb677a9d213de269265060c01b610ea1565b6101df679ef7297ba69e3b7260c01b610ea1565b6002600086815260200190815260200160002060060160009054906101000a900473ffffffffffffffffffffffffffffffffffffffff1673ffffffffffffffffffffffffffffffffffffffff163373ffffffffffffffffffffffffffffffffffffffff1614610283576040517f08c379a000000000000000000000000000000000000000000000000000000000815260040161027a906116e7565b60405180910390fd5b610297673257d6be5ac2c3d860c01b610ea1565b6102ab67154e639afd8a687e60c01b610ea1565b6102bf673a94dc0e7dbadcdf60c01b610ea1565b6002600086815260200190815260200160002060030183908060018154018082558091505060019003906000526020600020016000909190919091505561031067b3453eb6a8b3e17c60c01b610ea1565b6103246752dae225d143d43960c01b610ea1565b6002600086815260200190815260200160002060050142908060018154018082558091505060019003906000526020600020016000909190919091505561037567ac27fbdec605999260c01b610ea1565b61038967fc13157ee97904b660c01b610ea1565b600260008681526020019081526020016000206004018282909180600181540180825580915050600190039060005260206000200160009091929091929091929091925091826103da92919061194d565b506103ef67f51407d1b284998960c01b610ea1565b836002600087815260200190815260200160002060060160006101000a81548173ffffffffffffffffffffffffffffffffffffffff021916908373ffffffffffffffffffffffffffffffffffffffff16021790555061045867db0d4cc992d3a00960c01b610ea1565b61046c6717e40f5e1ffcc59560c01b610ea1565b60036000868152602001908152602001600020849080600181540180825580915050600190039060005260206000200160009091909190916101000a81548173ffffffffffffffffffffffffffffffffffffffff021916908373ffffffffffffffffffffffffffffffffffffffff1602179055506104f4674a4eeccfec33fbf060c01b610ea1565b610508672ec091822d42246060c01b610ea1565b7feccee9e6dbeeacbeb51c12daab94cba38c69e3fcc211b850f6ea7fde52451873856002600080548152602001908152602001600020600101600260008054815260200190815260200160002060020154868686426040516105709796959493929190611add565b60405180910390a15050505050565b61059367cbde3799e5fe37f560c01b610ea1565b6105a767a0d780bac81a45a260c01b610ea1565b6105bb6734491da83de675a960c01b610ea1565b6105c3610ea4565b6105d767c12e778fc321d3ef60c01b610ea1565b6000548160000181815250506105f7674b18dbb41a507ffa60c01b610ea1565b83838080601f016020809104026020016040519081016040528093929190818152602001838380828437600081840152601f19601f820116905080830192505050505050508160200181905250610658673ba280429f67cab060c01b610ea1565b818160400181815250506106766709495596beb46bfe60c01b610ea1565b338160c0019073ffffffffffffffffffffffffffffffffffffffff16908173ffffffffffffffffffffffffffffffffffffffff16815250506106c26705fe16a9b994f57460c01b610ea1565b8060026000805481526020019081526020016000206000820151816000015560208201518160010190816106f69190611b4e565b5060408201518160020155606082015181600301908051906020019061071d929190610ef7565b50608082015181600401908051906020019061073a929190610f44565b5060a0820151816005019080519060200190610757929190610ef7565b5060c08201518160060160006101000a81548173ffffffffffffffffffffffffffffffffffffffff021916908373ffffffffffffffffffffffffffffffffffffffff1602179055509050506107b6674eebc83b5839f7dd60c01b610ea1565b6107ca67aa4957523dc80dd460c01b610ea1565b6003600080548152602001908152602001600020339080600181540180825580915050600190039060005260206000200160009091909190916101000a81548173ffffffffffffffffffffffffffffffffffffffff021916908373ffffffffffffffffffffffffffffffffffffffff16021790555061085367e0cdc8c8a158531260c01b610ea1565b610867672b324cc9213f46ee60c01b610ea1565b7fe25e7cbd30846862937ea31dfcf58fb5d35ae9fed07c8dfdc8bcdd1441308c9260005485858560405161089e9493929190611c20565b60405180910390a16108ba67697bb48277856a4160c01b610ea1565b6000808154809291906108cc90611c8f565b919050555050505050565b60606108ed67be7bd76b38b2b8b260c01b610ea1565b61090167663c812fbc1f0a9d60c01b610ea1565b6109156793226b29d4d176c360c01b610ea1565b600360008381526020019081526020016000208054806020026020016040519081016040528092919081815260200182805480156109a857602002820191906000526020600020905b8160009054906101000a900473ffffffffffffffffffffffffffffffffffffffff1673ffffffffffffffffffffffffffffffffffffffff168152602001906001019080831161095e575b50505050509050919050565b600060606000606080606060006109d567cb371a034e018e7260c01b610ea1565b6109e967221260a25d560f4160c01b610ea1565b6109fd67668bf36727efa51d60c01b610ea1565b610a116736ddc14c94e13dc760c01b610ea1565b6000548810610a55576040517f08c379a0000000000000000000000000000000000000000000000000000000008152600401610a4c90611d23565b60405180910390fd5b610a6967113a82d546d01b0d60c01b610ea1565b610a7d67f3ed8bfe6594ced860c01b610ea1565b610a916793ea74d95ee86a0460c01b610ea1565b6000600260008a81526020019081526020016000206040518060e001604052908160008201548152602001600182018054610acb90611770565b80601f0160208091040260200160405190810160405280929190818152602001828054610af790611770565b8015610b445780601f10610b1957610100808354040283529160200191610b44565b820191906000526020600020905b815481529060010190602001808311610b2757829003601f168201915b505050505081526020016002820154815260200160038201805480602002602001604051908101604052809291908181526020018280548015610ba657602002820191906000526020600020905b815481526020019060010190808311610b92575b5050505050815260200160048201805480602002602001604051908101604052809291908181526020016000905b82821015610c80578382906000526020600020018054610bf390611770565b80601f0160208091040260200160405190810160405280929190818152602001828054610c1f90611770565b8015610c6c5780601f10610c4157610100808354040283529160200191610c6c565b820191906000526020600020905b815481529060010190602001808311610c4f57829003601f168201915b505050505081526020019060010190610bd4565b50505050815260200160058201805480602002602001604051908101604052809291908181526020018280548015610cd757602002820191906000526020600020905b815481526020019060010190808311610cc3575b505050505081526020016006820160009054906101000a900473ffffffffffffffffffffffffffffffffffffffff1673ffffffffffffffffffffffffffffffffffffffff1673ffffffffffffffffffffffffffffffffffffffff16815250509050610d4c67168112e9e618f8f160c01b610ea1565b610d6067a6efc41922e07fca60c01b610ea1565b806000015181602001518260400151836060015184608001518560a001518660c00151975097509750975097509750975050919395979092949650565b600160009054906101000a900473ffffffffffffffffffffffffffffffffffffffff1681565b6002602052806000526040600020600091509050806000015490806001018054610dec90611770565b80601f0160208091040260200160405190810160405280929190818152602001828054610e1890611770565b8015610e655780601f10610e3a57610100808354040283529160200191610e65565b820191906000526020600020905b815481529060010190602001808311610e4857829003601f168201915b5050505050908060020154908060060160009054906101000a900473ffffffffffffffffffffffffffffffffffffffff16905084565b60005481565b50565b6040518060e00160405280600081526020016060815260200160008152602001606081526020016060815260200160608152602001600073ffffffffffffffffffffffffffffffffffffffff1681525090565b828054828255906000526020600020908101928215610f33579160200282015b82811115610f32578251825591602001919060010190610f17565b5b509050610f409190610f9d565b5090565b828054828255906000526020600020908101928215610f8c579160200282015b82811115610f8b578251829081610f7b9190611b4e565b5091602001919060010190610f64565b5b509050610f999190610fba565b5090565b5b80821115610fb6576000816000905550600101610f9e565b5090565b5b80821115610fda5760008181610fd19190610fde565b50600101610fbb565b5090565b508054610fea90611770565b6000825580601f10610ffc575061101b565b601f01602090049060005260206000209081019061101a9190610f9d565b5b50565b600080fd5b600080fd5b6000819050919050565b61103b81611028565b811461104657600080fd5b50565b60008135905061105881611032565b92915050565b600073ffffffffffffffffffffffffffffffffffffffff82169050919050565b60006110898261105e565b9050919050565b6110998161107e565b81146110a457600080fd5b50565b6000813590506110b681611090565b92915050565b600080fd5b600080fd5b600080fd5b60008083601f8401126110e1576110e06110bc565b5b8235905067ffffffffffffffff8111156110fe576110fd6110c1565b5b60208301915083600182028301111561111a576111196110c6565b5b9250929050565b60008060008060006080868803121561113d5761113c61101e565b5b600061114b88828901611049565b955050602061115c888289016110a7565b945050604061116d88828901611049565b935050606086013567ffffffffffffffff81111561118e5761118d611023565b5b61119a888289016110cb565b92509250509295509295909350565b6000806000604084860312156111c2576111c161101e565b5b600084013567ffffffffffffffff8111156111e0576111df611023565b5b6111ec868287016110cb565b935093505060206111ff86828701611049565b9150509250925092565b60006020828403121561121f5761121e61101e565b5b600061122d84828501611049565b91505092915050565b600081519050919050565b600082825260208201905092915050565b6000819050602082019050919050565b61126b8161107e565b82525050565b600061127d8383611262565b60208301905092915050565b6000602082019050919050565b60006112a182611236565b6112ab8185611241565b93506112b683611252565b8060005b838110156112e75781516112ce8882611271565b97506112d983611289565b9250506001810190506112ba565b5085935050505092915050565b6000602082019050818103600083015261130e8184611296565b905092915050565b61131f81611028565b82525050565b600081519050919050565b600082825260208201905092915050565b60005b8381101561135f578082015181840152602081019050611344565b60008484015250505050565b6000601f19601f8301169050919050565b600061138782611325565b6113918185611330565b93506113a1818560208601611341565b6113aa8161136b565b840191505092915050565b600081519050919050565b600082825260208201905092915050565b6000819050602082019050919050565b6113ea81611028565b82525050565b60006113fc83836113e1565b60208301905092915050565b6000602082019050919050565b6000611420826113b5565b61142a81856113c0565b9350611435836113d1565b8060005b8381101561146657815161144d88826113f0565b975061145883611408565b925050600181019050611439565b5085935050505092915050565b600081519050919050565b600082825260208201905092915050565b6000819050602082019050919050565b600082825260208201905092915050565b60006114bb82611325565b6114c5818561149f565b93506114d5818560208601611341565b6114de8161136b565b840191505092915050565b60006114f583836114b0565b905092915050565b6000602082019050919050565b600061151582611473565b61151f818561147e565b9350836020820285016115318561148f565b8060005b8581101561156d578484038952815161154e85826114e9565b9450611559836114fd565b925060208a01995050600181019050611535565b50829750879550505050505092915050565b6115888161107e565b82525050565b600060e0820190506115a3600083018a611316565b81810360208301526115b5818961137c565b90506115c46040830188611316565b81810360608301526115d68187611415565b905081810360808301526115ea818661150a565b905081810360a08301526115fe8185611415565b905061160d60c083018461157f565b98975050505050505050565b600060208201905061162e600083018461157f565b92915050565b60006080820190506116496000830187611316565b818103602083015261165b818661137c565b905061166a6040830185611316565b611677606083018461157f565b95945050505050565b60006020820190506116956000830184611316565b92915050565b7f4e6f744f776e6572000000000000000000000000000000000000000000000000600082015250565b60006116d1600883611330565b91506116dc8261169b565b602082019050919050565b60006020820190508181036000830152611700816116c4565b9050919050565b600082905092915050565b7f4e487b7100000000000000000000000000000000000000000000000000000000600052604160045260246000fd5b7f4e487b7100000000000000000000000000000000000000000000000000000000600052602260045260246000fd5b6000600282049050600182168061178857607f821691505b60208210810361179b5761179a611741565b5b50919050565b60008190508160005260206000209050919050565b60006020601f8301049050919050565b600082821b905092915050565b6000600883026118037fffffffffffffffffffffffffffffffffffffffffffffffffffffffffffffffff826117c6565b61180d86836117c6565b95508019841693508086168417925050509392505050565b6000819050919050565b600061184a61184561184084611028565b611825565b611028565b9050919050565b6000819050919050565b6118648361182f565b61187861187082611851565b8484546117d3565b825550505050565b600090565b61188d611880565b61189881848461185b565b505050565b5b818110156118bc576118b1600082611885565b60018101905061189e565b5050565b601f821115611901576118d2816117a1565b6118db846117b6565b810160208510156118ea578190505b6118fe6118f6856117b6565b83018261189d565b50505b505050565b600082821c905092915050565b600061192460001984600802611906565b1980831691505092915050565b600061193d8383611913565b9150826002028217905092915050565b6119578383611707565b67ffffffffffffffff8111156119705761196f611712565b5b61197a8254611770565b6119858282856118c0565b6000601f8311600181146119b457600084156119a2578287013590505b6119ac8582611931565b865550611a14565b601f1984166119c2866117a1565b60005b828110156119ea578489013582556001820191506020850194506020810190506119c5565b86831015611a075784890135611a03601f891682611913565b8355505b6001600288020188555050505b50505050505050565b60008154611a2a81611770565b611a348186611330565b94506001821660008114611a4f5760018114611a6557611a98565b60ff198316865281151560200286019350611a98565b611a6e856117a1565b60005b83811015611a9057815481890152600182019150602081019050611a71565b808801955050505b50505092915050565b82818337600083830152505050565b6000611abc8385611330565b9350611ac9838584611aa1565b611ad28361136b565b840190509392505050565b600060c082019050611af2600083018a611316565b8181036020830152611b048189611a1d565b9050611b136040830188611316565b611b206060830187611316565b8181036080830152611b33818587611ab0565b9050611b4260a0830184611316565b98975050505050505050565b611b5782611325565b67ffffffffffffffff811115611b7057611b6f611712565b5b611b7a8254611770565b611b858282856118c0565b600060209050601f831160018114611bb85760008415611ba6578287015190505b611bb08582611931565b865550611c18565b601f198416611bc6866117a1565b60005b82811015611bee57848901518255600182019150602085019450602081019050611bc9565b86831015611c0b5784890151611c07601f891682611913565b8355505b6001600288020188555050505b505050505050565b6000606082019050611c356000830187611316565b8181036020830152611c48818587611ab0565b9050611c576040830184611316565b95945050505050565b7f4e487b7100000000000000000000000000000000000000000000000000000000600052601160045260246000fd5b6000611c9a82611028565b91507fffffffffffffffffffffffffffffffffffffffffffffffffffffffffffffffff8203611ccc57611ccb611c60565b5b600182019050919050565b7f496e76616c69642070726f647563742049440000000000000000000000000000600082015250565b6000611d0d601283611330565b9150611d1882611cd7565b602082019050919050565b60006020820190508181036000830152611d3c81611d00565b905091905056fea26469706673582212204f6987274dc9bc2f8866878993ded019c3996245c53ce18059b86540159f698c64736f6c63430008120033",
  "linkReferences": {},
  "deployedLinkReferences": {}
}