{
  "_format": "hh-sol-artifact-1",
  "contractName": "SupplyChain",
  "sourceName": "contracts/SupplyChain.sol",
  "abi": [
    {
      "inputs": [],
      "stateMutability": "nonpayable",
      "type": "constructor"
    },
    {
      "anonymous": false,
      "inputs": [
        {
          "indexed": false,
          "internalType": "uint256",
          "name": "_id",
          "type": "uint256"
        },
        {
          "indexed": false,
          "internalType": "string",
          "name": "name",
          "type": "string"
        },
        {
          "indexed": false,
          "internalType": "uint256",
          "name": "quantity",
          "type": "uint256"
        }
      ],
      "name": "ProductAssign",
      "type": "event"
    },
    {
      "anonymous": false,
      "inputs": [
        {
          "indexed": false,
          "internalType": "uint256",
          "name": "id",
          "type": "uint256"
        },
        {
          "indexed": false,
          "internalType": "string",
          "name": "name",
          "type": "string"
        },
        {
          "indexed": false,
          "internalType": "uint256",
          "name": "quantity",
          "type": "uint256"
        },
        {
          "indexed": false,
          "internalType": "uint256",
          "name": "price",
          "type": "uint256"
        },
        {
          "indexed": false,
          "internalType": "string",
          "name": "location",
          "type": "string"
        },
        {
          "indexed": false,
          "internalType": "uint256",
          "name": "time",
          "type": "uint256"
        }
      ],
      "name": "ProductSell",
      "type": "event"
    },
    {
      "inputs": [
        {
          "internalType": "uint256",
          "name": "",
          "type": "uint256"
        }
      ],
      "name": "IdTOProduct",
      "outputs": [
        {
          "internalType": "uint256",
          "name": "productID",
          "type": "uint256"
        },
        {
          "internalType": "string",
          "name": "productName",
          "type": "string"
        },
        {
          "internalType": "uint256",
          "name": "productQuantity",
          "type": "uint256"
        },
        {
          "internalType": "address",
          "name": "productOwner",
          "type": "address"
        }
      ],
      "stateMutability": "view",
      "type": "function"
    },
    {
      "inputs": [
        {
          "internalType": "address",
          "name": "",
          "type": "address"
        },
        {
          "internalType": "uint256",
          "name": "",
          "type": "uint256"
        }
      ],
      "name": "UserProductList",
      "outputs": [
        {
          "internalType": "uint256",
          "name": "",
          "type": "uint256"
        }
      ],
      "stateMutability": "view",
      "type": "function"
    },
    {
      "inputs": [
        {
          "internalType": "string",
          "name": "name",
          "type": "string"
        },
        {
          "internalType": "uint256",
          "name": "quantity",
          "type": "uint256"
        }
      ],
      "name": "assignProduct",
      "outputs": [],
      "stateMutability": "nonpayable",
      "type": "function"
    },
    {
      "inputs": [
        {
          "internalType": "address",
          "name": "",
          "type": "address"
        }
      ],
      "name": "bUser",
      "outputs": [
        {
          "internalType": "bool",
          "name": "",
          "type": "bool"
        }
      ],
      "stateMutability": "view",
      "type": "function"
    },
    {
      "inputs": [
        {
          "internalType": "address",
          "name": "x",
          "type": "address"
        }
      ],
      "name": "blockUser",
      "outputs": [],
      "stateMutability": "nonpayable",
      "type": "function"
    },
    {
      "inputs": [],
      "name": "deriveLastId",
      "outputs": [
        {
          "internalType": "uint256",
          "name": "",
          "type": "uint256"
        }
      ],
      "stateMutability": "view",
      "type": "function"
    },
    {
      "inputs": [
        {
          "internalType": "uint256",
          "name": "_id",
          "type": "uint256"
        }
      ],
      "name": "getProductDetails",
      "outputs": [
        {
          "internalType": "uint256",
          "name": "productID",
          "type": "uint256"
        },
        {
          "internalType": "string",
          "name": "productName",
          "type": "string"
        },
        {
          "internalType": "uint256",
          "name": "productQuantity",
          "type": "uint256"
        },
        {
          "internalType": "uint256[]",
          "name": "productPrice",
          "type": "uint256[]"
        },
        {
          "internalType": "string[]",
          "name": "productLocation",
          "type": "string[]"
        },
        {
          "internalType": "uint256[]",
          "name": "productTimestamp",
          "type": "uint256[]"
        },
        {
          "internalType": "address",
          "name": "productOwner",
          "type": "address"
        }
      ],
      "stateMutability": "view",
      "type": "function"
    },
    {
      "inputs": [
        {
          "internalType": "uint256",
          "name": "_id",
          "type": "uint256"
        }
      ],
      "name": "getproductQuant",
      "outputs": [
        {
          "internalType": "uint256[]",
          "name": "",
          "type": "uint256[]"
        }
      ],
      "stateMutability": "view",
      "type": "function"
    },
    {
      "inputs": [],
      "name": "id",
      "outputs": [
        {
          "internalType": "uint256",
          "name": "",
          "type": "uint256"
        }
      ],
      "stateMutability": "view",
      "type": "function"
    },
    {
      "inputs": [
        {
          "internalType": "uint256",
          "name": "",
          "type": "uint256"
        }
      ],
      "name": "isSell",
      "outputs": [
        {
          "internalType": "bool",
          "name": "",
          "type": "bool"
        }
      ],
      "stateMutability": "view",
      "type": "function"
    },
    {
      "inputs": [],
      "name": "owner",
      "outputs": [
        {
          "internalType": "address",
          "name": "",
          "type": "address"
        }
      ],
      "stateMutability": "view",
      "type": "function"
    },
    {
      "inputs": [
        {
          "internalType": "uint256",
          "name": "_id",
          "type": "uint256"
        }
      ],
      "name": "ownerHistory",
      "outputs": [
        {
          "internalType": "address[]",
          "name": "",
          "type": "address[]"
        }
      ],
      "stateMutability": "view",
      "type": "function"
    },
    {
      "inputs": [
        {
          "internalType": "string",
          "name": "",
          "type": "string"
        }
      ],
      "name": "pdfHash",
      "outputs": [
        {
          "internalType": "bool",
          "name": "",
          "type": "bool"
        }
      ],
      "stateMutability": "view",
      "type": "function"
    },
    {
      "inputs": [
        {
          "internalType": "uint256",
          "name": "_id",
          "type": "uint256"
        },
        {
          "internalType": "address",
          "name": "_buyer",
          "type": "address"
        },
        {
          "internalType": "uint256",
          "name": "_quantity",
          "type": "uint256"
        },
        {
          "internalType": "uint256",
          "name": "_price",
          "type": "uint256"
        },
        {
          "internalType": "string",
          "name": "location",
          "type": "string"
        },
        {
          "internalType": "string",
          "name": "_hash",
          "type": "string"
        }
      ],
      "name": "sellProduct",
      "outputs": [],
      "stateMutability": "nonpayable",
      "type": "function"
    },
    {
      "inputs": [],
      "name": "stopListing",
      "outputs": [],
      "stateMutability": "nonpayable",
      "type": "function"
    }
  ],
  "bytecode": "0x60806040526001600960006101000a81548160ff02191690831515021790555034801561002b57600080fd5b5033600160006101000a81548173ffffffffffffffffffffffffffffffffffffffff021916908373ffffffffffffffffffffffffffffffffffffffff1602179055506103e86000819055506126f0806100856000396000f3fe608060405234801561001057600080fd5b50600436106100f55760003560e01c80638da5cb5b11610097578063a8c141b911610066578063a8c141b91461029e578063af640d0f146102d1578063cc373b3c146102ef578063dcfd84051461030b576100f5565b80638da5cb5b1461021657806392464dfc1461023457806396dc690f14610264578063a52ed04114610294576100f5565b80633f6b6a7c116100d35780633f6b6a7c14610164578063461fc090146101805780636813b53b146101b057806389d48387146101e6576100f5565b80631b01e72c146100fa5780633a7e8e361461012a5780633da0132514610148575b600080fd5b610114600480360381019061010f919061159e565b61033b565b60405161012191906115e6565b60405180910390f35b61013261035b565b60405161013f9190611610565b60405180910390f35b610162600480360381019061015d9190611689565b610422565b005b61017e6004803603810190610179919061171b565b61050d565b005b61019a6004803603810190610195919061159e565b6108ed565b6040516101a79190611839565b60405180910390f35b6101ca60048036038101906101c5919061159e565b61098e565b6040516101dd9796959493929190611ac4565b60405180910390f35b61020060048036038101906101fb919061159e565b610d37565b60405161020d9190611b4f565b60405180910390f35b61021e610da2565b60405161022b9190611b71565b60405180910390f35b61024e60048036038101906102499190611cbc565b610dc8565b60405161025b91906115e6565b60405180910390f35b61027e60048036038101906102799190611d05565b610dfe565b60405161028b9190611610565b60405180910390f35b61029c610e2f565b005b6102b860048036038101906102b3919061159e565b610edc565b6040516102c89493929190611d45565b60405180910390f35b6102d9610fb4565b6040516102e69190611610565b60405180910390f35b61030960048036038101906103049190611d91565b610fba565b005b61032560048036038101906103209190611689565b6113ba565b60405161033291906115e6565b60405180910390f35b60066020528060005260406000206000915054906101000a900460ff1681565b600080600560003373ffffffffffffffffffffffffffffffffffffffff1673ffffffffffffffffffffffffffffffffffffffff1681526020019081526020016000208054806020026020016040519081016040528092919081815260200182805480156103e757602002820191906000526020600020905b8154815260200190600101908083116103d3575b50505050509050600081519050816001826104029190611e8f565b8151811061041357610412611ec3565b5b60200260200101519250505090565b600160009054906101000a900473ffffffffffffffffffffffffffffffffffffffff1673ffffffffffffffffffffffffffffffffffffffff163373ffffffffffffffffffffffffffffffffffffffff16146104b2576040517f08c379a00000000000000000000000000000000000000000000000000000000081526004016104a990611f3e565b60405180910390fd5b6001600760008373ffffffffffffffffffffffffffffffffffffffff1673ffffffffffffffffffffffffffffffffffffffff16815260200190815260200160002060006101000a81548160ff02191690831515021790555050565b60011515600960009054906101000a900460ff16151514610563576040517f08c379a000000000000000000000000000000000000000000000000000000000815260040161055a90611faa565b60405180910390fd5b60001515600760003373ffffffffffffffffffffffffffffffffffffffff1673ffffffffffffffffffffffffffffffffffffffff16815260200190815260200160002060009054906101000a900460ff161515146105f6576040517f08c379a00000000000000000000000000000000000000000000000000000000081526004016105ed90612016565b60405180910390fd5b6105fe6113da565b60005481600001818152505083838080601f016020809104026020016040519081016040528093929190818152602001838380828437600081840152601f19601f82011690508083019250505050505050816020018190525081816040018181525050338160c0019073ffffffffffffffffffffffffffffffffffffffff16908173ffffffffffffffffffffffffffffffffffffffff16815250508060026000805481526020019081526020016000206000820151816000015560208201518160010190816106cd9190612242565b506040820151816002015560608201518160030190805190602001906106f492919061142d565b50608082015181600401908051906020019061071192919061147a565b5060a082015181600501908051906020019061072e92919061142d565b5060c08201518160060160006101000a81548173ffffffffffffffffffffffffffffffffffffffff021916908373ffffffffffffffffffffffffffffffffffffffff1602179055509050506003600080548152602001908152602001600020339080600181540180825580915050600190039060005260206000200160009091909190916101000a81548173ffffffffffffffffffffffffffffffffffffffff021916908373ffffffffffffffffffffffffffffffffffffffff1602179055506008600080548152602001908152602001600020829080600181540180825580915050600190039060005260206000200160009091909190915055600560003373ffffffffffffffffffffffffffffffffffffffff1673ffffffffffffffffffffffffffffffffffffffff16815260200190815260200160002060005490806001815401808255809150506001900390600052602060002001600090919091909150557fe25e7cbd30846862937ea31dfcf58fb5d35ae9fed07c8dfdc8bcdd1441308c926000548585856040516108c89493929190612341565b60405180910390a16000808154809291906108e290612381565b919050555050505050565b60606003600083815260200190815260200160002080548060200260200160405190810160405280929190818152602001828054801561098257602002820191906000526020600020905b8160009054906101000a900473ffffffffffffffffffffffffffffffffffffffff1673ffffffffffffffffffffffffffffffffffffffff1681526020019060010190808311610938575b50505050509050919050565b60006060600060608060606000876103e71080156109ad575060005488105b6109ec576040517f08c379a00000000000000000000000000000000000000000000000000000000081526004016109e390612415565b60405180910390fd5b60011515600660008a815260200190815260200160002060009054906101000a900460ff16151514610a53576040517f08c379a0000000000000000000000000000000000000000000000000000000008152600401610a4a90612481565b60405180910390fd5b6000600260008a81526020019081526020016000206040518060e001604052908160008201548152602001600182018054610a8d90612065565b80601f0160208091040260200160405190810160405280929190818152602001828054610ab990612065565b8015610b065780601f10610adb57610100808354040283529160200191610b06565b820191906000526020600020905b815481529060010190602001808311610ae957829003601f168201915b505050505081526020016002820154815260200160038201805480602002602001604051908101604052809291908181526020018280548015610b6857602002820191906000526020600020905b815481526020019060010190808311610b54575b5050505050815260200160048201805480602002602001604051908101604052809291908181526020016000905b82821015610c42578382906000526020600020018054610bb590612065565b80601f0160208091040260200160405190810160405280929190818152602001828054610be190612065565b8015610c2e5780601f10610c0357610100808354040283529160200191610c2e565b820191906000526020600020905b815481529060010190602001808311610c1157829003601f168201915b505050505081526020019060010190610b96565b50505050815260200160058201805480602002602001604051908101604052809291908181526020018280548015610c9957602002820191906000526020600020905b815481526020019060010190808311610c85575b505050505081526020016006820160009054906101000a900473ffffffffffffffffffffffffffffffffffffffff1673ffffffffffffffffffffffffffffffffffffffff1673ffffffffffffffffffffffffffffffffffffffff16815250509050806000015181602001518260400151836060015184608001518560a001518660c00151975097509750975097509750975050919395979092949650565b606060086000838152602001908152602001600020805480602002602001604051908101604052809291908181526020018280548015610d9657602002820191906000526020600020905b815481526020019060010190808311610d82575b50505050509050919050565b600160009054906101000a900473ffffffffffffffffffffffffffffffffffffffff1681565b6004818051602081018201805184825260208301602085012081835280955050505050506000915054906101000a900460ff1681565b60056020528160005260406000208181548110610e1a57600080fd5b90600052602060002001600091509150505481565b600160009054906101000a900473ffffffffffffffffffffffffffffffffffffffff1673ffffffffffffffffffffffffffffffffffffffff163373ffffffffffffffffffffffffffffffffffffffff1614610ebf576040517f08c379a0000000000000000000000000000000000000000000000000000000008152600401610eb690611f3e565b60405180910390fd5b6000600960006101000a81548160ff021916908315150217905550565b6002602052806000526040600020600091509050806000015490806001018054610f0590612065565b80601f0160208091040260200160405190810160405280929190818152602001828054610f3190612065565b8015610f7e5780601f10610f5357610100808354040283529160200191610f7e565b820191906000526020600020905b815481529060010190602001808311610f6157829003601f168201915b5050505050908060020154908060060160009054906101000a900473ffffffffffffffffffffffffffffffffffffffff16905084565b60005481565b6002600089815260200190815260200160002060060160009054906101000a900473ffffffffffffffffffffffffffffffffffffffff1673ffffffffffffffffffffffffffffffffffffffff163373ffffffffffffffffffffffffffffffffffffffff161461105e576040517f08c379a000000000000000000000000000000000000000000000000000000000815260040161105590611f3e565b60405180910390fd5b60001515600760003373ffffffffffffffffffffffffffffffffffffffff1673ffffffffffffffffffffffffffffffffffffffff16815260200190815260200160002060009054906101000a900460ff161515146110f1576040517f08c379a00000000000000000000000000000000000000000000000000000000081526004016110e890612016565b60405180910390fd5b6002600089815260200190815260200160002060030185908060018154018082558091505060019003906000526020600020016000909190919091505560026000898152602001908152602001600020600501429080600181540180825580915050600190039060005260206000200160009091909190915055600260008981526020019081526020016000206004018484909180600181540180825580915050600190039060005260206000200160009091929091929091929091925091826111bc9291906124ac565b5085600260008a81526020019081526020016000206002018190555086600260008a815260200190815260200160002060060160006101000a81548173ffffffffffffffffffffffffffffffffffffffff021916908373ffffffffffffffffffffffffffffffffffffffff16021790555060036000898152602001908152602001600020879080600181540180825580915050600190039060005260206000200160009091909190916101000a81548173ffffffffffffffffffffffffffffffffffffffff021916908373ffffffffffffffffffffffffffffffffffffffff160217905550600860008981526020019081526020016000208690806001815401808255809150506001900390600052602060002001600090919091909150556001600660008a815260200190815260200160002060006101000a81548160ff02191690831515021790555060016004838360405161131b9291906125ac565b908152602001604051809103902060006101000a81548160ff0219169083151502179055507feccee9e6dbeeacbeb51c12daab94cba38c69e3fcc211b850f6ea7fde52451873886002600080548152602001908152602001600020600101600260008054815260200190815260200160002060020154888888426040516113a89796959493929190612649565b60405180910390a15050505050505050565b60076020528060005260406000206000915054906101000a900460ff1681565b6040518060e00160405280600081526020016060815260200160008152602001606081526020016060815260200160608152602001600073ffffffffffffffffffffffffffffffffffffffff1681525090565b828054828255906000526020600020908101928215611469579160200282015b8281111561146857825182559160200191906001019061144d565b5b50905061147691906114d3565b5090565b8280548282559060005260206000209081019282156114c2579160200282015b828111156114c15782518290816114b19190612242565b509160200191906001019061149a565b5b5090506114cf91906114f0565b5090565b5b808211156114ec5760008160009055506001016114d4565b5090565b5b8082111561151057600081816115079190611514565b506001016114f1565b5090565b50805461152090612065565b6000825580601f106115325750611551565b601f01602090049060005260206000209081019061155091906114d3565b5b50565b6000604051905090565b600080fd5b600080fd5b6000819050919050565b61157b81611568565b811461158657600080fd5b50565b60008135905061159881611572565b92915050565b6000602082840312156115b4576115b361155e565b5b60006115c284828501611589565b91505092915050565b60008115159050919050565b6115e0816115cb565b82525050565b60006020820190506115fb60008301846115d7565b92915050565b61160a81611568565b82525050565b60006020820190506116256000830184611601565b92915050565b600073ffffffffffffffffffffffffffffffffffffffff82169050919050565b60006116568261162b565b9050919050565b6116668161164b565b811461167157600080fd5b50565b6000813590506116838161165d565b92915050565b60006020828403121561169f5761169e61155e565b5b60006116ad84828501611674565b91505092915050565b600080fd5b600080fd5b600080fd5b60008083601f8401126116db576116da6116b6565b5b8235905067ffffffffffffffff8111156116f8576116f76116bb565b5b602083019150836001820283011115611714576117136116c0565b5b9250929050565b6000806000604084860312156117345761173361155e565b5b600084013567ffffffffffffffff81111561175257611751611563565b5b61175e868287016116c5565b9350935050602061177186828701611589565b9150509250925092565b600081519050919050565b600082825260208201905092915050565b6000819050602082019050919050565b6117b08161164b565b82525050565b60006117c283836117a7565b60208301905092915050565b6000602082019050919050565b60006117e68261177b565b6117f08185611786565b93506117fb83611797565b8060005b8381101561182c57815161181388826117b6565b975061181e836117ce565b9250506001810190506117ff565b5085935050505092915050565b6000602082019050818103600083015261185381846117db565b905092915050565b600081519050919050565b600082825260208201905092915050565b60005b8381101561189557808201518184015260208101905061187a565b60008484015250505050565b6000601f19601f8301169050919050565b60006118bd8261185b565b6118c78185611866565b93506118d7818560208601611877565b6118e0816118a1565b840191505092915050565b600081519050919050565b600082825260208201905092915050565b6000819050602082019050919050565b61192081611568565b82525050565b60006119328383611917565b60208301905092915050565b6000602082019050919050565b6000611956826118eb565b61196081856118f6565b935061196b83611907565b8060005b8381101561199c5781516119838882611926565b975061198e8361193e565b92505060018101905061196f565b5085935050505092915050565b600081519050919050565b600082825260208201905092915050565b6000819050602082019050919050565b600082825260208201905092915050565b60006119f18261185b565b6119fb81856119d5565b9350611a0b818560208601611877565b611a14816118a1565b840191505092915050565b6000611a2b83836119e6565b905092915050565b6000602082019050919050565b6000611a4b826119a9565b611a5581856119b4565b935083602082028501611a67856119c5565b8060005b85811015611aa35784840389528151611a848582611a1f565b9450611a8f83611a33565b925060208a01995050600181019050611a6b565b50829750879550505050505092915050565b611abe8161164b565b82525050565b600060e082019050611ad9600083018a611601565b8181036020830152611aeb81896118b2565b9050611afa6040830188611601565b8181036060830152611b0c818761194b565b90508181036080830152611b208186611a40565b905081810360a0830152611b34818561194b565b9050611b4360c0830184611ab5565b98975050505050505050565b60006020820190508181036000830152611b69818461194b565b905092915050565b6000602082019050611b866000830184611ab5565b92915050565b600080fd5b7f4e487b7100000000000000000000000000000000000000000000000000000000600052604160045260246000fd5b611bc9826118a1565b810181811067ffffffffffffffff82111715611be857611be7611b91565b5b80604052505050565b6000611bfb611554565b9050611c078282611bc0565b919050565b600067ffffffffffffffff821115611c2757611c26611b91565b5b611c30826118a1565b9050602081019050919050565b82818337600083830152505050565b6000611c5f611c5a84611c0c565b611bf1565b905082815260208101848484011115611c7b57611c7a611b8c565b5b611c86848285611c3d565b509392505050565b600082601f830112611ca357611ca26116b6565b5b8135611cb3848260208601611c4c565b91505092915050565b600060208284031215611cd257611cd161155e565b5b600082013567ffffffffffffffff811115611cf057611cef611563565b5b611cfc84828501611c8e565b91505092915050565b60008060408385031215611d1c57611d1b61155e565b5b6000611d2a85828601611674565b9250506020611d3b85828601611589565b9150509250929050565b6000608082019050611d5a6000830187611601565b8181036020830152611d6c81866118b2565b9050611d7b6040830185611601565b611d886060830184611ab5565b95945050505050565b60008060008060008060008060c0898b031215611db157611db061155e565b5b6000611dbf8b828c01611589565b9850506020611dd08b828c01611674565b9750506040611de18b828c01611589565b9650506060611df28b828c01611589565b955050608089013567ffffffffffffffff811115611e1357611e12611563565b5b611e1f8b828c016116c5565b945094505060a089013567ffffffffffffffff811115611e4257611e41611563565b5b611e4e8b828c016116c5565b92509250509295985092959890939650565b7f4e487b7100000000000000000000000000000000000000000000000000000000600052601160045260246000fd5b6000611e9a82611568565b9150611ea583611568565b9250828203905081811115611ebd57611ebc611e60565b5b92915050565b7f4e487b7100000000000000000000000000000000000000000000000000000000600052603260045260246000fd5b7f4e6f744f776e6572000000000000000000000000000000000000000000000000600082015250565b6000611f28600883611866565b9150611f3382611ef2565b602082019050919050565b60006020820190508181036000830152611f5781611f1b565b9050919050565b7f5061757365640000000000000000000000000000000000000000000000000000600082015250565b6000611f94600683611866565b9150611f9f82611f5e565b602082019050919050565b60006020820190508181036000830152611fc381611f87565b9050919050565b7f426c6f636b656400000000000000000000000000000000000000000000000000600082015250565b6000612000600783611866565b915061200b82611fca565b602082019050919050565b6000602082019050818103600083015261202f81611ff3565b9050919050565b7f4e487b7100000000000000000000000000000000000000000000000000000000600052602260045260246000fd5b6000600282049050600182168061207d57607f821691505b6020821081036120905761208f612036565b5b50919050565b60008190508160005260206000209050919050565b60006020601f8301049050919050565b600082821b905092915050565b6000600883026120f87fffffffffffffffffffffffffffffffffffffffffffffffffffffffffffffffff826120bb565b61210286836120bb565b95508019841693508086168417925050509392505050565b6000819050919050565b600061213f61213a61213584611568565b61211a565b611568565b9050919050565b6000819050919050565b61215983612124565b61216d61216582612146565b8484546120c8565b825550505050565b600090565b612182612175565b61218d818484612150565b505050565b5b818110156121b1576121a660008261217a565b600181019050612193565b5050565b601f8211156121f6576121c781612096565b6121d0846120ab565b810160208510156121df578190505b6121f36121eb856120ab565b830182612192565b50505b505050565b600082821c905092915050565b6000612219600019846008026121fb565b1980831691505092915050565b60006122328383612208565b9150826002028217905092915050565b61224b8261185b565b67ffffffffffffffff81111561226457612263611b91565b5b61226e8254612065565b6122798282856121b5565b600060209050601f8311600181146122ac576000841561229a578287015190505b6122a48582612226565b86555061230c565b601f1984166122ba86612096565b60005b828110156122e2578489015182556001820191506020850194506020810190506122bd565b868310156122ff57848901516122fb601f891682612208565b8355505b6001600288020188555050505b505050505050565b60006123208385611866565b935061232d838584611c3d565b612336836118a1565b840190509392505050565b60006060820190506123566000830187611601565b8181036020830152612369818587612314565b90506123786040830184611601565b95945050505050565b600061238c82611568565b91507fffffffffffffffffffffffffffffffffffffffffffffffffffffffffffffffff82036123be576123bd611e60565b5b600182019050919050565b7f496e76616c69642070726f647563742049440000000000000000000000000000600082015250565b60006123ff601283611866565b915061240a826123c9565b602082019050919050565b6000602082019050818103600083015261242e816123f2565b9050919050565b7f50726f64756374206e6f742053656c6c00000000000000000000000000000000600082015250565b600061246b601083611866565b915061247682612435565b602082019050919050565b6000602082019050818103600083015261249a8161245e565b9050919050565b600082905092915050565b6124b683836124a1565b67ffffffffffffffff8111156124cf576124ce611b91565b5b6124d98254612065565b6124e48282856121b5565b6000601f8311600181146125135760008415612501578287013590505b61250b8582612226565b865550612573565b601f19841661252186612096565b60005b8281101561254957848901358255600182019150602085019450602081019050612524565b868310156125665784890135612562601f891682612208565b8355505b6001600288020188555050505b50505050505050565b600081905092915050565b6000612593838561257c565b93506125a0838584611c3d565b82840190509392505050565b60006125b9828486612587565b91508190509392505050565b600081546125d281612065565b6125dc8186611866565b945060018216600081146125f7576001811461260d57612640565b60ff198316865281151560200286019350612640565b61261685612096565b60005b8381101561263857815481890152600182019150602081019050612619565b808801955050505b50505092915050565b600060c08201905061265e600083018a611601565b818103602083015261267081896125c5565b905061267f6040830188611601565b61268c6060830187611601565b818103608083015261269f818587612314565b90506126ae60a0830184611601565b9897505050505050505056fea2646970667358221220c61b6b14cfd855c463a43bd5665b5806bc2ba22a553c24c04d18dbec1fd759b964736f6c63430008120033",
  "linkReferences": {},
  "deployedLinkReferences": {}
}