{
  "_format": "hh-sol-artifact-1",
  "contractName": "SupplyChain",
  "sourceName": "contracts/SupplyChain.sol",
  "abi": [
    {
      "inputs": [],
      "stateMutability": "nonpayable",
      "type": "constructor"
    },
    {
      "anonymous": false,
      "inputs": [
        {
          "indexed": false,
          "internalType": "uint256",
          "name": "_id",
          "type": "uint256"
        },
        {
          "indexed": false,
          "internalType": "string",
          "name": "name",
          "type": "string"
        },
        {
          "indexed": false,
          "internalType": "uint256",
          "name": "quantity",
          "type": "uint256"
        }
      ],
      "name": "ProductAssign",
      "type": "event"
    },
    {
      "anonymous": false,
      "inputs": [
        {
          "indexed": false,
          "internalType": "uint256",
          "name": "id",
          "type": "uint256"
        },
        {
          "indexed": false,
          "internalType": "string",
          "name": "name",
          "type": "string"
        },
        {
          "indexed": false,
          "internalType": "uint256",
          "name": "quantity",
          "type": "uint256"
        },
        {
          "indexed": false,
          "internalType": "uint256",
          "name": "price",
          "type": "uint256"
        },
        {
          "indexed": false,
          "internalType": "string",
          "name": "location",
          "type": "string"
        },
        {
          "indexed": false,
          "internalType": "uint256",
          "name": "time",
          "type": "uint256"
        }
      ],
      "name": "ProductSell",
      "type": "event"
    },
    {
      "inputs": [
        {
          "internalType": "uint256",
          "name": "",
          "type": "uint256"
        }
      ],
      "name": "IdTOProduct",
      "outputs": [
        {
          "internalType": "uint256",
          "name": "productID",
          "type": "uint256"
        },
        {
          "internalType": "string",
          "name": "productName",
          "type": "string"
        },
        {
          "internalType": "uint256",
          "name": "productQuantity",
          "type": "uint256"
        },
        {
          "internalType": "address",
          "name": "productOwner",
          "type": "address"
        }
      ],
      "stateMutability": "view",
      "type": "function"
    },
    {
      "inputs": [
        {
          "internalType": "address",
          "name": "",
          "type": "address"
        },
        {
          "internalType": "uint256",
          "name": "",
          "type": "uint256"
        }
      ],
      "name": "UserProductList",
      "outputs": [
        {
          "internalType": "uint256",
          "name": "",
          "type": "uint256"
        }
      ],
      "stateMutability": "view",
      "type": "function"
    },
    {
      "inputs": [
        {
          "internalType": "string",
          "name": "name",
          "type": "string"
        },
        {
          "internalType": "uint256",
          "name": "quantity",
          "type": "uint256"
        }
      ],
      "name": "assignProduct",
      "outputs": [],
      "stateMutability": "nonpayable",
      "type": "function"
    },
    {
      "inputs": [],
      "name": "deriveLastId",
      "outputs": [
        {
          "internalType": "uint256",
          "name": "",
          "type": "uint256"
        }
      ],
      "stateMutability": "view",
      "type": "function"
    },
    {
      "inputs": [
        {
          "internalType": "uint256",
          "name": "_id",
          "type": "uint256"
        }
      ],
      "name": "getProductDetails",
      "outputs": [
        {
          "internalType": "uint256",
          "name": "productID",
          "type": "uint256"
        },
        {
          "internalType": "string",
          "name": "productName",
          "type": "string"
        },
        {
          "internalType": "uint256",
          "name": "productQuantity",
          "type": "uint256"
        },
        {
          "internalType": "uint256[]",
          "name": "productPrice",
          "type": "uint256[]"
        },
        {
          "internalType": "string[]",
          "name": "productLocation",
          "type": "string[]"
        },
        {
          "internalType": "uint256[]",
          "name": "productTimestamp",
          "type": "uint256[]"
        },
        {
          "internalType": "address",
          "name": "productOwner",
          "type": "address"
        }
      ],
      "stateMutability": "view",
      "type": "function"
    },
    {
      "inputs": [],
      "name": "id",
      "outputs": [
        {
          "internalType": "uint256",
          "name": "",
          "type": "uint256"
        }
      ],
      "stateMutability": "view",
      "type": "function"
    },
    {
      "inputs": [],
      "name": "owner",
      "outputs": [
        {
          "internalType": "address",
          "name": "",
          "type": "address"
        }
      ],
      "stateMutability": "view",
      "type": "function"
    },
    {
      "inputs": [
        {
          "internalType": "uint256",
          "name": "_id",
          "type": "uint256"
        }
      ],
      "name": "ownerHistory",
      "outputs": [
        {
          "internalType": "address[]",
          "name": "",
          "type": "address[]"
        }
      ],
      "stateMutability": "view",
      "type": "function"
    },
    {
      "inputs": [
        {
          "internalType": "string",
          "name": "",
          "type": "string"
        }
      ],
      "name": "pdfHash",
      "outputs": [
        {
          "internalType": "bool",
          "name": "",
          "type": "bool"
        }
      ],
      "stateMutability": "view",
      "type": "function"
    },
    {
      "inputs": [
        {
          "internalType": "uint256",
          "name": "_id",
          "type": "uint256"
        },
        {
          "internalType": "address",
          "name": "_buyer",
          "type": "address"
        },
        {
          "internalType": "uint256",
          "name": "_quantity",
          "type": "uint256"
        },
        {
          "internalType": "uint256",
          "name": "_price",
          "type": "uint256"
        },
        {
          "internalType": "string",
          "name": "location",
          "type": "string"
        },
        {
          "internalType": "string",
          "name": "_hash",
          "type": "string"
        }
      ],
      "name": "sellProduct",
      "outputs": [],
      "stateMutability": "nonpayable",
      "type": "function"
    }
  ],
  "bytecode": "0x608060405234801561001057600080fd5b5033600160006101000a81548173ffffffffffffffffffffffffffffffffffffffff021916908373ffffffffffffffffffffffffffffffffffffffff1602179055506103e8600081905550611f7b8061006a6000396000f3fe608060405234801561001057600080fd5b506004361061009e5760003560e01c806392464dfc1161006657806392464dfc1461016157806396dc690f14610191578063a8c141b9146101c1578063af640d0f146101f4578063cc373b3c146102125761009e565b80633a7e8e36146100a35780633f6b6a7c146100c1578063461fc090146100dd5780636813b53b1461010d5780638da5cb5b14610143575b600080fd5b6100ab61022e565b6040516100b89190610f8b565b60405180910390f35b6100db60048036038101906100d6919061104b565b6102f5565b005b6100f760048036038101906100f291906110ab565b6105b1565b60405161010491906111c8565b60405180910390f35b610127600480360381019061012291906110ab565b610652565b60405161013a9796959493929190611453565b60405180910390f35b61014b610986565b60405161015891906114de565b60405180910390f35b61017b60048036038101906101769190611629565b6109ac565b604051610188919061168d565b60405180910390f35b6101ab60048036038101906101a691906116d4565b6109e2565b6040516101b89190610f8b565b60405180910390f35b6101db60048036038101906101d691906110ab565b610a13565b6040516101eb9493929190611714565b60405180910390f35b6101fc610aeb565b6040516102099190610f8b565b60405180910390f35b61022c60048036038101906102279190611760565b610af1565b005b600080600560003373ffffffffffffffffffffffffffffffffffffffff1673ffffffffffffffffffffffffffffffffffffffff1681526020019081526020016000208054806020026020016040519081016040528092919081815260200182805480156102ba57602002820191906000526020600020905b8154815260200190600101908083116102a6575b50505050509050600081519050816001826102d5919061185e565b815181106102e6576102e5611892565b5b60200260200101519250505090565b6102fd610df8565b60005481600001818152505083838080601f016020809104026020016040519081016040528093929190818152602001838380828437600081840152601f19601f82011690508083019250505050505050816020018190525081816040018181525050338160c0019073ffffffffffffffffffffffffffffffffffffffff16908173ffffffffffffffffffffffffffffffffffffffff16815250508060026000805481526020019081526020016000206000820151816000015560208201518160010190816103cc9190611acd565b506040820151816002015560608201518160030190805190602001906103f3929190610e4b565b506080820151816004019080519060200190610410929190610e98565b5060a082015181600501908051906020019061042d929190610e4b565b5060c08201518160060160006101000a81548173ffffffffffffffffffffffffffffffffffffffff021916908373ffffffffffffffffffffffffffffffffffffffff1602179055509050506003600080548152602001908152602001600020339080600181540180825580915050600190039060005260206000200160009091909190916101000a81548173ffffffffffffffffffffffffffffffffffffffff021916908373ffffffffffffffffffffffffffffffffffffffff160217905550600560003373ffffffffffffffffffffffffffffffffffffffff1673ffffffffffffffffffffffffffffffffffffffff16815260200190815260200160002060005490806001815401808255809150506001900390600052602060002001600090919091909150557fe25e7cbd30846862937ea31dfcf58fb5d35ae9fed07c8dfdc8bcdd1441308c9260005485858560405161058c9493929190611bcc565b60405180910390a16000808154809291906105a690611c0c565b919050555050505050565b60606003600083815260200190815260200160002080548060200260200160405190810160405280929190818152602001828054801561064657602002820191906000526020600020905b8160009054906101000a900473ffffffffffffffffffffffffffffffffffffffff1673ffffffffffffffffffffffffffffffffffffffff16815260200190600101908083116105fc575b50505050509050919050565b60006060600060608060606000805488106106a2576040517f08c379a000000000000000000000000000000000000000000000000000000000815260040161069990611ca0565b60405180910390fd5b6000600260008a81526020019081526020016000206040518060e0016040529081600082015481526020016001820180546106dc906118f0565b80601f0160208091040260200160405190810160405280929190818152602001828054610708906118f0565b80156107555780601f1061072a57610100808354040283529160200191610755565b820191906000526020600020905b81548152906001019060200180831161073857829003601f168201915b5050505050815260200160028201548152602001600382018054806020026020016040519081016040528092919081815260200182805480156107b757602002820191906000526020600020905b8154815260200190600101908083116107a3575b5050505050815260200160048201805480602002602001604051908101604052809291908181526020016000905b82821015610891578382906000526020600020018054610804906118f0565b80601f0160208091040260200160405190810160405280929190818152602001828054610830906118f0565b801561087d5780601f106108525761010080835404028352916020019161087d565b820191906000526020600020905b81548152906001019060200180831161086057829003601f168201915b5050505050815260200190600101906107e5565b505050508152602001600582018054806020026020016040519081016040528092919081815260200182805480156108e857602002820191906000526020600020905b8154815260200190600101908083116108d4575b505050505081526020016006820160009054906101000a900473ffffffffffffffffffffffffffffffffffffffff1673ffffffffffffffffffffffffffffffffffffffff1673ffffffffffffffffffffffffffffffffffffffff16815250509050806000015181602001518260400151836060015184608001518560a001518660c00151975097509750975097509750975050919395979092949650565b600160009054906101000a900473ffffffffffffffffffffffffffffffffffffffff1681565b6004818051602081018201805184825260208301602085012081835280955050505050506000915054906101000a900460ff1681565b600560205281600052604060002081815481106109fe57600080fd5b90600052602060002001600091509150505481565b6002602052806000526040600020600091509050806000015490806001018054610a3c906118f0565b80601f0160208091040260200160405190810160405280929190818152602001828054610a68906118f0565b8015610ab55780601f10610a8a57610100808354040283529160200191610ab5565b820191906000526020600020905b815481529060010190602001808311610a9857829003601f168201915b5050505050908060020154908060060160009054906101000a900473ffffffffffffffffffffffffffffffffffffffff16905084565b60005481565b6002600089815260200190815260200160002060060160009054906101000a900473ffffffffffffffffffffffffffffffffffffffff1673ffffffffffffffffffffffffffffffffffffffff163373ffffffffffffffffffffffffffffffffffffffff1614610b95576040517f08c379a0000000000000000000000000000000000000000000000000000000008152600401610b8c90611d0c565b60405180910390fd5b600260008981526020019081526020016000206003018590806001815401808255809150506001900390600052602060002001600090919091909150556002600089815260200190815260200160002060050142908060018154018082558091505060019003906000526020600020016000909190919091505560026000898152602001908152602001600020600401848490918060018154018082558091505060019003906000526020600020016000909192909192909192909192509182610c60929190611d37565b5085600260008a81526020019081526020016000206002018190555086600260008a815260200190815260200160002060060160006101000a81548173ffffffffffffffffffffffffffffffffffffffff021916908373ffffffffffffffffffffffffffffffffffffffff16021790555060036000898152602001908152602001600020879080600181540180825580915050600190039060005260206000200160009091909190916101000a81548173ffffffffffffffffffffffffffffffffffffffff021916908373ffffffffffffffffffffffffffffffffffffffff160217905550600160048383604051610d59929190611e37565b908152602001604051809103902060006101000a81548160ff0219169083151502179055507feccee9e6dbeeacbeb51c12daab94cba38c69e3fcc211b850f6ea7fde5245187388600260008054815260200190815260200160002060010160026000805481526020019081526020016000206002015488888842604051610de69796959493929190611ed4565b60405180910390a15050505050505050565b6040518060e00160405280600081526020016060815260200160008152602001606081526020016060815260200160608152602001600073ffffffffffffffffffffffffffffffffffffffff1681525090565b828054828255906000526020600020908101928215610e87579160200282015b82811115610e86578251825591602001919060010190610e6b565b5b509050610e949190610ef1565b5090565b828054828255906000526020600020908101928215610ee0579160200282015b82811115610edf578251829081610ecf9190611acd565b5091602001919060010190610eb8565b5b509050610eed9190610f0e565b5090565b5b80821115610f0a576000816000905550600101610ef2565b5090565b5b80821115610f2e5760008181610f259190610f32565b50600101610f0f565b5090565b508054610f3e906118f0565b6000825580601f10610f505750610f6f565b601f016020900490600052602060002090810190610f6e9190610ef1565b5b50565b6000819050919050565b610f8581610f72565b82525050565b6000602082019050610fa06000830184610f7c565b92915050565b6000604051905090565b600080fd5b600080fd5b600080fd5b600080fd5b600080fd5b60008083601f840112610fdf57610fde610fba565b5b8235905067ffffffffffffffff811115610ffc57610ffb610fbf565b5b60208301915083600182028301111561101857611017610fc4565b5b9250929050565b61102881610f72565b811461103357600080fd5b50565b6000813590506110458161101f565b92915050565b60008060006040848603121561106457611063610fb0565b5b600084013567ffffffffffffffff81111561108257611081610fb5565b5b61108e86828701610fc9565b935093505060206110a186828701611036565b9150509250925092565b6000602082840312156110c1576110c0610fb0565b5b60006110cf84828501611036565b91505092915050565b600081519050919050565b600082825260208201905092915050565b6000819050602082019050919050565b600073ffffffffffffffffffffffffffffffffffffffff82169050919050565b600061112f82611104565b9050919050565b61113f81611124565b82525050565b60006111518383611136565b60208301905092915050565b6000602082019050919050565b6000611175826110d8565b61117f81856110e3565b935061118a836110f4565b8060005b838110156111bb5781516111a28882611145565b97506111ad8361115d565b92505060018101905061118e565b5085935050505092915050565b600060208201905081810360008301526111e2818461116a565b905092915050565b600081519050919050565b600082825260208201905092915050565b60005b83811015611224578082015181840152602081019050611209565b60008484015250505050565b6000601f19601f8301169050919050565b600061124c826111ea565b61125681856111f5565b9350611266818560208601611206565b61126f81611230565b840191505092915050565b600081519050919050565b600082825260208201905092915050565b6000819050602082019050919050565b6112af81610f72565b82525050565b60006112c183836112a6565b60208301905092915050565b6000602082019050919050565b60006112e58261127a565b6112ef8185611285565b93506112fa83611296565b8060005b8381101561132b57815161131288826112b5565b975061131d836112cd565b9250506001810190506112fe565b5085935050505092915050565b600081519050919050565b600082825260208201905092915050565b6000819050602082019050919050565b600082825260208201905092915050565b6000611380826111ea565b61138a8185611364565b935061139a818560208601611206565b6113a381611230565b840191505092915050565b60006113ba8383611375565b905092915050565b6000602082019050919050565b60006113da82611338565b6113e48185611343565b9350836020820285016113f685611354565b8060005b85811015611432578484038952815161141385826113ae565b945061141e836113c2565b925060208a019950506001810190506113fa565b50829750879550505050505092915050565b61144d81611124565b82525050565b600060e082019050611468600083018a610f7c565b818103602083015261147a8189611241565b90506114896040830188610f7c565b818103606083015261149b81876112da565b905081810360808301526114af81866113cf565b905081810360a08301526114c381856112da565b90506114d260c0830184611444565b98975050505050505050565b60006020820190506114f36000830184611444565b92915050565b600080fd5b7f4e487b7100000000000000000000000000000000000000000000000000000000600052604160045260246000fd5b61153682611230565b810181811067ffffffffffffffff82111715611555576115546114fe565b5b80604052505050565b6000611568610fa6565b9050611574828261152d565b919050565b600067ffffffffffffffff821115611594576115936114fe565b5b61159d82611230565b9050602081019050919050565b82818337600083830152505050565b60006115cc6115c784611579565b61155e565b9050828152602081018484840111156115e8576115e76114f9565b5b6115f38482856115aa565b509392505050565b600082601f8301126116105761160f610fba565b5b81356116208482602086016115b9565b91505092915050565b60006020828403121561163f5761163e610fb0565b5b600082013567ffffffffffffffff81111561165d5761165c610fb5565b5b611669848285016115fb565b91505092915050565b60008115159050919050565b61168781611672565b82525050565b60006020820190506116a2600083018461167e565b92915050565b6116b181611124565b81146116bc57600080fd5b50565b6000813590506116ce816116a8565b92915050565b600080604083850312156116eb576116ea610fb0565b5b60006116f9858286016116bf565b925050602061170a85828601611036565b9150509250929050565b60006080820190506117296000830187610f7c565b818103602083015261173b8186611241565b905061174a6040830185610f7c565b6117576060830184611444565b95945050505050565b60008060008060008060008060c0898b0312156117805761177f610fb0565b5b600061178e8b828c01611036565b985050602061179f8b828c016116bf565b97505060406117b08b828c01611036565b96505060606117c18b828c01611036565b955050608089013567ffffffffffffffff8111156117e2576117e1610fb5565b5b6117ee8b828c01610fc9565b945094505060a089013567ffffffffffffffff81111561181157611810610fb5565b5b61181d8b828c01610fc9565b92509250509295985092959890939650565b7f4e487b7100000000000000000000000000000000000000000000000000000000600052601160045260246000fd5b600061186982610f72565b915061187483610f72565b925082820390508181111561188c5761188b61182f565b5b92915050565b7f4e487b7100000000000000000000000000000000000000000000000000000000600052603260045260246000fd5b7f4e487b7100000000000000000000000000000000000000000000000000000000600052602260045260246000fd5b6000600282049050600182168061190857607f821691505b60208210810361191b5761191a6118c1565b5b50919050565b60008190508160005260206000209050919050565b60006020601f8301049050919050565b600082821b905092915050565b6000600883026119837fffffffffffffffffffffffffffffffffffffffffffffffffffffffffffffffff82611946565b61198d8683611946565b95508019841693508086168417925050509392505050565b6000819050919050565b60006119ca6119c56119c084610f72565b6119a5565b610f72565b9050919050565b6000819050919050565b6119e4836119af565b6119f86119f0826119d1565b848454611953565b825550505050565b600090565b611a0d611a00565b611a188184846119db565b505050565b5b81811015611a3c57611a31600082611a05565b600181019050611a1e565b5050565b601f821115611a8157611a5281611921565b611a5b84611936565b81016020851015611a6a578190505b611a7e611a7685611936565b830182611a1d565b50505b505050565b600082821c905092915050565b6000611aa460001984600802611a86565b1980831691505092915050565b6000611abd8383611a93565b9150826002028217905092915050565b611ad6826111ea565b67ffffffffffffffff811115611aef57611aee6114fe565b5b611af982546118f0565b611b04828285611a40565b600060209050601f831160018114611b375760008415611b25578287015190505b611b2f8582611ab1565b865550611b97565b601f198416611b4586611921565b60005b82811015611b6d57848901518255600182019150602085019450602081019050611b48565b86831015611b8a5784890151611b86601f891682611a93565b8355505b6001600288020188555050505b505050505050565b6000611bab83856111f5565b9350611bb88385846115aa565b611bc183611230565b840190509392505050565b6000606082019050611be16000830187610f7c565b8181036020830152611bf4818587611b9f565b9050611c036040830184610f7c565b95945050505050565b6000611c1782610f72565b91507fffffffffffffffffffffffffffffffffffffffffffffffffffffffffffffffff8203611c4957611c4861182f565b5b600182019050919050565b7f496e76616c69642070726f647563742049440000000000000000000000000000600082015250565b6000611c8a6012836111f5565b9150611c9582611c54565b602082019050919050565b60006020820190508181036000830152611cb981611c7d565b9050919050565b7f4e6f744f776e6572000000000000000000000000000000000000000000000000600082015250565b6000611cf66008836111f5565b9150611d0182611cc0565b602082019050919050565b60006020820190508181036000830152611d2581611ce9565b9050919050565b600082905092915050565b611d418383611d2c565b67ffffffffffffffff811115611d5a57611d596114fe565b5b611d6482546118f0565b611d6f828285611a40565b6000601f831160018114611d9e5760008415611d8c578287013590505b611d968582611ab1565b865550611dfe565b601f198416611dac86611921565b60005b82811015611dd457848901358255600182019150602085019450602081019050611daf565b86831015611df15784890135611ded601f891682611a93565b8355505b6001600288020188555050505b50505050505050565b600081905092915050565b6000611e1e8385611e07565b9350611e2b8385846115aa565b82840190509392505050565b6000611e44828486611e12565b91508190509392505050565b60008154611e5d816118f0565b611e6781866111f5565b94506001821660008114611e825760018114611e9857611ecb565b60ff198316865281151560200286019350611ecb565b611ea185611921565b60005b83811015611ec357815481890152600182019150602081019050611ea4565b808801955050505b50505092915050565b600060c082019050611ee9600083018a610f7c565b8181036020830152611efb8189611e50565b9050611f0a6040830188610f7c565b611f176060830187610f7c565b8181036080830152611f2a818587611b9f565b9050611f3960a0830184610f7c565b9897505050505050505056fea2646970667358221220cdce64c0fd45edd1ff75a760151ea8ac3c9a2b8b6097cda445d9767b1b3be02f64736f6c63430008120033",
  "linkReferences": {},
  "deployedLinkReferences": {}
}