{
  "_format": "hh-sol-artifact-1",
  "contractName": "SupplyChain",
  "sourceName": "contracts/SupplyChain.sol",
  "abi": [
    {
      "inputs": [],
      "stateMutability": "nonpayable",
      "type": "constructor"
    },
    {
      "anonymous": false,
      "inputs": [
        {
          "indexed": false,
          "internalType": "uint256",
          "name": "_id",
          "type": "uint256"
        },
        {
          "indexed": false,
          "internalType": "string",
          "name": "name",
          "type": "string"
        },
        {
          "indexed": false,
          "internalType": "uint256",
          "name": "quantity",
          "type": "uint256"
        }
      ],
      "name": "ProductAssign",
      "type": "event"
    },
    {
      "anonymous": false,
      "inputs": [
        {
          "indexed": false,
          "internalType": "uint256",
          "name": "id",
          "type": "uint256"
        },
        {
          "indexed": false,
          "internalType": "string",
          "name": "name",
          "type": "string"
        },
        {
          "indexed": false,
          "internalType": "uint256",
          "name": "quantity",
          "type": "uint256"
        },
        {
          "indexed": false,
          "internalType": "uint256",
          "name": "price",
          "type": "uint256"
        },
        {
          "indexed": false,
          "internalType": "string",
          "name": "location",
          "type": "string"
        },
        {
          "indexed": false,
          "internalType": "uint256",
          "name": "time",
          "type": "uint256"
        }
      ],
      "name": "ProductSell",
      "type": "event"
    },
    {
      "inputs": [
        {
          "internalType": "uint256",
          "name": "",
          "type": "uint256"
        }
      ],
      "name": "IdTOProduct",
      "outputs": [
        {
          "internalType": "uint256",
          "name": "productID",
          "type": "uint256"
        },
        {
          "internalType": "string",
          "name": "productName",
          "type": "string"
        },
        {
          "internalType": "uint256",
          "name": "productQuantity",
          "type": "uint256"
        },
        {
          "internalType": "address",
          "name": "productOwner",
          "type": "address"
        }
      ],
      "stateMutability": "view",
      "type": "function"
    },
    {
      "inputs": [
        {
          "internalType": "string",
          "name": "name",
          "type": "string"
        },
        {
          "internalType": "uint256",
          "name": "quantity",
          "type": "uint256"
        }
      ],
      "name": "assignProduct",
      "outputs": [],
      "stateMutability": "nonpayable",
      "type": "function"
    },
    {
      "inputs": [
        {
          "internalType": "uint256",
          "name": "_id",
          "type": "uint256"
        }
      ],
      "name": "getProductDetails",
      "outputs": [
        {
          "internalType": "uint256",
          "name": "productID",
          "type": "uint256"
        },
        {
          "internalType": "string",
          "name": "productName",
          "type": "string"
        },
        {
          "internalType": "uint256",
          "name": "productQuantity",
          "type": "uint256"
        },
        {
          "internalType": "uint256[]",
          "name": "productPrice",
          "type": "uint256[]"
        },
        {
          "internalType": "string[]",
          "name": "productLocation",
          "type": "string[]"
        },
        {
          "internalType": "uint256[]",
          "name": "productTimestamp",
          "type": "uint256[]"
        },
        {
          "internalType": "address",
          "name": "productOwner",
          "type": "address"
        }
      ],
      "stateMutability": "view",
      "type": "function"
    },
    {
      "inputs": [],
      "name": "id",
      "outputs": [
        {
          "internalType": "uint256",
          "name": "",
          "type": "uint256"
        }
      ],
      "stateMutability": "view",
      "type": "function"
    },
    {
      "inputs": [],
      "name": "owner",
      "outputs": [
        {
          "internalType": "address",
          "name": "",
          "type": "address"
        }
      ],
      "stateMutability": "view",
      "type": "function"
    },
    {
      "inputs": [
        {
          "internalType": "uint256",
          "name": "_id",
          "type": "uint256"
        }
      ],
      "name": "ownerHistory",
      "outputs": [
        {
          "internalType": "address[]",
          "name": "",
          "type": "address[]"
        }
      ],
      "stateMutability": "view",
      "type": "function"
    },
    {
      "inputs": [
        {
          "internalType": "string",
          "name": "",
          "type": "string"
        }
      ],
      "name": "pdfHash",
      "outputs": [
        {
          "internalType": "bool",
          "name": "",
          "type": "bool"
        }
      ],
      "stateMutability": "view",
      "type": "function"
    },
    {
      "inputs": [
        {
          "internalType": "uint256",
          "name": "_id",
          "type": "uint256"
        },
        {
          "internalType": "address",
          "name": "_buyer",
          "type": "address"
        },
        {
          "internalType": "uint256",
          "name": "_price",
          "type": "uint256"
        },
        {
          "internalType": "string",
          "name": "location",
          "type": "string"
        },
        {
          "internalType": "string",
          "name": "_hash",
          "type": "string"
        }
      ],
      "name": "sellProduct",
      "outputs": [],
      "stateMutability": "nonpayable",
      "type": "function"
    }
  ],
  "bytecode": "0x608060405234801561001057600080fd5b5033600160006101000a81548173ffffffffffffffffffffffffffffffffffffffff021916908373ffffffffffffffffffffffffffffffffffffffff1602179055506103e8600081905550611ce58061006a6000396000f3fe608060405234801561001057600080fd5b50600436106100885760003560e01c80638da5cb5b1161005b5780638da5cb5b1461012b57806392464dfc14610149578063a8c141b914610179578063af640d0f146101ac57610088565b806336351b331461008d5780633f6b6a7c146100a9578063461fc090146100c55780636813b53b146100f5575b600080fd5b6100a760048036038101906100a29190610e9f565b6101ca565b005b6100c360048036038101906100be9190610f5b565b6104b5565b005b6100df60048036038101906100da9190610fbb565b610709565b6040516100ec91906110a6565b60405180910390f35b61010f600480360381019061010a9190610fbb565b6107aa565b6040516101229796959493929190611340565b60405180910390f35b610133610ade565b60405161014091906113cb565b60405180910390f35b610163600480360381019061015e9190611516565b610b04565b604051610170919061157a565b60405180910390f35b610193600480360381019061018e9190610fbb565b610b3a565b6040516101a39493929190611595565b60405180910390f35b6101b4610c12565b6040516101c191906115e1565b60405180910390f35b6002600088815260200190815260200160002060060160009054906101000a900473ffffffffffffffffffffffffffffffffffffffff1673ffffffffffffffffffffffffffffffffffffffff163373ffffffffffffffffffffffffffffffffffffffff161461026e576040517f08c379a000000000000000000000000000000000000000000000000000000000815260040161026590611648565b60405180910390fd5b60026000888152602001908152602001600020600301859080600181540180825580915050600190039060005260206000200160009091909190915055600260008881526020019081526020016000206005014290806001815401808255809150506001900390600052602060002001600090919091909150556002600088815260200190815260200160002060040184849091806001815401808255809150506001900390600052602060002001600090919290919290919290919250918261033992919061187f565b50856002600089815260200190815260200160002060060160006101000a81548173ffffffffffffffffffffffffffffffffffffffff021916908373ffffffffffffffffffffffffffffffffffffffff16021790555060036000888152602001908152602001600020869080600181540180825580915050600190039060005260206000200160009091909190916101000a81548173ffffffffffffffffffffffffffffffffffffffff021916908373ffffffffffffffffffffffffffffffffffffffff16021790555060016004838360405161041792919061197f565b908152602001604051809103902060006101000a81548160ff0219169083151502179055507feccee9e6dbeeacbeb51c12daab94cba38c69e3fcc211b850f6ea7fde52451873876002600080548152602001908152602001600020600101600260008054815260200190815260200160002060020154888888426040516104a49796959493929190611a49565b60405180910390a150505050505050565b6104bd610c18565b60005481600001818152505083838080601f016020809104026020016040519081016040528093929190818152602001838380828437600081840152601f19601f82011690508083019250505050505050816020018190525081816040018181525050338160c0019073ffffffffffffffffffffffffffffffffffffffff16908173ffffffffffffffffffffffffffffffffffffffff168152505080600260008054815260200190815260200160002060008201518160000155602082015181600101908161058c9190611aba565b506040820151816002015560608201518160030190805190602001906105b3929190610c6b565b5060808201518160040190805190602001906105d0929190610cb8565b5060a08201518160050190805190602001906105ed929190610c6b565b5060c08201518160060160006101000a81548173ffffffffffffffffffffffffffffffffffffffff021916908373ffffffffffffffffffffffffffffffffffffffff1602179055509050506003600080548152602001908152602001600020339080600181540180825580915050600190039060005260206000200160009091909190916101000a81548173ffffffffffffffffffffffffffffffffffffffff021916908373ffffffffffffffffffffffffffffffffffffffff1602179055507fe25e7cbd30846862937ea31dfcf58fb5d35ae9fed07c8dfdc8bcdd1441308c926000548585856040516106e49493929190611b8c565b60405180910390a16000808154809291906106fe90611bfb565b919050555050505050565b60606003600083815260200190815260200160002080548060200260200160405190810160405280929190818152602001828054801561079e57602002820191906000526020600020905b8160009054906101000a900473ffffffffffffffffffffffffffffffffffffffff1673ffffffffffffffffffffffffffffffffffffffff1681526020019060010190808311610754575b50505050509050919050565b60006060600060608060606000805488106107fa576040517f08c379a00000000000000000000000000000000000000000000000000000000081526004016107f190611c8f565b60405180910390fd5b6000600260008a81526020019081526020016000206040518060e001604052908160008201548152602001600182018054610834906116a2565b80601f0160208091040260200160405190810160405280929190818152602001828054610860906116a2565b80156108ad5780601f10610882576101008083540402835291602001916108ad565b820191906000526020600020905b81548152906001019060200180831161089057829003601f168201915b50505050508152602001600282015481526020016003820180548060200260200160405190810160405280929190818152602001828054801561090f57602002820191906000526020600020905b8154815260200190600101908083116108fb575b5050505050815260200160048201805480602002602001604051908101604052809291908181526020016000905b828210156109e957838290600052602060002001805461095c906116a2565b80601f0160208091040260200160405190810160405280929190818152602001828054610988906116a2565b80156109d55780601f106109aa576101008083540402835291602001916109d5565b820191906000526020600020905b8154815290600101906020018083116109b857829003601f168201915b50505050508152602001906001019061093d565b50505050815260200160058201805480602002602001604051908101604052809291908181526020018280548015610a4057602002820191906000526020600020905b815481526020019060010190808311610a2c575b505050505081526020016006820160009054906101000a900473ffffffffffffffffffffffffffffffffffffffff1673ffffffffffffffffffffffffffffffffffffffff1673ffffffffffffffffffffffffffffffffffffffff16815250509050806000015181602001518260400151836060015184608001518560a001518660c00151975097509750975097509750975050919395979092949650565b600160009054906101000a900473ffffffffffffffffffffffffffffffffffffffff1681565b6004818051602081018201805184825260208301602085012081835280955050505050506000915054906101000a900460ff1681565b6002602052806000526040600020600091509050806000015490806001018054610b63906116a2565b80601f0160208091040260200160405190810160405280929190818152602001828054610b8f906116a2565b8015610bdc5780601f10610bb157610100808354040283529160200191610bdc565b820191906000526020600020905b815481529060010190602001808311610bbf57829003601f168201915b5050505050908060020154908060060160009054906101000a900473ffffffffffffffffffffffffffffffffffffffff16905084565b60005481565b6040518060e00160405280600081526020016060815260200160008152602001606081526020016060815260200160608152602001600073ffffffffffffffffffffffffffffffffffffffff1681525090565b828054828255906000526020600020908101928215610ca7579160200282015b82811115610ca6578251825591602001919060010190610c8b565b5b509050610cb49190610d11565b5090565b828054828255906000526020600020908101928215610d00579160200282015b82811115610cff578251829081610cef9190611aba565b5091602001919060010190610cd8565b5b509050610d0d9190610d2e565b5090565b5b80821115610d2a576000816000905550600101610d12565b5090565b5b80821115610d4e5760008181610d459190610d52565b50600101610d2f565b5090565b508054610d5e906116a2565b6000825580601f10610d705750610d8f565b601f016020900490600052602060002090810190610d8e9190610d11565b5b50565b6000604051905090565b600080fd5b600080fd5b6000819050919050565b610db981610da6565b8114610dc457600080fd5b50565b600081359050610dd681610db0565b92915050565b600073ffffffffffffffffffffffffffffffffffffffff82169050919050565b6000610e0782610ddc565b9050919050565b610e1781610dfc565b8114610e2257600080fd5b50565b600081359050610e3481610e0e565b92915050565b600080fd5b600080fd5b600080fd5b60008083601f840112610e5f57610e5e610e3a565b5b8235905067ffffffffffffffff811115610e7c57610e7b610e3f565b5b602083019150836001820283011115610e9857610e97610e44565b5b9250929050565b600080600080600080600060a0888a031215610ebe57610ebd610d9c565b5b6000610ecc8a828b01610dc7565b9750506020610edd8a828b01610e25565b9650506040610eee8a828b01610dc7565b955050606088013567ffffffffffffffff811115610f0f57610f0e610da1565b5b610f1b8a828b01610e49565b9450945050608088013567ffffffffffffffff811115610f3e57610f3d610da1565b5b610f4a8a828b01610e49565b925092505092959891949750929550565b600080600060408486031215610f7457610f73610d9c565b5b600084013567ffffffffffffffff811115610f9257610f91610da1565b5b610f9e86828701610e49565b93509350506020610fb186828701610dc7565b9150509250925092565b600060208284031215610fd157610fd0610d9c565b5b6000610fdf84828501610dc7565b91505092915050565b600081519050919050565b600082825260208201905092915050565b6000819050602082019050919050565b61101d81610dfc565b82525050565b600061102f8383611014565b60208301905092915050565b6000602082019050919050565b600061105382610fe8565b61105d8185610ff3565b935061106883611004565b8060005b838110156110995781516110808882611023565b975061108b8361103b565b92505060018101905061106c565b5085935050505092915050565b600060208201905081810360008301526110c08184611048565b905092915050565b6110d181610da6565b82525050565b600081519050919050565b600082825260208201905092915050565b60005b838110156111115780820151818401526020810190506110f6565b60008484015250505050565b6000601f19601f8301169050919050565b6000611139826110d7565b61114381856110e2565b93506111538185602086016110f3565b61115c8161111d565b840191505092915050565b600081519050919050565b600082825260208201905092915050565b6000819050602082019050919050565b61119c81610da6565b82525050565b60006111ae8383611193565b60208301905092915050565b6000602082019050919050565b60006111d282611167565b6111dc8185611172565b93506111e783611183565b8060005b838110156112185781516111ff88826111a2565b975061120a836111ba565b9250506001810190506111eb565b5085935050505092915050565b600081519050919050565b600082825260208201905092915050565b6000819050602082019050919050565b600082825260208201905092915050565b600061126d826110d7565b6112778185611251565b93506112878185602086016110f3565b6112908161111d565b840191505092915050565b60006112a78383611262565b905092915050565b6000602082019050919050565b60006112c782611225565b6112d18185611230565b9350836020820285016112e385611241565b8060005b8581101561131f5784840389528151611300858261129b565b945061130b836112af565b925060208a019950506001810190506112e7565b50829750879550505050505092915050565b61133a81610dfc565b82525050565b600060e082019050611355600083018a6110c8565b8181036020830152611367818961112e565b905061137660408301886110c8565b818103606083015261138881876111c7565b9050818103608083015261139c81866112bc565b905081810360a08301526113b081856111c7565b90506113bf60c0830184611331565b98975050505050505050565b60006020820190506113e06000830184611331565b92915050565b600080fd5b7f4e487b7100000000000000000000000000000000000000000000000000000000600052604160045260246000fd5b6114238261111d565b810181811067ffffffffffffffff82111715611442576114416113eb565b5b80604052505050565b6000611455610d92565b9050611461828261141a565b919050565b600067ffffffffffffffff821115611481576114806113eb565b5b61148a8261111d565b9050602081019050919050565b82818337600083830152505050565b60006114b96114b484611466565b61144b565b9050828152602081018484840111156114d5576114d46113e6565b5b6114e0848285611497565b509392505050565b600082601f8301126114fd576114fc610e3a565b5b813561150d8482602086016114a6565b91505092915050565b60006020828403121561152c5761152b610d9c565b5b600082013567ffffffffffffffff81111561154a57611549610da1565b5b611556848285016114e8565b91505092915050565b60008115159050919050565b6115748161155f565b82525050565b600060208201905061158f600083018461156b565b92915050565b60006080820190506115aa60008301876110c8565b81810360208301526115bc818661112e565b90506115cb60408301856110c8565b6115d86060830184611331565b95945050505050565b60006020820190506115f660008301846110c8565b92915050565b7f4e6f744f776e6572000000000000000000000000000000000000000000000000600082015250565b60006116326008836110e2565b915061163d826115fc565b602082019050919050565b6000602082019050818103600083015261166181611625565b9050919050565b600082905092915050565b7f4e487b7100000000000000000000000000000000000000000000000000000000600052602260045260246000fd5b600060028204905060018216806116ba57607f821691505b6020821081036116cd576116cc611673565b5b50919050565b60008190508160005260206000209050919050565b60006020601f8301049050919050565b600082821b905092915050565b6000600883026117357fffffffffffffffffffffffffffffffffffffffffffffffffffffffffffffffff826116f8565b61173f86836116f8565b95508019841693508086168417925050509392505050565b6000819050919050565b600061177c61177761177284610da6565b611757565b610da6565b9050919050565b6000819050919050565b61179683611761565b6117aa6117a282611783565b848454611705565b825550505050565b600090565b6117bf6117b2565b6117ca81848461178d565b505050565b5b818110156117ee576117e36000826117b7565b6001810190506117d0565b5050565b601f82111561183357611804816116d3565b61180d846116e8565b8101602085101561181c578190505b611830611828856116e8565b8301826117cf565b50505b505050565b600082821c905092915050565b600061185660001984600802611838565b1980831691505092915050565b600061186f8383611845565b9150826002028217905092915050565b6118898383611668565b67ffffffffffffffff8111156118a2576118a16113eb565b5b6118ac82546116a2565b6118b78282856117f2565b6000601f8311600181146118e657600084156118d4578287013590505b6118de8582611863565b865550611946565b601f1984166118f4866116d3565b60005b8281101561191c578489013582556001820191506020850194506020810190506118f7565b868310156119395784890135611935601f891682611845565b8355505b6001600288020188555050505b50505050505050565b600081905092915050565b6000611966838561194f565b9350611973838584611497565b82840190509392505050565b600061198c82848661195a565b91508190509392505050565b600081546119a5816116a2565b6119af81866110e2565b945060018216600081146119ca57600181146119e057611a13565b60ff198316865281151560200286019350611a13565b6119e9856116d3565b60005b83811015611a0b578154818901526001820191506020810190506119ec565b808801955050505b50505092915050565b6000611a2883856110e2565b9350611a35838584611497565b611a3e8361111d565b840190509392505050565b600060c082019050611a5e600083018a6110c8565b8181036020830152611a708189611998565b9050611a7f60408301886110c8565b611a8c60608301876110c8565b8181036080830152611a9f818587611a1c565b9050611aae60a08301846110c8565b98975050505050505050565b611ac3826110d7565b67ffffffffffffffff811115611adc57611adb6113eb565b5b611ae682546116a2565b611af18282856117f2565b600060209050601f831160018114611b245760008415611b12578287015190505b611b1c8582611863565b865550611b84565b601f198416611b32866116d3565b60005b82811015611b5a57848901518255600182019150602085019450602081019050611b35565b86831015611b775784890151611b73601f891682611845565b8355505b6001600288020188555050505b505050505050565b6000606082019050611ba160008301876110c8565b8181036020830152611bb4818587611a1c565b9050611bc360408301846110c8565b95945050505050565b7f4e487b7100000000000000000000000000000000000000000000000000000000600052601160045260246000fd5b6000611c0682610da6565b91507fffffffffffffffffffffffffffffffffffffffffffffffffffffffffffffffff8203611c3857611c37611bcc565b5b600182019050919050565b7f496e76616c69642070726f647563742049440000000000000000000000000000600082015250565b6000611c796012836110e2565b9150611c8482611c43565b602082019050919050565b60006020820190508181036000830152611ca881611c6c565b905091905056fea2646970667358221220767f4edeed58aa2d2a78be3b3f4430f7aee3c8d1b2178231fc718cd73301ead264736f6c63430008120033",
  "linkReferences": {},
  "deployedLinkReferences": {}
}