{
  "_format": "hh-sol-artifact-1",
  "contractName": "SupplyChain",
  "sourceName": "contracts/SupplyChain.sol",
  "abi": [
    {
      "inputs": [],
      "stateMutability": "nonpayable",
      "type": "constructor"
    },
    {
      "anonymous": false,
      "inputs": [
        {
          "indexed": false,
          "internalType": "uint256",
          "name": "_id",
          "type": "uint256"
        },
        {
          "indexed": false,
          "internalType": "string",
          "name": "name",
          "type": "string"
        },
        {
          "indexed": false,
          "internalType": "uint256",
          "name": "quantity",
          "type": "uint256"
        }
      ],
      "name": "ProductAssign",
      "type": "event"
    },
    {
      "anonymous": false,
      "inputs": [
        {
          "indexed": false,
          "internalType": "uint256",
          "name": "id",
          "type": "uint256"
        },
        {
          "indexed": false,
          "internalType": "string",
          "name": "name",
          "type": "string"
        },
        {
          "indexed": false,
          "internalType": "uint256",
          "name": "quantity",
          "type": "uint256"
        },
        {
          "indexed": false,
          "internalType": "uint256",
          "name": "price",
          "type": "uint256"
        },
        {
          "indexed": false,
          "internalType": "string",
          "name": "location",
          "type": "string"
        },
        {
          "indexed": false,
          "internalType": "uint256",
          "name": "time",
          "type": "uint256"
        }
      ],
      "name": "ProductSell",
      "type": "event"
    },
    {
      "inputs": [
        {
          "internalType": "uint256",
          "name": "",
          "type": "uint256"
        }
      ],
      "name": "IdTOProduct",
      "outputs": [
        {
          "internalType": "uint256",
          "name": "productID",
          "type": "uint256"
        },
        {
          "internalType": "string",
          "name": "productName",
          "type": "string"
        },
        {
          "internalType": "uint256",
          "name": "productQuantity",
          "type": "uint256"
        },
        {
          "internalType": "address",
          "name": "productOwner",
          "type": "address"
        }
      ],
      "stateMutability": "view",
      "type": "function"
    },
    {
      "inputs": [
        {
          "internalType": "address",
          "name": "",
          "type": "address"
        },
        {
          "internalType": "uint256",
          "name": "",
          "type": "uint256"
        }
      ],
      "name": "UserProductList",
      "outputs": [
        {
          "internalType": "uint256",
          "name": "",
          "type": "uint256"
        }
      ],
      "stateMutability": "view",
      "type": "function"
    },
    {
      "inputs": [
        {
          "internalType": "string",
          "name": "name",
          "type": "string"
        },
        {
          "internalType": "uint256",
          "name": "quantity",
          "type": "uint256"
        }
      ],
      "name": "assignProduct",
      "outputs": [],
      "stateMutability": "nonpayable",
      "type": "function"
    },
    {
      "inputs": [
        {
          "internalType": "address",
          "name": "",
          "type": "address"
        }
      ],
      "name": "bUser",
      "outputs": [
        {
          "internalType": "bool",
          "name": "",
          "type": "bool"
        }
      ],
      "stateMutability": "view",
      "type": "function"
    },
    {
      "inputs": [
        {
          "internalType": "address",
          "name": "x",
          "type": "address"
        }
      ],
      "name": "blockUser",
      "outputs": [],
      "stateMutability": "nonpayable",
      "type": "function"
    },
    {
      "inputs": [],
      "name": "deriveLastId",
      "outputs": [
        {
          "internalType": "uint256",
          "name": "",
          "type": "uint256"
        }
      ],
      "stateMutability": "view",
      "type": "function"
    },
    {
      "inputs": [
        {
          "internalType": "uint256",
          "name": "_id",
          "type": "uint256"
        }
      ],
      "name": "getProductDetails",
      "outputs": [
        {
          "internalType": "uint256",
          "name": "productID",
          "type": "uint256"
        },
        {
          "internalType": "string",
          "name": "productName",
          "type": "string"
        },
        {
          "internalType": "uint256",
          "name": "productQuantity",
          "type": "uint256"
        },
        {
          "internalType": "uint256[]",
          "name": "productPrice",
          "type": "uint256[]"
        },
        {
          "internalType": "string[]",
          "name": "productLocation",
          "type": "string[]"
        },
        {
          "internalType": "uint256[]",
          "name": "productTimestamp",
          "type": "uint256[]"
        },
        {
          "internalType": "address",
          "name": "productOwner",
          "type": "address"
        }
      ],
      "stateMutability": "view",
      "type": "function"
    },
    {
      "inputs": [],
      "name": "id",
      "outputs": [
        {
          "internalType": "uint256",
          "name": "",
          "type": "uint256"
        }
      ],
      "stateMutability": "view",
      "type": "function"
    },
    {
      "inputs": [
        {
          "internalType": "uint256",
          "name": "",
          "type": "uint256"
        }
      ],
      "name": "isSell",
      "outputs": [
        {
          "internalType": "bool",
          "name": "",
          "type": "bool"
        }
      ],
      "stateMutability": "view",
      "type": "function"
    },
    {
      "inputs": [],
      "name": "owner",
      "outputs": [
        {
          "internalType": "address",
          "name": "",
          "type": "address"
        }
      ],
      "stateMutability": "view",
      "type": "function"
    },
    {
      "inputs": [
        {
          "internalType": "uint256",
          "name": "_id",
          "type": "uint256"
        }
      ],
      "name": "ownerHistory",
      "outputs": [
        {
          "internalType": "address[]",
          "name": "",
          "type": "address[]"
        }
      ],
      "stateMutability": "view",
      "type": "function"
    },
    {
      "inputs": [
        {
          "internalType": "string",
          "name": "",
          "type": "string"
        }
      ],
      "name": "pdfHash",
      "outputs": [
        {
          "internalType": "bool",
          "name": "",
          "type": "bool"
        }
      ],
      "stateMutability": "view",
      "type": "function"
    },
    {
      "inputs": [
        {
          "internalType": "uint256",
          "name": "_id",
          "type": "uint256"
        },
        {
          "internalType": "address",
          "name": "_buyer",
          "type": "address"
        },
        {
          "internalType": "uint256",
          "name": "_quantity",
          "type": "uint256"
        },
        {
          "internalType": "uint256",
          "name": "_price",
          "type": "uint256"
        },
        {
          "internalType": "string",
          "name": "location",
          "type": "string"
        },
        {
          "internalType": "string",
          "name": "_hash",
          "type": "string"
        }
      ],
      "name": "sellProduct",
      "outputs": [],
      "stateMutability": "nonpayable",
      "type": "function"
    },
    {
      "inputs": [],
      "name": "stopListing",
      "outputs": [],
      "stateMutability": "nonpayable",
      "type": "function"
    }
  ],
  "bytecode": "0x60806040526001600860006101000a81548160ff02191690831515021790555034801561002b57600080fd5b5033600160006101000a81548173ffffffffffffffffffffffffffffffffffffffff021916908373ffffffffffffffffffffffffffffffffffffffff1602179055506103e86000819055506125b3806100856000396000f3fe608060405234801561001057600080fd5b50600436106100ea5760003560e01c806392464dfc1161008c578063a8c141b911610066578063a8c141b914610263578063af640d0f14610296578063cc373b3c146102b4578063dcfd8405146102d0576100ea565b806392464dfc146101f957806396dc690f14610229578063a52ed04114610259576100ea565b80633f6b6a7c116100c85780633f6b6a7c14610159578063461fc090146101755780636813b53b146101a55780638da5cb5b146101db576100ea565b80631b01e72c146100ef5780633a7e8e361461011f5780633da013251461013d575b600080fd5b61010960048036038101906101049190611483565b610300565b60405161011691906114cb565b60405180910390f35b610127610320565b60405161013491906114f5565b60405180910390f35b6101576004803603810190610152919061156e565b6103e7565b005b610173600480360381019061016e9190611600565b6104d2565b005b61018f600480360381019061018a9190611483565b610877565b60405161019c919061171e565b60405180910390f35b6101bf60048036038101906101ba9190611483565b610918565b6040516101d297969594939291906119a9565b60405180910390f35b6101e3610cc1565b6040516101f09190611a34565b60405180910390f35b610213600480360381019061020e9190611b7f565b610ce7565b60405161022091906114cb565b60405180910390f35b610243600480360381019061023e9190611bc8565b610d1d565b60405161025091906114f5565b60405180910390f35b610261610d4e565b005b61027d60048036038101906102789190611483565b610dfb565b60405161028d9493929190611c08565b60405180910390f35b61029e610ed3565b6040516102ab91906114f5565b60405180910390f35b6102ce60048036038101906102c99190611c54565b610ed9565b005b6102ea60048036038101906102e5919061156e565b61129f565b6040516102f791906114cb565b60405180910390f35b60066020528060005260406000206000915054906101000a900460ff1681565b600080600560003373ffffffffffffffffffffffffffffffffffffffff1673ffffffffffffffffffffffffffffffffffffffff1681526020019081526020016000208054806020026020016040519081016040528092919081815260200182805480156103ac57602002820191906000526020600020905b815481526020019060010190808311610398575b50505050509050600081519050816001826103c79190611d52565b815181106103d8576103d7611d86565b5b60200260200101519250505090565b600160009054906101000a900473ffffffffffffffffffffffffffffffffffffffff1673ffffffffffffffffffffffffffffffffffffffff163373ffffffffffffffffffffffffffffffffffffffff1614610477576040517f08c379a000000000000000000000000000000000000000000000000000000000815260040161046e90611e01565b60405180910390fd5b6001600760008373ffffffffffffffffffffffffffffffffffffffff1673ffffffffffffffffffffffffffffffffffffffff16815260200190815260200160002060006101000a81548160ff02191690831515021790555050565b60011515600860009054906101000a900460ff16151514610528576040517f08c379a000000000000000000000000000000000000000000000000000000000815260040161051f90611e6d565b60405180910390fd5b60001515600760003373ffffffffffffffffffffffffffffffffffffffff1673ffffffffffffffffffffffffffffffffffffffff16815260200190815260200160002060009054906101000a900460ff161515146105bb576040517f08c379a00000000000000000000000000000000000000000000000000000000081526004016105b290611ed9565b60405180910390fd5b6105c36112bf565b60005481600001818152505083838080601f016020809104026020016040519081016040528093929190818152602001838380828437600081840152601f19601f82011690508083019250505050505050816020018190525081816040018181525050338160c0019073ffffffffffffffffffffffffffffffffffffffff16908173ffffffffffffffffffffffffffffffffffffffff16815250508060026000805481526020019081526020016000206000820151816000015560208201518160010190816106929190612105565b506040820151816002015560608201518160030190805190602001906106b9929190611312565b5060808201518160040190805190602001906106d692919061135f565b5060a08201518160050190805190602001906106f3929190611312565b5060c08201518160060160006101000a81548173ffffffffffffffffffffffffffffffffffffffff021916908373ffffffffffffffffffffffffffffffffffffffff1602179055509050506003600080548152602001908152602001600020339080600181540180825580915050600190039060005260206000200160009091909190916101000a81548173ffffffffffffffffffffffffffffffffffffffff021916908373ffffffffffffffffffffffffffffffffffffffff160217905550600560003373ffffffffffffffffffffffffffffffffffffffff1673ffffffffffffffffffffffffffffffffffffffff16815260200190815260200160002060005490806001815401808255809150506001900390600052602060002001600090919091909150557fe25e7cbd30846862937ea31dfcf58fb5d35ae9fed07c8dfdc8bcdd1441308c926000548585856040516108529493929190612204565b60405180910390a160008081548092919061086c90612244565b919050555050505050565b60606003600083815260200190815260200160002080548060200260200160405190810160405280929190818152602001828054801561090c57602002820191906000526020600020905b8160009054906101000a900473ffffffffffffffffffffffffffffffffffffffff1673ffffffffffffffffffffffffffffffffffffffff16815260200190600101908083116108c2575b50505050509050919050565b60006060600060608060606000876103e7108015610937575060005488105b610976576040517f08c379a000000000000000000000000000000000000000000000000000000000815260040161096d906122d8565b60405180910390fd5b60011515600660008a815260200190815260200160002060009054906101000a900460ff161515146109dd576040517f08c379a00000000000000000000000000000000000000000000000000000000081526004016109d490612344565b60405180910390fd5b6000600260008a81526020019081526020016000206040518060e001604052908160008201548152602001600182018054610a1790611f28565b80601f0160208091040260200160405190810160405280929190818152602001828054610a4390611f28565b8015610a905780601f10610a6557610100808354040283529160200191610a90565b820191906000526020600020905b815481529060010190602001808311610a7357829003601f168201915b505050505081526020016002820154815260200160038201805480602002602001604051908101604052809291908181526020018280548015610af257602002820191906000526020600020905b815481526020019060010190808311610ade575b5050505050815260200160048201805480602002602001604051908101604052809291908181526020016000905b82821015610bcc578382906000526020600020018054610b3f90611f28565b80601f0160208091040260200160405190810160405280929190818152602001828054610b6b90611f28565b8015610bb85780601f10610b8d57610100808354040283529160200191610bb8565b820191906000526020600020905b815481529060010190602001808311610b9b57829003601f168201915b505050505081526020019060010190610b20565b50505050815260200160058201805480602002602001604051908101604052809291908181526020018280548015610c2357602002820191906000526020600020905b815481526020019060010190808311610c0f575b505050505081526020016006820160009054906101000a900473ffffffffffffffffffffffffffffffffffffffff1673ffffffffffffffffffffffffffffffffffffffff1673ffffffffffffffffffffffffffffffffffffffff16815250509050806000015181602001518260400151836060015184608001518560a001518660c00151975097509750975097509750975050919395979092949650565b600160009054906101000a900473ffffffffffffffffffffffffffffffffffffffff1681565b6004818051602081018201805184825260208301602085012081835280955050505050506000915054906101000a900460ff1681565b60056020528160005260406000208181548110610d3957600080fd5b90600052602060002001600091509150505481565b600160009054906101000a900473ffffffffffffffffffffffffffffffffffffffff1673ffffffffffffffffffffffffffffffffffffffff163373ffffffffffffffffffffffffffffffffffffffff1614610dde576040517f08c379a0000000000000000000000000000000000000000000000000000000008152600401610dd590611e01565b60405180910390fd5b6000600860006101000a81548160ff021916908315150217905550565b6002602052806000526040600020600091509050806000015490806001018054610e2490611f28565b80601f0160208091040260200160405190810160405280929190818152602001828054610e5090611f28565b8015610e9d5780601f10610e7257610100808354040283529160200191610e9d565b820191906000526020600020905b815481529060010190602001808311610e8057829003601f168201915b5050505050908060020154908060060160009054906101000a900473ffffffffffffffffffffffffffffffffffffffff16905084565b60005481565b6002600089815260200190815260200160002060060160009054906101000a900473ffffffffffffffffffffffffffffffffffffffff1673ffffffffffffffffffffffffffffffffffffffff163373ffffffffffffffffffffffffffffffffffffffff1614610f7d576040517f08c379a0000000000000000000000000000000000000000000000000000000008152600401610f7490611e01565b60405180910390fd5b60001515600760003373ffffffffffffffffffffffffffffffffffffffff1673ffffffffffffffffffffffffffffffffffffffff16815260200190815260200160002060009054906101000a900460ff16151514611010576040517f08c379a000000000000000000000000000000000000000000000000000000000815260040161100790611ed9565b60405180910390fd5b6002600089815260200190815260200160002060030185908060018154018082558091505060019003906000526020600020016000909190919091505560026000898152602001908152602001600020600501429080600181540180825580915050600190039060005260206000200160009091909190915055600260008981526020019081526020016000206004018484909180600181540180825580915050600190039060005260206000200160009091929091929091929091925091826110db92919061236f565b5085600260008a81526020019081526020016000206002018190555086600260008a815260200190815260200160002060060160006101000a81548173ffffffffffffffffffffffffffffffffffffffff021916908373ffffffffffffffffffffffffffffffffffffffff16021790555060036000898152602001908152602001600020879080600181540180825580915050600190039060005260206000200160009091909190916101000a81548173ffffffffffffffffffffffffffffffffffffffff021916908373ffffffffffffffffffffffffffffffffffffffff1602179055506001600660008a815260200190815260200160002060006101000a81548160ff02191690831515021790555060016004838360405161120092919061246f565b908152602001604051809103902060006101000a81548160ff0219169083151502179055507feccee9e6dbeeacbeb51c12daab94cba38c69e3fcc211b850f6ea7fde524518738860026000805481526020019081526020016000206001016002600080548152602001908152602001600020600201548888884260405161128d979695949392919061250c565b60405180910390a15050505050505050565b60076020528060005260406000206000915054906101000a900460ff1681565b6040518060e00160405280600081526020016060815260200160008152602001606081526020016060815260200160608152602001600073ffffffffffffffffffffffffffffffffffffffff1681525090565b82805482825590600052602060002090810192821561134e579160200282015b8281111561134d578251825591602001919060010190611332565b5b50905061135b91906113b8565b5090565b8280548282559060005260206000209081019282156113a7579160200282015b828111156113a65782518290816113969190612105565b509160200191906001019061137f565b5b5090506113b491906113d5565b5090565b5b808211156113d15760008160009055506001016113b9565b5090565b5b808211156113f557600081816113ec91906113f9565b506001016113d6565b5090565b50805461140590611f28565b6000825580601f106114175750611436565b601f01602090049060005260206000209081019061143591906113b8565b5b50565b6000604051905090565b600080fd5b600080fd5b6000819050919050565b6114608161144d565b811461146b57600080fd5b50565b60008135905061147d81611457565b92915050565b60006020828403121561149957611498611443565b5b60006114a78482850161146e565b91505092915050565b60008115159050919050565b6114c5816114b0565b82525050565b60006020820190506114e060008301846114bc565b92915050565b6114ef8161144d565b82525050565b600060208201905061150a60008301846114e6565b92915050565b600073ffffffffffffffffffffffffffffffffffffffff82169050919050565b600061153b82611510565b9050919050565b61154b81611530565b811461155657600080fd5b50565b60008135905061156881611542565b92915050565b60006020828403121561158457611583611443565b5b600061159284828501611559565b91505092915050565b600080fd5b600080fd5b600080fd5b60008083601f8401126115c0576115bf61159b565b5b8235905067ffffffffffffffff8111156115dd576115dc6115a0565b5b6020830191508360018202830111156115f9576115f86115a5565b5b9250929050565b60008060006040848603121561161957611618611443565b5b600084013567ffffffffffffffff81111561163757611636611448565b5b611643868287016115aa565b935093505060206116568682870161146e565b9150509250925092565b600081519050919050565b600082825260208201905092915050565b6000819050602082019050919050565b61169581611530565b82525050565b60006116a7838361168c565b60208301905092915050565b6000602082019050919050565b60006116cb82611660565b6116d5818561166b565b93506116e08361167c565b8060005b838110156117115781516116f8888261169b565b9750611703836116b3565b9250506001810190506116e4565b5085935050505092915050565b6000602082019050818103600083015261173881846116c0565b905092915050565b600081519050919050565b600082825260208201905092915050565b60005b8381101561177a57808201518184015260208101905061175f565b60008484015250505050565b6000601f19601f8301169050919050565b60006117a282611740565b6117ac818561174b565b93506117bc81856020860161175c565b6117c581611786565b840191505092915050565b600081519050919050565b600082825260208201905092915050565b6000819050602082019050919050565b6118058161144d565b82525050565b600061181783836117fc565b60208301905092915050565b6000602082019050919050565b600061183b826117d0565b61184581856117db565b9350611850836117ec565b8060005b83811015611881578151611868888261180b565b975061187383611823565b925050600181019050611854565b5085935050505092915050565b600081519050919050565b600082825260208201905092915050565b6000819050602082019050919050565b600082825260208201905092915050565b60006118d682611740565b6118e081856118ba565b93506118f081856020860161175c565b6118f981611786565b840191505092915050565b600061191083836118cb565b905092915050565b6000602082019050919050565b60006119308261188e565b61193a8185611899565b93508360208202850161194c856118aa565b8060005b8581101561198857848403895281516119698582611904565b945061197483611918565b925060208a01995050600181019050611950565b50829750879550505050505092915050565b6119a381611530565b82525050565b600060e0820190506119be600083018a6114e6565b81810360208301526119d08189611797565b90506119df60408301886114e6565b81810360608301526119f18187611830565b90508181036080830152611a058186611925565b905081810360a0830152611a198185611830565b9050611a2860c083018461199a565b98975050505050505050565b6000602082019050611a49600083018461199a565b92915050565b600080fd5b7f4e487b7100000000000000000000000000000000000000000000000000000000600052604160045260246000fd5b611a8c82611786565b810181811067ffffffffffffffff82111715611aab57611aaa611a54565b5b80604052505050565b6000611abe611439565b9050611aca8282611a83565b919050565b600067ffffffffffffffff821115611aea57611ae9611a54565b5b611af382611786565b9050602081019050919050565b82818337600083830152505050565b6000611b22611b1d84611acf565b611ab4565b905082815260208101848484011115611b3e57611b3d611a4f565b5b611b49848285611b00565b509392505050565b600082601f830112611b6657611b6561159b565b5b8135611b76848260208601611b0f565b91505092915050565b600060208284031215611b9557611b94611443565b5b600082013567ffffffffffffffff811115611bb357611bb2611448565b5b611bbf84828501611b51565b91505092915050565b60008060408385031215611bdf57611bde611443565b5b6000611bed85828601611559565b9250506020611bfe8582860161146e565b9150509250929050565b6000608082019050611c1d60008301876114e6565b8181036020830152611c2f8186611797565b9050611c3e60408301856114e6565b611c4b606083018461199a565b95945050505050565b60008060008060008060008060c0898b031215611c7457611c73611443565b5b6000611c828b828c0161146e565b9850506020611c938b828c01611559565b9750506040611ca48b828c0161146e565b9650506060611cb58b828c0161146e565b955050608089013567ffffffffffffffff811115611cd657611cd5611448565b5b611ce28b828c016115aa565b945094505060a089013567ffffffffffffffff811115611d0557611d04611448565b5b611d118b828c016115aa565b92509250509295985092959890939650565b7f4e487b7100000000000000000000000000000000000000000000000000000000600052601160045260246000fd5b6000611d5d8261144d565b9150611d688361144d565b9250828203905081811115611d8057611d7f611d23565b5b92915050565b7f4e487b7100000000000000000000000000000000000000000000000000000000600052603260045260246000fd5b7f4e6f744f776e6572000000000000000000000000000000000000000000000000600082015250565b6000611deb60088361174b565b9150611df682611db5565b602082019050919050565b60006020820190508181036000830152611e1a81611dde565b9050919050565b7f5061757365640000000000000000000000000000000000000000000000000000600082015250565b6000611e5760068361174b565b9150611e6282611e21565b602082019050919050565b60006020820190508181036000830152611e8681611e4a565b9050919050565b7f426c6f636b656400000000000000000000000000000000000000000000000000600082015250565b6000611ec360078361174b565b9150611ece82611e8d565b602082019050919050565b60006020820190508181036000830152611ef281611eb6565b9050919050565b7f4e487b7100000000000000000000000000000000000000000000000000000000600052602260045260246000fd5b60006002820490506001821680611f4057607f821691505b602082108103611f5357611f52611ef9565b5b50919050565b60008190508160005260206000209050919050565b60006020601f8301049050919050565b600082821b905092915050565b600060088302611fbb7fffffffffffffffffffffffffffffffffffffffffffffffffffffffffffffffff82611f7e565b611fc58683611f7e565b95508019841693508086168417925050509392505050565b6000819050919050565b6000612002611ffd611ff88461144d565b611fdd565b61144d565b9050919050565b6000819050919050565b61201c83611fe7565b61203061202882612009565b848454611f8b565b825550505050565b600090565b612045612038565b612050818484612013565b505050565b5b818110156120745761206960008261203d565b600181019050612056565b5050565b601f8211156120b95761208a81611f59565b61209384611f6e565b810160208510156120a2578190505b6120b66120ae85611f6e565b830182612055565b50505b505050565b600082821c905092915050565b60006120dc600019846008026120be565b1980831691505092915050565b60006120f583836120cb565b9150826002028217905092915050565b61210e82611740565b67ffffffffffffffff81111561212757612126611a54565b5b6121318254611f28565b61213c828285612078565b600060209050601f83116001811461216f576000841561215d578287015190505b61216785826120e9565b8655506121cf565b601f19841661217d86611f59565b60005b828110156121a557848901518255600182019150602085019450602081019050612180565b868310156121c257848901516121be601f8916826120cb565b8355505b6001600288020188555050505b505050505050565b60006121e3838561174b565b93506121f0838584611b00565b6121f983611786565b840190509392505050565b600060608201905061221960008301876114e6565b818103602083015261222c8185876121d7565b905061223b60408301846114e6565b95945050505050565b600061224f8261144d565b91507fffffffffffffffffffffffffffffffffffffffffffffffffffffffffffffffff820361228157612280611d23565b5b600182019050919050565b7f496e76616c69642070726f647563742049440000000000000000000000000000600082015250565b60006122c260128361174b565b91506122cd8261228c565b602082019050919050565b600060208201905081810360008301526122f1816122b5565b9050919050565b7f50726f64756374206e6f742053656c6c00000000000000000000000000000000600082015250565b600061232e60108361174b565b9150612339826122f8565b602082019050919050565b6000602082019050818103600083015261235d81612321565b9050919050565b600082905092915050565b6123798383612364565b67ffffffffffffffff81111561239257612391611a54565b5b61239c8254611f28565b6123a7828285612078565b6000601f8311600181146123d657600084156123c4578287013590505b6123ce85826120e9565b865550612436565b601f1984166123e486611f59565b60005b8281101561240c578489013582556001820191506020850194506020810190506123e7565b868310156124295784890135612425601f8916826120cb565b8355505b6001600288020188555050505b50505050505050565b600081905092915050565b6000612456838561243f565b9350612463838584611b00565b82840190509392505050565b600061247c82848661244a565b91508190509392505050565b6000815461249581611f28565b61249f818661174b565b945060018216600081146124ba57600181146124d057612503565b60ff198316865281151560200286019350612503565b6124d985611f59565b60005b838110156124fb578154818901526001820191506020810190506124dc565b808801955050505b50505092915050565b600060c082019050612521600083018a6114e6565b81810360208301526125338189612488565b905061254260408301886114e6565b61254f60608301876114e6565b81810360808301526125628185876121d7565b905061257160a08301846114e6565b9897505050505050505056fea264697066735822122085f4c14026811db2fb059008c6f6f55ec0b4199301703b7482687cb1e1f724ed64736f6c63430008120033",
  "linkReferences": {},
  "deployedLinkReferences": {}
}